:100000007FC100000C9431320C945C320C94873226
:100010000C94B2320C94DD320C9408330C943333CC
:100020000C945E330C94BA1B0C94E41B0C940E1CC1
:1000300098C100000C94393194C1000092C10000B5
:1000400090C100008EC100008CC100008AC1000078
:1000500088C1000086C1000084C100000C942B36CA
:1000600080C100000C94942C0C94CA2C7AC100001E
:1000700078C1000076C1000074C1000072C10000A8
:1000800070C100006EC100006CC100006AC10000B8
:100090000C943F2D0C94752D64C100000C948418B1
:1000A00060C100005EC100005CC100005AC10000D8
:1000B00058C1000056C1000054C1000052C10000E8
:1000C00050C100004EC100004CC100000C94EA2D4C
:1000D0000C94202E46C1000044C1000042C1000023
:1000E00040C10000E431AE31B631C231CF31F03120
:1000F000FD312132173219321B321D3223322532A3
:10010000903795379A37A437AE372738B837C03786
:10011000C837D237DC37E637F537FF3727380938A5
:1001200013381D3848384B383A383E38443882380E
:100130004F38533859385D38613867386B386F3805
:100140008238753879387D3807634236B79BD8A72F
:100150001A39685618AEBAAB558C1D3CB7CC5763EC
:10016000BD6DEDFD753EF6177231BF000000803F9A
:1001700008000000BE922449123EABAAAA2ABECDB6
:10018000CCCC4C3E00000080BEABAAAAAA3E000028
:100190000000BF000000803F000000000008417820
:1001A000D3BB4387D1133D190E3CC3BD4282AD2B57
:1001B0003E68EC8276BED98FE1A93E4C80EFFFBE4F
:1001C00001C4FF7F3F00000000000200000A0B0294
:1001D000090C0D0E080703040100000000000000D8
:1001E000000000000000000000000000000000000F
:1001F00000000000000000121110000000000000CC
:1002000000000000000000000000000000000000EE
:100210000001021020200808102040102040800219
:10022000010201080402010102040810204080803C
:1002300040201008040201800402018040201008C0
:100240000402010804020101020408102040800198
:100250000204081020408005050505070508080868
:1002600008020202020A0A08080404040401010147
:10027000010101010103030303030303030407074F
:10028000070C0C0C0C0C0C0C0C02020202060606ED
:1002900006060606060B0B0B0B0B0B0B0B000020C8
:1002A000002300260029002C002F0032000001004E
:1002B0000003010601090100002200250028002B8F
:1002C000002E003100340002010000050108010B7E
:1002D0000100002100240027002A002D00300033F7
:1002E0000001010000040107010A01005405E00DAE
:1002F000CE1AFC26FE27FC2CA72D522E3606F10D19
:1003000011241FBECFEFD1E2DEBFCDBF00E00CBF96
:1003100018E0A0E0B2E0E2EBF2E800E00BBF02C0C0
:1003200007900D92A235B107D9F721E1A2E5B8E017
:1003300001C01D92AE38B207E1F712E0CCEFD2E077
:1003400000E006C022970109FE010BBF0E94013D9B
:10035000CC3ED10780E00807A9F70E941C360C9418
:1003600048414ECE8DE399E00E94380F019721F469
:100370008DE399E00C94100F08958BE998E00C94AC
:10038000F81380E00E940A32789441E050E061EC7A
:1003900071E080E00C949931CF93DF9300D000D0CE
:1003A000CDB7DEB741E050E062E776E084E00E943E
:1003B000993141E050E06EE772E081E00E949931AE
:1003C00041E050E061EC71E080E00E94993126E06C
:1003D00040E051EE60E070E081EA9FE00E94322C44
:1003E00063E778E085E99FE00E94F11A63E578E031
:1003F00085E99FE00E94F11A6EE272E0CE0101965B
:100400000E94F433CE0101960E94410CCE01019668
:100410000E94893326960FB6F894DEBF0FBECDBF7B
:10042000DF91CF9108950F931F93CF93DF93CDB7B3
:10043000DEB72C970FB6F894DEBF0FBECDBF8C0190
:10044000CE0101960E945434B801CE0107960E9455
:100450005434AE014F5F5F4FBE01695F7F4F89E843
:1004600098E00E94E215182FCE0107960E9489336A
:10047000CE0101960E9489331123D9F06CE372E01A
:10048000CE0101960E94F433CE0101960E94410CE8
:10049000CE0101960E94893388E299E00E94B31050
:1004A000811121C061E088E299E00E94721081E030
:1004B0001AC06EE472E0CE0101960E94F433CE01C0
:1004C00001960E94410CCE0101960E94893388E278
:1004D00099E00E94B310882329F060E088E299E057
:1004E0000E94721080E02C960FB6F894DEBF0FBE0B
:1004F000CDBFDF91CF911F910F9108956F927F92A1
:100500008F929F92AF92BF92CF92DF92EF92FF9223
:100510000F931F93CF93DF93CDB7DEB76E970FB6D0
:10052000F894DEBF0FBECDBF81E00E940A327894FE
:1005300061EA7FE0CE0149960E94D53064E672E020
:10054000CE0149960E941535882339F068E279E09A
:10055000CE0101960E94B6120EC068E672E0CE018E
:1005600049960E941535882391F06BE978E0CE0119
:1005700001960E941D14BE016F5F7F4F81EA9FE0CC
:100580000E94D32ECE0101960E94893303C16CE6EE
:1005900072E0CE0149960E941535882319F060E774
:1005A00072E0F4C064E772E0CE0149960E9415350E
:1005B000882329F0CE0101960E948A0BDCCF68E7E0
:1005C00072E0CE0149960E941535882329F08DE30B
:1005D00099E00E94310FDEC06CE772E0CE014996CF
:1005E0000E941535882361F088E299E00E94B310DB
:1005F000882319F060E872E0C9C067E872E0C6C0FD
:100600006FE872E0CE0101960E94F433BE016F5F85
:100610007F4FCE0149960E945835182FCE01019682
:100620000E948933112309F4A7C060E277E0CE016C
:1006300001960E94F433BE016F5F7F4FCE01499651
:100640000E94C8354C01CE0101960E948933640195
:100650008FEFC81AD80A60E277E0CE0101960E94B7
:10066000F433A601BE016F5F7F4FCE0149960E9411
:10067000AC353C01CE0101960E94893360E277E0FF
:10068000CE0101960E94F433A3014F5F5F4FBE017C
:100690006F5F7F4FCE0149960E94AC355C01CE0161
:1006A00001960E94893385010F5F1F4F60E277E05A
:1006B000CE0101960E94F433A801BE016F5F7F4F07
:1006C000CE0149960E94AC357C01CE0101960E9474
:1006D00089338920809409F45DC08FEF681678060D
:1006E00009F458C0AB20A09409F454C08FEFE81669
:1006F000F80609F44FC09301A601BE01675E7F4F63
:10070000CE0143960E94CB359701A801BE01675EDA
:100710007F4FCE010D960E94CB35BE01635F7F4FA8
:10072000CE0101960E945434BE016D5E7F4FCE0112
:1007300007960E945434BE016F5F7F4FCE0107962B
:1007400072DE182FCE0107960E948933CE010196E2
:100750000E948933112319F063E972E002C06BE94A
:1007600072E081EA9FE00E94E12ECE010D960E9488
:100770008933CE01439608CF60E070E0CE01499600
:100780000E941535811106C060EA72E081EA9FE09F
:100790000E94E12E41E050E06EE772E081E00E94AD
:1007A0009931CE0149960E9489336E960FB6F8941E
:1007B000DEBF0FBECDBFDF91CF911F910F91FF9094
:1007C000EF90DF90CF90BF90AF909F908F907F90F1
:1007D0006F900895CF93DF9300D000D0CDB7DEB7F0
:1007E00089E898E00E9471158823D9F06CE372E0E3
:1007F000CE0101960E94F433CE0101960E94410C75
:10080000CE0101960E94893388E299E00E94B310DC
:10081000811121C061E088E299E00E94721081E0BC
:100820001AC06EE472E0CE0101960E94F433CE014C
:1008300001960E94410CCE0101960E94893388E204
:1008400099E00E94B310882329F060E088E299E0E3
:100850000E94721080E026960FB6F894DEBF0FBE9D
:10086000CDBFDF91CF9108951F93CF93DF9300D039
:1008700000D0CDB7DEB7BC01CE0101960E94543442
:10088000BE016F5F7F4F83E898E073D3182FCE01CE
:1008900001960E9489331123A9F166EA72E0CE0124
:1008A00001960E94F433CE010196EBD7CE0101965A
:1008B0000E94893383E898E081D2BC01CE01019681
:1008C0000E94F433BE016F5F7F4F88E299E00E947F
:1008D0002511182FCE0101960E948933112379F03A
:1008E0006EEC72E0CE0101960E94F433CE010196C7
:1008F000C8D7CE0101960E94893381E011C06AEE0B
:1009000072E002C06EEF72E0CE0101960E94F433F5
:10091000CE010196B6D7CE0101960E94893380E0C0
:1009200026960FB6F894DEBF0FBECDBFDF91CF91F4
:100930001F9108951F93CF93DF93CDB7DEB76897CC
:100940000FB6F894DEBF0FBECDBF80E00E940A3222
:1009500088E299E00E94B310882309F494C089E8E2
:1009600098E00E940B15882309F47FC080915208FB
:100970006BE978E0882309F43FC0CE0107960E9416
:100980001D1468E279E0CE0143960E94B61261E23E
:1009900073E0CE010D960E94F433BE016D5E7F4F71
:1009A000CE010D960E94EC3460E673E00E94FD34A7
:1009B000BE01695F7F4F0E94EC34BC01CE010196FD
:1009C0000E945434CE0101964FDF182FCE010196BC
:1009D0000E948933CE010D960E948933CE01439641
:1009E0000E948933CE0107960E948933112309F4AE
:1009F0004AC01092520847C0CE0107960E941D14AB
:100A000068E279E0CE0143960E94B61263E473E097
:100A1000CE010D960E94F433BE016D5E7F4FCE0174
:100A20000D960E94EC3460E673E00E94FD34BE0136
:100A3000695F7F4F0E94EC34BC01CE0101960E9499
:100A40005434CE01019610DFCE0101960E94893305
:100A5000CE010D960E948933CE0143960E948933C0
:100A6000CE0107960E9489330EC062E673E0CE0184
:100A700001960E94F433CE01019603D7CE01019670
:100A80000E948933A7DE41E050E061EC71E080E034
:100A90000E94993168960FB6F894DEBF0FBECDBFA5
:100AA000DF91CF911F910895CF93DF9300D000D0B5
:100AB000CDB7DEB78BE499E082D58BE499E09093D3
:100AC00046098093450964E070E091D59093480908
:100AD0008093470984E090E00E94293690934A0968
:100AE0008093490945E459E065E070E08DE399E0C1
:100AF0000E943D0E42E350E066E070E085E399E03D
:100B00000E94EA0F20E031EE40E050E06EE370E139
:100B100081E399E00E94870F21E339E045E359E042
:100B20006DE379E088E299E00E9463106BE973E07D
:100B3000CE0101960E94F43346E350E0BE016F5FA0
:100B40007F4F86E199E00BD4CE0101960E94893354
:100B50006EE973E0CE0101960E94F43347E350E062
:100B6000BE016F5F7F4F8CEF98E03CD4CE010196C1
:100B70000E94893362EA73E0CE0101960E94F43349
:100B800044E050E0BE016F5F7F4F8FED98E0BED232
:100B9000CE0101960E9489336EEA73E0CE01019680
:100BA0000E94F43344E050E0BE016F5F7F4F82EC5F
:100BB00098E04FD3CE0101960E94893367EB73E032
:100BC000CE0101960E94F433BE016F5F7F4F8FE923
:100BD00098E0EAD2CE0101960E94893345E050E0C8
:100BE00066E072E08BE998E00E94F21320E031EEBB
:100BF00040E050E06BED70E189E998E00E94541C00
:100C000069E978E089E898E00E94C51529E838E0AC
:100C100040E550E060EC73E083E898E0C7D022EB59
:100C200031E048EE53E060E070E083E798E00E9436
:100C3000851B2DEB31E048E853E160E070E083E68E
:100C400098E00E94851B2AE934E048EB5BE060E015
:100C500070E083E598E00E94851B26960FB6F89415
:100C6000DEBF0FBECDBFDF91CF910895CF93DF934D
:100C70008CEA96E090938A088093890881E998E04D
:100C80000E9489338BE898E00E948933C9EDD3E054
:100C9000D093A008C0939F0885EA98E00E9489330A
:100CA000D093C308C093C20888EC98E00E948933AF
:100CB000D093E008C093DF0885EE98E00E94893366
:100CC000D093FD08C093FC0882E099E00E9489332C
:100CD000D0931709C09316098CE199E0DF91CF9169
:100CE0000C9489331F93CF93DF93CDB7DEB72C9746
:100CF0000FB6F894DEBF0FBECDBF84E00E940A326B
:100D0000789461E379E0CE0107960E943C0F6DEC88
:100D100073E0CE0101960E94F433BE016F5F7F4FF6
:100D2000CE0107960E945835182FCE0101960E94D9
:100D30008933112331F188E299E00E946E10892BEA
:100D400081F48DE399E0C6D764E670E085E399E02D
:100D50000E94D00F85E399E00E949C0F61E070E053
:100D600009C08DE399E0EAD785E399E00E94B70FC7
:100D700060E070E088E299E00E94B61081E0809324
:100D8000520841E050E062E776E084E00E94993149
:100D9000CE0107960E9489332C960FB6F894DEBFD9
:100DA0000FBECDBFDF91CF911F910895FC017383DA
:100DB00062835583448331832083089585E599E0D8
:100DC0000895EF92FF920F931F93CF93DF93CDB7C8
:100DD000DEB768970FB6F894DEBF0FBECDBF8B01AC
:100DE0006BED73E0CE0143960E94F43363EE73E043
:100DF000CE010D960E94F433B801CE0107960E94F1
:100E0000F433BE01635F7F4FCE0107960E94C83561
:100E10007C01BE016D5E7F4FCE0107960E94C835F2
:100E20004F89588D480F591F9701BE01695F7F4F49
:100E3000CE0101960E94CB35BE016F5F7F4FCE0180
:100E400007960E945C34CE0101960E948933F80116
:100E500001900020E9F7AF0141505109401B510BAF
:100E600020E030E0B801CE0107960E946635CE0141
:100E700007960E948933CE010D960E948933CE01D8
:100E800043960E94893381E068960FB6F894DEBFDE
:100E90000FBECDBFDF91CF911F910F91FF90EF90CB
:100EA0000895EF92FF920F931F93CF93DF93CDB7E7
:100EB000DEB764970FB6F894DEBF0FBECDBF7B01DF
:100EC0008A01FC0162817381CE0101962B8B3C8BE0
:100ED0000E94F43369EE73E0CE0107960E94F4336A
:100EE000B701CE0107960E94EC346EEE73E00E94CB
:100EF000FD34BE016F5F7F4F0E94EC3460E074E010
:100F00000E94FD34BC01CE010D960E945434CE01E6
:100F100007960E948933CE0101960E948933E989A0
:100F2000FA8931962B89422F3C89532FE417F50714
:100F30000CF4AF0120E030E0B801CE010D960E9424
:100F4000663564E670E080E090E00E94A436CE0151
:100F50000D960E948933C80164960FB6F894DEBFDF
:100F60000FBECDBFDF91CF911F910F91FF90EF90FA
:100F70000895CF92DF92EF92FF920F931F93CF933A
:100F8000DF9300D000D0CDB7DEB78C016B01DC0160
:100F90008D919C91DC01ED91FC910280F381E02D1B
:100FA0001995882309F46BC0F80180819181DC01D7
:100FB000ED91FC91D80114964D915C911597129684
:100FC0006D917C9113970480F581E02D199588230C
:100FD00009F43DC0D801ED91FC910190F081E02D24
:100FE000E084F184B601CE0101960E94543424EFCE
:100FF00031E049E45BE0BE016F5F7F4FC80151DF24
:10100000BC01F80180819181F7011995CE0101960B
:101010000E948933D8018D919C91DC01ED91FC9166
:101020000284F385E02D44EF51E065E579E0199500
:10103000F80180819181DC01ED91FC910680F781BE
:10104000E02D199565E579E0C801BBDE26C065E0B5
:1010500074E0CE0101960E94F433CE01019611D4C2
:10106000CE0101960E948933F80180819181DC01D3
:10107000ED91FC910190F081E02D19950DC068E291
:1010800074E0CE0101960E94F433CE010196F9D3AB
:10109000CE0101960E94893380E026960FB6F8941F
:1010A000DEBF0FBECDBFDF91CF911F910F91FF909B
:1010B000EF90DF90CF9008950F931F93CF93DF931E
:1010C000EC018C01045F1F4F40E050E064E0C80178
:1010D0000E946A178D899E89019719F468EE73E062
:1010E00002C060ED77E0882777FD8095982F0E94F9
:1010F000A436C8010E9493176A837B838C839D83E7
:1011000081E0DF91CF911F910F910895EF92FF92AF
:101110000F931F93CF93DF93EC017B0189ED93E055
:10112000998388838E010A5F1F4F64E074E0C801D1
:101130000E94F43384E594E099838883B701C80161
:101140000E943F341A821B821C821D82DF91CF9144
:101150001F910F91FF90EF9008950F931F93CF93DE
:10116000DF93EC018C01045F1F4F63E0C8010E9414
:101170002329C8010E94D2290E941E3A20E836EE97
:1011800045EC57E40E94833920E030E04EE354E41C
:101190000E94D23A6A837B838C839D8381E0DF91B6
:1011A000CF911F910F910895EF92FF920F931F938C
:1011B000CF93DF93EC017B0189ED93E099838883E2
:1011C0008E010A5F1F4F64E074E0C8010E94F4338F
:1011D0008AE594E099838883CE010C960E94632867
:1011E000B701C8010E943F341A821B821C821D82F3
:1011F000DF91CF911F910F91FF90EF9008950F9382
:101200001F93CF93DF93EC018C01045F1F4F40E0ED
:1012100050E064E0C8010E946A178D899E89019799
:1012200019F468EE73E002C060ED77E0882777FD7F
:101230008095982F0E94A436C8010E9488176A835F
:101240007B838C839D8381E0DF91CF911F910F91F0
:101250000895EF92FF920F931F93CF93DF93EC01CA
:101260007B0189ED93E0998388838E010A5F1F4F8C
:1012700064E074E0C8010E94F43380E694E099834E
:101280008883B701C8010E943F341A821B821C82E6
:101290001D82DF91CF911F910F91FF90EF900895E4
:1012A000CF92DF92EF92FF92CF93DF93EC01888988
:1012B0000E944837BC01882777FD8095982F0E94AF
:1012C0001E3A20E030E040E85AE30E94D23A20E0A3
:1012D00030E040EA50E40E94D23A6B017C019B016D
:1012E000AC0160E070E080EA90E40E941A39A70146
:1012F00096010E9483392C853D854E855F850E942D
:1013000083399B01AC0160E070E080E89FE30E94BC
:101310001A396B017C0120E030E0A9010E947F397D
:1013200087FF03C0C12CD12C760120E030E847E7CD
:1013300054E4C701B6010E94D23A20E030E040E216
:1013400051E40E941B396A837B838C839D8381E0F7
:10135000DF91CF91FF90EF90DF90CF900895AF9203
:10136000BF92CF92DF92EF92FF920F931F93CF9392
:10137000DF93EC016B015A0189ED93E09983888337
:101380007E0186E0E80EF11C64E074E0C7010E9473
:10139000F43386E694E09983888300E010E020EF40
:1013A00031E40C871D872E873F87B601C7010E9455
:1013B0003F34B98AA88A1A821B821C821D8246E6A3
:1013C00056E666E370E44C875D876E877F87DF9122
:1013D000CF911F910F91FF90EF90DF90CF90BF9032
:1013E000AF900895CF92DF92EF92FF920F931F93E9
:1013F000CF93DF93EC017B016A0189ED93E0998340
:1014000088838E010A5F1F4F64E074E0C8010E9468
:10141000F4338CE694E0998388838CE0E2E2F2E096
:10142000DE011E9601900D928A95E1F7B701C80181
:101430000E943F34DD86CC861A821B821C821D826C
:10144000DF91CF911F910F91FF90EF90DF90CF90A0
:101450000895CF92DF92EF92FF921F93CF93DF9385
:10146000162FC5E0D0E0C12CD12C7601812F0E942F
:101470004837BC01882777FD8095982F0E941E3A37
:101480009B01AC01C701B6010E941B396B017C01B5
:1014900062E370E080E090E00E94A436219731F78B
:1014A00020E030E040EA50E4C701B6010E948339F1
:1014B00020E030E040EA50E40E94D23A20E030E000
:1014C00040E85AE30E94D23ADF91CF911F91FF90FA
:1014D000EF90DF90CF900895CF92DF92EF92FF923E
:1014E000CF93DF93CB01BA01E90120E030E040EA7D
:1014F00050E40E9483396B017C012DED34E246E01B
:101500005FE30E94CE3A87FF20C02C813D814E814F
:101510005F81C701B6010E941A39288539854A853D
:101520005B850E948339288139814A815B810E94D1
:101530001B399B01AC0160E070E080E291E40E9405
:10154000353B0E94EB39CB0102C08FEF9FEFDF915B
:10155000CF91FF90EF90DF90CF900895CF93DF93DE
:10156000EC016C857D8575DFAB01BC019E01225FBE
:101570003F4FCE01B1DF8F3F2FEF920759F0BC01F3
:10158000882777FD8095982F0E941E3A6A837B8377
:101590008C839D8381E0DF91CF910895FC0162816E
:1015A0007381848195810895CF93DF93EC016A5F05
:1015B0007F4F0E945434CE01DF91CF910895CF9395
:1015C000DF93EC011F821E82198618861D821C8201
:1015D00084E190E00E9429369983888384E190E039
:1015E0000E9429369B838A83DF91CF910895FC0165
:1015F0002085318584819581880F991FA081B181D3
:10160000A80FB91F2D933C9384819581880F991F52
:10161000A281B381A80FB91F6D937C9380859185BA
:10162000860F971F91878087848195819C012F5F0A
:101630003F4F358324830895DF92EF92FF920F93FB
:101640001F93CF93DF938C01EB017A01CC0FDD1F49
:10165000D12C2D2D30E0D8011296ED91FC911397ED
:10166000EC0FFD1F808191812817390794F4A701A1
:10167000420F531FD801ED91FC91EC0FFD1F8081AB
:101680009181FA016081820F931F0E942741D394B8
:10169000E0CFDF91CF911F910F91FF90EF90DF90FE
:1016A0000895BF92CF92DF92EF92FF920F931F9314
:1016B000CF93DF938C01EB016A01CC0FDD1FB12CBE
:1016C0002B2D30E0D8011296ED91FC911397EC0F81
:1016D000FD1F808191812817390794F47601E20E6D
:1016E000F31ED801ED91FC91EC0FFD1F80819181DB
:1016F000820F931F0E941F41F7018083B394E0CFB4
:10170000DF91CF911F910F91FF90EF90DF90CF90DD
:10171000BF900895DF92EF92FF920F931F93CF93A4
:10172000DF9300D000D0CDB7DEB77C0164E074E079
:101730000E94F43300913D0D10913E0D86E0D82EAD
:1017400080913F0D9091400DD89E9001D99E300D13
:10175000112480913D0D90913E0D820F931F08172B
:101760001907B1F0B801CE0101960E94543463E02C
:1017700074E0CE0101960E94FD34BC01C7010E94B5
:10178000D334CE0101960E9489330A5F1F4FD8CF10
:10179000C70126960FB6F894DEBF0FBECDBFDF910E
:1017A000CF911F910F91FF90EF90DF900895CF920E
:1017B000DF92EF92FF920F931F93CF93DF93EC0191
:1017C000EE80FF808C819D81E816F9060CF04EC0FA
:1017D000FD82EC821E141F0434F581E4E81685E1D5
:1017E000F80640F426E02E9DC0012F9D900D112497
:1017F000029602C08FEF9FEF0E942936FC01E19212
:10180000F1928F01F1E0EF1AF108680164E074E0F1
:10181000C8010E94F4330A5F1F4F81E0E81AF10803
:10182000A8F7760102C0E12CF12C888199810097FC
:10183000D9F0FC0132972081318146E0429F80013E
:10184000439F100D1124080F191FC80128813981E9
:10185000065011098217930721F0C8010E948933AD
:10186000F4CF02970E942A36E882F9821B821A82FC
:10187000DF91CF911F910F91FF90EF90DF90CF906C
:1018800008954F925F926F927F928F929F92AF9244
:10189000BF92CF92DF92EF92FF920F931F93CF935D
:1018A000DF93CDB7DEB7A4970FB6F894DEBF0FBEB7
:1018B000CDBF4C010E9475362B013C0120E83EEE65
:1018C00046E350E00E94AD3C69017A0144EC960188
:1018D00042035001439FB00C1124C301B20120E622
:1018E0003AEE40E050E00E94AD3CA20EB31E80EF05
:1018F00091EF8C9D80018D9D100D9C9D100D1124EC
:10190000C301B20128EE33E040E050E00E94AD3C5C
:10191000020F131F44EC95014203C001439F900D39
:101920001124080F191F80E891E18C9DB0018D9D55
:10193000700D9C9D700D1124640D751D20EA35E11C
:10194000A29EC001A39E900DB29E900D1124680F1F
:10195000791F28E13CEF029FC001039F900D129F69
:10196000900D1124680F791F4AE0CE0101960E9464
:101970007D344AE0B801CE0107960E947D344AE0EA
:10198000B501CE010D960E947D344AE0B601CE012C
:1019900049960E947D34BE01675E7F4FCE0143961B
:1019A0000E9454346CEF76E0CE0143960E94FD34E1
:1019B000BE01635F7F4F0E94EC346CEF76E00E94C3
:1019C000FD34BE01695F7F4F0E94EC346CEF76E01E
:1019D0000E94FD34BE016F5F7F4F0E94EC34BC015A
:1019E000CE014F960E945434CE0143960E94893313
:1019F000CE0149960E948933CE010D960E9489330B
:101A0000CE0107960E948933CE0101960E94893348
:101A100080913F0D9091400D459718F08DE39DE02A
:101A2000C6DEBE01615E7F4FCE0107960E94543430
:101A30006EE674E0CE0107960E94FD34B4010E9468
:101A4000EC34BC01CE0101960E945434C0903F0D8D
:101A5000D090400D8091410D9091420DC816D9064D
:101A600009F06DC076018FEFE81AF80AF092420D86
:101A7000E092410DE1E4EE16E5E1FE0640F426E0D9
:101A80002E9DC0012F9D900D1124029602C08FEF54
:101A90009FEF0E942936FC01E192F1928F017F01B4
:101AA0002FEFC216D20659F064E074E0C8010E941C
:101AB000F4330A5F1F4FF1E0CF1AD108F1CF00E0F5
:101AC00010E0C12CD12C80913F0D9091400D609180
:101AD0003D0D70913E0DC816D9066CF4600F711F54
:101AE000C701800F911F0E943F343FEFC31AD30AF2
:101AF0000A5F1F4FE8CF61157105E9F0FB013297CE
:101B00008081918126E0289F8001299F100D11245A
:101B1000060F171FC80120913D0D30913E0D065054
:101B200011098217930721F0C8010E948933F2CF6F
:101B300002970E942A36F0923E0DE0923D0D2091D0
:101B40003F0D3091400D46E0429FC001439F900DF4
:101B5000112420913D0D30913E0DBE016F5F7F4FEE
:101B6000820F931F0E943F3480913F0D9091400D52
:101B700001969093400D80933F0DCE0101960E94F7
:101B80008933CE0107960E948933CE014F960E9479
:101B90008933A4960FB6F894DEBF0FBECDBFDF9198
:101BA000CF911F910F91FF90EF90DF90CF90BF905A
:101BB000AF909F908F907F906F905F904F9008951F
:101BC00010923E0D10923D0D1092400D10923F0D5F
:101BD0001092420D1092410D1092440D1092430D3F
:101BE0000895CF93DF9380913D0D90913E0D009726
:101BF000E1F0FC0132972081318146E0429FE00113
:101C0000439FD00D1124C80FD91FCE0120913D0D47
:101C100030913E0D26978217930721F0CE010E9446
:101C20008933F3CF02970E942A3610923E0D10920C
:101C30003D0D1092400D10923F0D1092420D1092EA
:101C4000410D1092440D1092430DDF91CF910895F4
:101C5000CF93DF93FC01C681D7814C815D816A817E
:101C60007B81888199811DDDEC81FD81608171819D
:101C700082819381DF91CF910895CF93DF93EC011F
:101C8000862F27EF34E0398328836C837D835F833D
:101C90004E8361E00E94833861E08C810E94BC38F1
:101CA0001B821A82DF91CF910895CF93DF93EC01CD
:101CB00060E08C810E94BC386CE271E080E090E0D2
:101CC0000E94A43661E08C810E94BC3881E0DF91E3
:101CD000CF9108950F931F93CF93DF9300D000D03F
:101CE000CDB7DEB78C01FC0182819381892B69F429
:101CF000C801DBDF882331F081E090E0F8019383B5
:101D0000828311C062E774E002C06AE974E0CE0128
:101D100001960E94F433CE010196B3DDCE01019607
:101D20000E94893380E026960FB6F894DEBF0FBE7E
:101D3000CDBFDF91CF911F910F9108950F931F9306
:101D4000CF93DF9300D000D0CDB7DEB78C01FC017C
:101D500082819381019761F4C801A7DF882329F06C
:101D6000F8011382128281E011C062E774E002C0C0
:101D700066EC74E0CE0101960E94F433CE01019628
:101D800080DDCE0101960E94893380E026960FB651
:101D9000F894DEBF0FBECDBFDF91CF911F910F91A1
:101DA0000895EF92FF920F931F93CF93DF9300D08C
:101DB0001F92CDB7DEB78C0184E090E049835A834F
:101DC0006B837C830E9429367C0149815A816B8117
:101DD0007C81FC014083518362837383F8016281BB
:101DE0007381AC018081918127DCE114F10469F0F9
:101DF000C7010F900F900F900F90DF91CF911F911F
:101E00000F91FF90EF900C942A360F900F900F9047
:101E10000F90DF91CF911F910F91FF90EF90089558
:101E20000F931F93CF93DF938C01FC01C681D78161
:101E30004C815D816A817B818881998132DCEC8172
:101E4000FD8140815181628173814F5F5F4F6F4F90
:101E50007F4FF80186819781DF91CF911F910F917C
:101E6000A0CF40E050E0BA01FC018681978199CF74
:101E7000FC01828193810895CF93DF93EC01FB01F4
:101E8000628173810E94D530CE01DF91CF91089598
:101E90000F931F93CF93DF93CDB7DEB72C970FB679
:101EA000F894DEBF0FBECDBF8C01FC01828193810F
:101EB0000E94D32E63EE76E0CE0101960E94F433A9
:101EC000F80162817381CE0107960E94D530BE0170
:101ED0006F5F7F4FCE0107960E94C8358C01CE01FF
:101EE00007960E948933CE0101960E94893381E0D2
:101EF0000F3F1F4F09F480E02C960FB6F894DEBF19
:101F00000FBECDBFDF91CF911F910F910895FC01BE
:101F1000CB01BA01A90121E035E03183208393830D
:101F2000828326E00C94322CFC01848195810895F3
:101F3000FC01828193810895CF93DF93EC018A8124
:101F40009B81892B51F46C817D818E810E946D373C
:101F500081E090E09B838A8307C065E075E081EAB9
:101F60009FE00E94EC2E80E0DF91CF910895CF9307
:101F7000DF93EC018A819B81019741F460E08E81BF
:101F80000E94BC381B821A8281E007C061E375E0C1
:101F900081EA9FE00E94EC2E80E0DF91CF910895CE
:101FA000FC01848195818536910550F475836483A5
:101FB00082819381019761F486810E946D3708C008
:101FC0006EE575E081EA9FE00E94EC2E80E00895C6
:101FD00081E00895CF93DF93EC01862F2CE835E064
:101FE000398328836E837F835D834C8361E00E9405
:101FF000833860E08E810E94BC381B821A82DF9198
:10200000CF9108959C01FC01E653FF4F808191819F
:10201000680F791F693C710530F471836083029603
:10202000820F931F089580E090E00895CF93DF938F
:10203000FC01808191819C012350310922303105BE
:1020400028F4628173818481958129C0873091054C
:102050003CF062817381848195810E94EB391FC0BD
:1020600001970297A0F4C281D381209781F0BE012D
:1020700086E995E00E949640892B69F04AE050E09D
:1020800060E070E0CE01DF91CF910C941F3F60E0E3
:1020900070E0CB0104C061E070E080E090E0DF918F
:1020A000CF9108956115710559F0FB010190002051
:1020B000E9F7AF0141505109461B570B0C945127CA
:1020C00080E090E00895FC01718360835383428334
:1020D000358324831782168210860895FC01868139
:1020E00097810895EF92FF920F931F93CF93DF9301
:1020F00000D000D0CDB7DEB78C01DC0118968C91F2
:102100001897861719F118966C9318971496ED91F5
:10211000FC9115970190F081E02DE280F380662319
:1021200019F060E872E002C067E872E0CE01019643
:102130000E94F433BE016F5F7F4FF8018481958167
:10214000F7011995CE0101960E94893326960FB6A4
:10215000F894DEBF0FBECDBFDF91CF911F910F91DD
:10216000FF90EF900895FC0180850895EF92FF9213
:102170000F931F93CF93DF9300D000D0CDB7DEB77E
:102180008C016F3F8FEF780769F5D80117967C9324
:102190006E9316971496ED91FC9115970190F0812E
:1021A000E02DE280F3806BE975E0CE0101960E949C
:1021B000F433BE016F5F7F4FF80184819581F70191
:1021C0001995CE0101960E948933D8011496ED919C
:1021D000FC9115970190F081E02DE280F38062EA96
:1021E00075E013C06930710510F5D80117967C931E
:1021F0006E9316971496ED91FC9115970190F081CE
:10220000E02DE280F38066557A4FCE0101960E9460
:10221000F433BE016F5F7F4FF80184819581F70130
:102220001995CE0101960E94893381E001C080E0BA
:1022300026960FB6F894DEBF0FBECDBFDF91CF91CB
:102240001F910F91FF90EF900895CF92DF92EF9240
:10225000FF920F931F93CF93DF93CDB7DEB7CC5C84
:10226000D1090FB6F894DEBF0FBECDBF8C018FE34E
:1022700096E09A838983C553DF4F19821882CB5C1D
:10228000D040DB016D917C91CE0101960BDF4AE0DD
:10229000BC01CE0101960E942D277C01FC018081AA
:1022A0009181892B09F4A7C060EB75E0C7010E94FA
:1022B000B427009769F0DC0114962D913C91159795
:1022C0002630310529F416968D919C91179702C0FE
:1022D0008DE99FE065EB75E00E94B427009719F047
:1022E0000496A4DE02C060E070E06115710599F00B
:1022F0006130710519F5F80180819181B9DD892B73
:1023000001F5D8018D919C91DC01ED91FC9101903A
:10231000F081E02D0FC0F80180819181A9DD019746
:1023200081F4D8018D919C91DC01ED91FC910280AA
:10233000F381E02D1995811104C05DC06BEB75E050
:1023400056C06BEE75E0C7010E94B427009749F0B4
:10235000FC01248135812630310519F4868197816D
:1023600002C08DE99FE065EB75E00E94B4270097FD
:1023700019F004965BDE02C060E070E06115710543
:10238000D9F06130710589F5D80112968D919C9133
:102390001397DC01ED91FC910084F185E02D1995F6
:1023A000892B59F5F80182819381DC01ED91FC9133
:1023B0000190F081E02D15C0F80182819381DC014C
:1023C000ED91FC910084F185E02D19950197A9F418
:1023D000F80182819381DC01ED91FC910280F3810F
:1023E000E02D1995811109C006C062EF75E081EA00
:1023F0009FE00E94EC2E80E075C06BEE75E0C70197
:102400000E94B427009749F0FC01248135812630D1
:10241000310519F48681978102C08DE99FE064E25D
:1024200076E00E94B427009721F00496FFDD6B014F
:1024300002C0C12CD12CD80112968D919C9113977A
:10244000DC01ED91FC910680F781E02D1995C8160D
:10245000D90651F460E376E0C7010E94B4270097E3
:10246000A1F560E070E033C0D8011296ED91FC91C7
:1024700013970190F081E02DC480D5806BEE75E05C
:10248000C7010E94B427009749F0FC0124813581DF
:102490002630310519F48681978102C08DE99FE0CD
:1024A00064E276E00E94B427009719F00496BEDD3E
:1024B00002C060E070E0D80112968D919C91139754
:1024C000F60119958111C6CF96CF0496AFDDD801DC
:1024D00016968D919C9117976817790711F0C8018E
:1024E00045DE81E0C453DF4F0FB6F894DEBF0FBE68
:1024F000CDBFDF91CF911F910F91FF90EF90DF90B3
:10250000CF900895CF92DF92EF92FF920F931F9397
:10251000CF93DF93EC016B010A811B81E880F98086
:10252000B801C7010E94B427FC01009741F4C7011C
:102530000E946226FC01009779F01383028384E0F5
:1025400090E095838483A601662757FD6095762FDA
:102550004683578360877187CE01DF91CF911F91AA
:102560000F91FF90EF90DF90CF9008952F923F92C0
:102570004F925F926F927F928F929F92AF92BF9293
:10258000CF92DF92EF92FF920F931F93CF93DF933F
:10259000CDB7DEB7CA5DD1090FB6F894DEBF0FBE66
:1025A000CDBF4C015B018FE396E09A838983C553CD
:1025B000DF4F19821882CB5CD040CE0101960E9479
:1025C00019277C01DC018D919C910097E1F00E941C
:1025D00019278C016BEE75E0C7010E94B427FC013E
:1025E000009751F4C7010E946226FC01009781F018
:1025F0002BEE35E03383228326E030E035832483DD
:102600000683178305C04DE9C42E4FE0D42E01C0C8
:102610006801F701808191810097E1F00E941927FC
:102620008C0160EB75E0C7010E94B427FC010097A4
:1026300051F4C7010E946226FC01009781F020EB53
:1026400035E03383228326E030E03583248306831C
:10265000178305C03DE9632E3FE0732E01C03801AA
:10266000D50112968D919C911397DC01ED91FC910F
:102670000084F185E02D19958E0103531F4FF80159
:10268000D182C08225EB422E25E0522E5382428217
:10269000BC01C80137DFD50112968D919C9113972B
:1026A000DC01ED91FC910680F781E02D1995F80190
:1026B000D182C08224E236E033832283BC01C80188
:1026C00021DFD5018D919C91D3DBF801718260826D
:1026D00053824282BC01C80115DFD5018D919C91C6
:1026E000DC01ED91FC910480F581E02D19951B0131
:1026F0002C0165E376E0C3010E94B427009751F4F2
:10270000C3010E946226009789F025E336E0FC01B0
:102710003383228324E030E0DC0115963C932E9332
:102720001497FC012682378240865186D501169681
:102730006D917C911797F801F182E08280E396E039
:1027400093838283C801DEDED80113961C921E9209
:10275000129787E298E011969C938E9385E49DE012
:1027600015969C938E93149787EC90E017969C9304
:102770008E93169719961C921E9218971092450DDB
:10278000C952DF4F19830883C75DD040C752DF4F5E
:1027900019821882C95DD040BE0169527F4FC701BE
:1027A0000E94D22765E47DE0C4010E94F433C40195
:1027B000C652DF4F0FB6F894DEBF0FBECDBFDF911C
:1027C000CF911F910F91FF90EF90DF90CF90BF902E
:1027D000AF909F908F907F906F905F904F903F90C1
:1027E0002F900895FC017183608353834283089581
:1027F0000F931F93CF93DF938C01C0E0D0E0F801DB
:1028000082819381C817D9079CF4CE01880F991F44
:10281000D801ED91FC91E80FF91F80819181DC01D5
:10282000ED91FC910190F081E02D19952196E7CF73
:10283000DF91CF911F910F9108952F923F924F9268
:102840005F926F927F928F929F92AF92BF92CF9240
:10285000DF92EF92FF920F931F93CF93DF93CDB749
:10286000DEB7CC5DD1090FB6F894DEBF0FBECDBF89
:102870004C01C552DF4F79836883CB5DD0408FE335
:1028800096E09A838983C553DF4F19821882CB5C07
:10289000D040CE0101960E9419276C01A12CB12CC9
:1028A0008E0103531F4FC552DF4FE881F981CB5D85
:1028B000D04082819381A816B9060CF05EC0C55243
:1028C000DF4FA881B981CB5DD040ED91FC917501BE
:1028D000EE0CFF1CEE0DFF1D808191810E94CE0A3F
:1028E0001B012C01C552DF4FA881B981CB5DD040BF
:1028F000ED91FC91EE0DFF1D60817181C8010E9478
:10290000D40AF80160807180B301C6010E94B42727
:102910007C01009711F5C6010E9462267C01009798
:1029200029F1D6018D919C916114710469F0F30134
:1029300001900020E9F7AF014150510946195709AC
:10294000B3010E94512702C080E090E0D7011396A6
:102950009C938E931297892B49F089E090E0F701C0
:10296000958384832682378240865186C8010E94DF
:102970008933BFEFAB1ABB0A96CFD80113961C92CE
:102980001E92129787E298E011969C938E938DE0A9
:102990009EE015969C938E93149787EC90E0179683
:1029A0009C938E93169719961C921E9218971092CC
:1029B0000D0EC952DF4F19830883C75DD040C7523F
:1029C000DF4F19821882C95DD040BE0169527F4F26
:1029D000C6010E94D2276DE07EE0C4010E94F4335C
:1029E000C401C452DF4F0FB6F894DEBF0FBECDBF97
:1029F000DF91CF911F910F91FF90EF90DF90CF90DB
:102A0000BF90AF909F908F907F906F905F904F900E
:102A10003F902F90089581E00895EF92FF920F93D9
:102A20001F93CF93DF9300D000D0CDB7DEB78C01DA
:102A30007A01CE0101960E94F4339701442737FDB5
:102A40004095542FBE016F5F7F4FF80186859785B3
:102A50000E94A723182FCE0101960E948933812F4F
:102A600026960FB6F894DEBF0FBECDBFDF91CF9193
:102A70001F910F91FF90EF900895FC018685978537
:102A80000C94A324FB0101900020E9F73197E61B89
:102A9000F70B9F0140E050E0FC01868597850C9480
:102AA0007024EF92FF920F931F939A01442737FDF2
:102AB0004095542F18EEE12E13E0F12E00E010E0C7
:102AC000FC01868597850E94F01D21E0672B682B0D
:102AD000692B09F420E0822F1F910F91FF90EF9056
:102AE00008950F931F93CF93DF93CDB7DEB72C9745
:102AF0000FB6F894DEBF0FBECDBF8C01FC018681FE
:102B00009781892B39F1868597850E94EB21B80141
:102B1000685F7F4FCE0107960E945434B8016E5F04
:102B20007F4FCE0101960E945434AE01495F5F4F42
:102B3000BE016F5F7F4FF801868597850E94A522B1
:102B4000182FCE0101960E948933CE0107960E946C
:102B500089330FC061E476E0CE0101960E94F43320
:102B6000CE0101960E94410CCE0101960E9489334C
:102B700010E0812F2C960FB6F894DEBF0FBECDBFAC
:102B8000DF91CF911F910F9108950F931F93CF93D2
:102B9000DF93EC018B012CEA36E0FC0121933193A9
:102BA000CF0164E074E00E94F43364E074E0CE018D
:102BB00008960E94F4331F870E87DF91CF911F91F3
:102BC0000F910895AF92BF92CF92DF92EF92FF9252
:102BD0000F931F93CF93DF93CDB7DEB72C970FB62C
:102BE000F894DEBF0FBECDBF8C015A01FB0184817A
:102BF0009581892B99F17801F2E0EF0EF11CC70164
:102C00000E943F34680188E0C80ED11CB501C6019E
:102C10000E943F34F801868597850E94EB21B6011A
:102C2000CE0101960E945434B701CE0107960E944E
:102C30005434AE014F5F5F4FBE01695F7F4FF801B3
:102C4000868597850E94A522182FCE0107960E949F
:102C50008933CE0101960E9489330FC06CE776E07C
:102C6000CE0101960E94F433CE0101960E94410CE0
:102C7000CE0101960E94893310E0812F2C960FB669
:102C8000F894DEBF0FBECDBFDF91CF911F910F91A2
:102C9000FF90EF90DF90CF90BF90AF900895CF93CB
:102CA000DF93EC010E947536685B7B4081099109D6
:102CB0006D877E878F87988BDF91CF9108952F92B4
:102CC0003F924F925F926F927F928F929F92AF92BC
:102CD000BF92CF92DF92EF92FF920F931F93CF9309
:102CE000DF931F92CDB7DEB71C010E947536F1014C
:102CF00085849684A784B0882B013C014818590824
:102D00006A087B08218532852130310539F447EE88
:102D1000842E43E0942EA12CB12C06C03FEC832ED0
:102D200037E0932EA12CB12C481459046A047B047B
:102D300008F4BCC0F101658776878787908B80E0B7
:102D400090E0A0ECBFE780839183A283B383848368
:102D50009583A683B78360E080850E94BC3861E0DC
:102D6000F10180850E948338F10181859285019768
:102D700039F462E170E080E090E00E94A43604C083
:102D800080E293E00E94DB3660E0F10180850E94E2
:102D9000833861E0F10180850E94BC382DEF922ECE
:102DA0000E948136762EF92DF1708F2EAF2EBB2426
:102DB000A7FCB0940E94813667196B3518F081E04A
:102DC00090E02FC0F101808569830E94F13869810C
:102DD0008A159B0579F397FC07C0882029F0000F1E
:102DE000111F6F3108F00160FFE19F1639F08FE38A
:102DF000981205C0780100E010E001C068019394CA
:102E0000E0E59E12CDCF6D2D7727AF2CB12C8E2D06
:102E10008C0D860F8F0D90E08017910731F082E0C6
:102E200090E0F1019487838741C0F101818592850B
:102E3000019779F480E090E00E941C3AF1016483EC
:102E4000758386839783B50180E090E00E941C3AE9
:102E500025C0B60180E090E00E941C3A2DEC3CECCD
:102E60004CEC5DE30E94D23AF10164837583868362
:102E70009783C70197FF05C09F77EE24FF24E81AC8
:102E8000F90AB701882777FD8095982F0E941E3A8E
:102E90002DEC3CEC4CEC5DE30E94D23AF1016083F6
:102EA000718382839383F101148613860F90DF91DF
:102EB000CF911F910F91FF90EF90DF90CF90BF9037
:102EC000AF909F908F907F906F905F904F903F90CA
:102ED0002F9008950F931F93CF93DF93EC018A01F6
:102EE00068875A874987DBDE012B69F482E090E02E
:102EF0009A878987CE01E3DE8B859C858130910599
:102F000011F49A878987DF91CF911F910F910895CE
:102F1000CF93DF93EC01D3DE6C817D818E819F8125
:102F2000DF91CF910895CF93DF93EC01C8DE6881E4
:102F300079818A819B81DF91CF9108951092420F10
:102F400081E08093400F10923F0F61E084E10E9486
:102F5000BC3861E085E10E94BC38E9EBF0E080819B
:102F60008E7F808380818D7F808388E48093B8000A
:102F700085E48093BC000895413208F043C09091ED
:102F8000420F9111FCCF91E09093420F2093400F9C
:102F90002FEF2093D50E10921A0F240F2093190FA4
:102FA0009093410F9091410F880F892B8093410F8F
:102FB00080913F0F813061F410923F0F8091410F5B
:102FC0008093BB008091BC0083FDF8CF85EC01C0ED
:102FD00085EE8093BC008091420F8130E1F38091B7
:102FE0001A0F841710F440911A0F2BE13FE0FB01F8
:102FF000D9018A2F821B841718F48D918193F9CF00
:10300000842F089580E008950F93413208F04AC05C
:103010009091420F9111FCCF92E09093420F009358
:10302000400F9FEF9093D50E10921A0F4093190FF7
:10303000FB016BE17FE0DB019A2F961B941718F4DC
:1030400091919D93F9CF1092410F9091410F880F6C
:10305000892B8093410F80913F0F813061F4109252
:103060003F0F8091410F8093BB008091BC0083FD96
:10307000F8CF85EC01C085EE8093BC00222321F0BF
:103080008091420F8230E1F38091D50E8F3F61F045
:103090008091D50E803251F08091D50E803341F46D
:1030A00083E007C081E005C080E003C082E001C08A
:1030B00084E00F910895613298F42091420F2430FA
:1030C00089F46093F70EFC0189EF9EE0DC012A2F62
:1030D000281B261718F421912D93F9CF80E008952D
:1030E00081E0089582E0089585ED8093BC00809191
:1030F000BC0084FDFCCF1092420F089585EC8093B4
:10310000BC001092420F08951F920F920FB60F92BB
:1031100011240BB60F922F933F934F935F936F93AE
:103120007F938F939F93AF93BF93EF93FF93809180
:10313000B900887F803609F49DC070F5883209F4A3
:103140005CC090F4803109F455C038F4882309F448
:10315000F3C0883009F44EC0F2C0883109F44DC084
:10316000803209F45EC0EBC0803409F469C050F4C9
:10317000803309F456C0883309F0E1C08093D50E3E
:10318000BDDFDDC0803509F44FC0883509F45DC06E
:10319000883409F0D4C0D2C0883909F4C3C0A8F477
:1031A000883709F467C038F4883609F463C080377B
:1031B00009F460C0C4C0883809F4B4C0803909F487
:1031C0005FC0803809F0BBC05BC0803B09F482C09F
:1031D00038F4803A09F466C0883A09F47BC0AFC07D
:1031E000803C09F4A3C0883C09F4A0C0883B09F4E2
:1031F00086C0A5C08091410F10C090911A0F809198
:10320000190F981770F5E0911A0F81E08E0F8093D7
:103210001A0FF0E0E55EF04F80818093BB0085ECF3
:1032200082C08093D50E8AC0E0911A0F81E08E0F84
:1032300080931A0F8091BB00F0E0E55EF04F808331
:1032400090911A0F8091190F6AC0E0911A0F81E0D6
:103250008E0F80931A0F8091BB00F0E0E55EF04F77
:1032600080838091400F811169C081E080933F0F7E
:1032700084EA5DC083E08093420F1092D60ECFCFD8
:103280008091D60E803208F04DC0E091D60E81E0DC
:103290008E0F8093D60E8091BB00F0E0E952F14F83
:1032A0008083BDCF2BDF8091D60E803230F4E09149
:1032B000D60EF0E0E952F14F10826091D60E70E028
:1032C000E0913B0FF0913C0F87ED9EE01995109235
:1032D000D60E35C084E08093420F1092F80E109203
:1032E000F70EE0913D0FF0913E0F19958091F70E8A
:1032F000811105C081E08093F70E1092F90EE091E4
:10330000F80E81E08E0F8093F80EF0E0E750F14F59
:1033100080818093BB009091F80E8091F70E9817F2
:1033200008F47DCF85E88093BC0009C085EC8093CC
:10333000BC001092420F03C01092D50ED5DEFF9153
:10334000EF91BF91AF919F918F917F916F915F911D
:103350004F913F912F910F900BBE0F900FBE0F908A
:103360001F9018958091730F90E02091740F821B2D
:10337000910908952091740F8091730F281750F4CC
:10338000E22FF0E0EB58F04F808190E02F5F209328
:10339000740F08958FEF9FEF0895E091740F80915F
:1033A000730FE81730F4F0E0EB58F04F808190E0B5
:1033B00008958FEF9FEF08950895CF92DF92EF92D7
:1033C000FF920F931F93CF93DF937C01CB018A0170
:1033D00020914F0F222389F0EB016B01C40ED51E03
:1033E000CC15DD0561F06991D701ED91FC9101905B
:1033F000F081E02DC7011995F3CF642F5CDEC80181
:10340000DF91CF911F910F91FF90EF90DF90CF90C0
:103410000895CF93DF931F92CDB7DEB769832091D4
:103420004F0F2223D1F02091500F203240F021E0A5
:1034300030E0FC013383228380E090E014C080916F
:10344000510FE82FF0E0EE5AF04F998190838F5F93
:103450008093510F8093500F04C061E0CE0101961C
:103460002ADE81E090E00F90DF91CF910895FC017A
:103470001382128248EE53E060E070E0448355838B
:10348000668377838CEB96E0918380830895109216
:10349000740F1092730F1092510F1092500F4ECD67
:1034A00081E080934F0F6093720F1092510F109232
:1034B000500F0895F5CF0F93062F21E04091500F44
:1034C00062E57FE08091720F9FDD1092510F1092A4
:1034D000500F10924F0F0F9108958F929F92AF92BD
:1034E000BF92CF92DF92EF92FF920F931F93CF93F1
:1034F000DF93EC01F62ED42E48015901EE2009F19C
:10350000CFDF1E2D143008F013E01150B8F0E88121
:10351000F98128E0129FB0011124A501940104C093
:1035200056954795379527956A95D2F7CA01B901FF
:103530000190F081E02DCE011995E7CF60E0CE013A
:10354000BADF4D2D413208F040E22C2D65E77FE0D7
:103550008F2D12DD1092740F8093730FDF91CF9136
:103560001F910F91FF90EF90DF90CF90BF90AF90A1
:103570009F908F900895CF92EF920F931F93C22E3A
:10358000E12C00E010E09801A8DF1F910F91EF906F
:10359000CF90089521E0EFCF61E08DCF83E49FE0ED
:1035A00066CFDC01ED91FC9111973097C9F0E617D9
:1035B000F70749F4268537852D933C9308958617A0
:1035C000970731F0FC01868597850097C1F708C001
:1035D000DB011E968D919C911F9797878687089592
:1035E00008950F931F93CF93DF938C01EB01D9DFE5
:1035F000D801ED91FC911197309719F4CD93DC939C
:1036000008C086859785009711F0FC01FACFD7870F
:10361000C6870E948136088119812A813B81601BFF
:10362000710B820B930B6C837D838E839F831F862C
:103630001E86DF91CF911F910F910895CF92DF9257
:10364000EF92FF920F931F93CF93DF93EB010E94B2
:1036500081366B017C014C815D816E817F810881A7
:1036600019812A813B81400F511F621F731FC416AD
:10367000D506E606F70690F00C811D812E813F816C
:103680004017510762077307D8F40C811D812E8102
:103690003F81C016D106E206F30690F00C811D8131
:1036A0002E813F81C016D106E206F306A8F40C81F4
:1036B0001D812E813F81401751076207730760F01B
:1036C000C886D986EA86FB86EC85FD85CE011995EC
:1036D000CC82DD82EE82FF82DF91CF911F910F912C
:1036E000FF90EF90DF90CF9008958C01F801C0819A
:1036F000D1812097D9F3BE01C801A0DF0E84DF85F8
:10370000C02DF7CF85E99FE0F0DFCF93DF93FC0179
:10371000E901A8EEB3E09A01AB010E94F13C60839D
:10372000718382839383D587C4871482158216821E
:10373000178217861686DF91CF9108951F93CF9336
:10374000DF93162FFC01C081D181209779F08B8106
:10375000811308C0E881F9810190F081E02D612F8B
:10376000CE0119950C80DD81C02DEFCFDF91CF9177
:103770001F9108951F920F920FB60F9211240BB64E
:103780000F922F933F934F935F936F937F938F93FA
:103790009F93AF93BF93EF93FF9360E087E99FE020
:1037A000CDDFFF91EF91BF91AF919F918F917F916D
:1037B0006F915F914F913F912F910F900BBE0F90A2
:1037C0000FBE0F901F9018951F920F920FB60F9279
:1037D00011240BB60F922F933F934F935F936F93E8
:1037E0007F938F939F93AF93BF93EF93FF9361E08A
:1037F00087E99FE0A3DFFF91EF91BF91AF919F9188
:103800008F917F916F915F914F913F912F910F9089
:103810000BBE0F900FBE0F901F9018951F920F9226
:103820000FB60F9211240BB60F922F933F934F9325
:103830005F936F937F938F939F93AF93BF93EF9318
:10384000FF9362E087E99FE079DFFF91EF91BF91FD
:10385000AF919F918F917F916F915F914F913F9128
:103860002F910F900BBE0F900FBE0F901F901895C9
:10387000CF93DF93EC0188819981DC01ED91FC917C
:103880000480F581E02D19951816190654F48881E5
:103890009981DC01ED91FC910680F781E02D19956D
:1038A000EACFDF91CF910895CF93DF93EC01CB0165
:1038B000BA01A9019983888326E00E94322CCE01A7
:1038C000DF91CF91D5CF2F923F924F925F926F921F
:1038D0007F928F929F92AF92BF92CF92DF92EF92A0
:1038E000FF920F931F93CF93DF93CDB7DEB7A097CF
:1038F0000FB6F894DEBF0FBECDBF9E878D87798F40
:10390000688F2C8B3D8B4E8B5F8B1B8F0A8FBD8EF0
:10391000AC8E8E01095F1F4F64E074E0C8010E9405
:10392000F433288D398D232B29F460E070E000E01A
:1039300010E034C10E9475366F87788B898B9A8B23
:103940000B8B1E8F0E9475362F85388949895A89BD
:10395000621B730B840B950B6C157D058E059F0503
:1039600020F7AD85BE858D919C91DC01ED91FC9198
:103970000480F581E02D19951816190684F4ED855B
:10398000FE8580819181DC01ED91FC910680F781BB
:10399000E02D1995682F8B899E8D0E94D93468EC93
:1039A00076E0CE0101960E94F433BE016F5F7F4F37
:1039B000C8010E94C8355C01CE0101960E9489337E
:1039C000BFEFAB16BB0609F4BDCF3501E5E06E0EC7
:1039D000711CA3016AE3C8010E9490351C014C01CF
:1039E000AA2497FCA094BA2CFFEF8F169F06AF066F
:1039F000BF0609F4A7CFA3016CE2C8010E9490356D
:103A00007C019C01442737FD4095542F2F87388B2C
:103A1000498B5A8B2F3F8FEF38074807580791F192
:103A2000281539054A055B056CF59701A301B80116
:103A3000CE0101960E94CB35CE0101960E940E3632
:103A40006B8BCE0101960E9489339B89953008F0DB
:103A50006CCFA7014F5F5F4F9101B801CE01019676
:103A60000E94CB35CE0101960E940E362B013C01FF
:103A7000CE0101960E94893314141504160417040C
:103A8000E4F053CF9101A301BE01695F7F4FCE01E6
:103A900001960E94CB35CE0101960E940E362B0175
:103AA0003C01CE0101960E948933141415041604BA
:103AB00017040CF03ACFAFEFAB8B730162018C8926
:103AC0009D89AE89BF8984159505A605B70510F4B3
:103AD0006C017D010E9475366C8B7D8B8E8B9F8B6C
:103AE000812C912C54010E9475362C893D894E8978
:103AF0005F89621B730B840B950B683B7B408105D0
:103B0000910508F012CFAD85BE858D919C91DC01A9
:103B1000ED91FC910480F581E02D19951816190698
:103B20002CF48C149D04AE04BF0410F18C149D047D
:103B3000AE04BF04C1F68D859E859ADEEA8DFB8DAD
:103B4000309721F040825182628273822F853889BA
:103B500049895A892F3F3F4F4F4F5F4F31F0AC8D0E
:103B6000BD8D109711F0EB89EC93B601870116C05B
:103B7000AD85BE858D919C91DC01ED91FC91068017
:103B8000F781E02D1995E88DF98DE80DF91D8083F9
:103B9000BFEF8B1A9B0AAB0ABB0AB5CFCE010796C3
:103BA0006F8F78A30E9489336F8D78A1C801A0968A
:103BB0000FB6F894DEBF0FBECDBFDF91CF911F913E
:103BC0000F91FF90EF90DF90CF90BF90AF909F90BC
:103BD0008F907F906F905F904F903F902F900895BF
:103BE000AF92BF92CF92DF92EF92FF920F931F930B
:103BF00067017801A12CB12C00E010E064DE1F9178
:103C00000F91FF90EF90DF90CF90BF90AF9008950D
:103C10004F925F926F927F928F929F92AF92BF92DC
:103C2000CF92DF92EF92FF920F931F93CF93DF9388
:103C3000EC015B014A016801790164E074E00E94D3
:103C4000F4330E9475362B013C010E9475366419CD
:103C50007509860997096C157D058E059F0520F568
:103C6000F50180819181DC01ED91FC910480F58169
:103C7000E02D1995181619068CF4D5018D919C919B
:103C8000DC01ED91FC910680F781E02D19958823E8
:103C900039F3682FCE010E94D934E2CFB401CE01AE
:103CA0000E94C835019689F2CE01DF91CF911F9114
:103CB0000F91FF90EF90DF90CF90BF90AF909F90CB
:103CC0008F907F906F905F904F9008952F923F92CA
:103CD0004F925F926F927F928F929F92AF92BF921C
:103CE000CF92DF92EF92FF920F931F93CF93DF93C8
:103CF000EC011B014A0159012701380164E074E01D
:103D00000E94F4330E9475366B017C010E94753667
:103D10006C197D098E099F0964157505860597053F
:103D200050F5F10180819181DC01ED91FC910480DD
:103D3000F581E02D1995181619068CF4D1018D9195
:103D40009C91DC01ED91FC910680F781E02D1995A5
:103D5000882339F3682FCE010E94D934E2CFB40111
:103D6000CE010E94C835019631F4B501CE010E9402
:103D7000C835019659F2CE01DF91CF911F910F9175
:103D8000FF90EF90DF90CF90BF90AF909F908F907B
:103D90007F906F905F904F903F902F9008952F925B
:103DA0003F924F925F926F927F928F929F92AF92CB
:103DB000BF92CF92DF92EF92FF920F931F93CF9318
:103DC000DF93EC015B011A01490164E074E00E9499
:103DD000F4330E9475362B013C010E94753664193C
:103DE0007509860997096C157D058E059F0580F577
:103DF000F50180819181DC01ED91FC910480F581D8
:103E0000E02D1995181619068CF4D5018D919C9109
:103E1000DC01ED91FC910680F781E02D1995882356
:103E200039F3682FCE010E94D934E2CFB101CE011F
:103E30000E94C835019661F4B401CE010E94C835D4
:103E4000019631F4B801CE010E94C835019629F2DD
:103E5000CE01DF91CF911F910F91FF90EF90DF90F6
:103E6000CF90BF90AF909F908F907F906F905F901A
:103E70004F903F902F900895CF92DF92EF92FF9254
:103E80000F931F93CF93DF93CDB7DEB766970FB62F
:103E9000F894DEBF0FBECDBF6C017B0164E074E01F
:103EA000CE010D962B8B3C8B4D8B5E8B0E94F43399
:103EB000B701CE0107960E9454342B893C894D8965
:103EC0005E8989019A01AE01495F5F4FB601CE015B
:103ED00001969EDEBE016F5F7F4FCE010D960E9460
:103EE0005C34CE0101960E948933CE0107960E9470
:103EF0008933B701CE010D960E94C8357C01CE01F1
:103F00000D960E94893381E0EF20E09409F480E06F
:103F100066960FB6F894DEBF0FBECDBFDF91CF918E
:103F20001F910F91FF90EF90DF90CF9008952F9207
:103F30003F924F925F926F927F928F929F92AF9239
:103F4000BF92CF92DF92EF92FF920F931F93CF9386
:103F5000DF93CDB7DEB762970FB6F894DEBF0FBE22
:103F6000CDBF2C013B014A011901580164E074E006
:103F7000CE010D960E94F433B301CE0107960E9444
:103F8000543497018601AE01495F5F4FB201CE0103
:103F900001963EDEBE016F5F7F4FCE010D960E94FF
:103FA0005C34CE0101960E948933CE0107960E94AF
:103FB0008933B301CE010D960E94C8350196B1F147
:103FC000B401CE010D960E94C8352C01662457FC21
:103FD0006094762CB101CE010D960E94C835EFEFAA
:103FE0004E165E066E067E0609F18F3FFFEF9F07B5
:103FF000E9F0F40124813581B301A201420F531F7E
:10400000611D711D9C01BE01635F7F4FCE01019652
:104010000E94CB35BE016F5F7F4FC5010E945C34AB
:10402000CE0101960E94893311E006C064E074E07D
:10403000C5010E94673410E0CE010D960E948933BD
:10404000812F62960FB6F894DEBF0FBECDBFDF9111
:10405000CF911F910F91FF90EF90DF90CF90BF9085
:10406000AF909F908F907F906F905F904F903F9018
:104070002F9008950F931F93CF93DF9300D000D01C
:10408000CDB7DEB78C01F4DB6EEC76E0F801808111
:1040900091810E94EC2E63EE76E0CE0101960E94A3
:1040A000F43328EE33E040E050E0BE016F5F7F4F15
:1040B000C801E2DE182FCE0101960E948933812FBC
:1040C00026960FB6F894DEBF0FBECDBFDF91CF911D
:1040D0001F910F9108950F931F93CF93DF9300D0FB
:1040E00000D0CDB7DEB78C01C3DB61ED76E0F8011F
:1040F000808191810E94EC2E63EE76E0CE010196E4
:104100000E94F43328EE33E040E050E0BE016F5FE0
:104110007F4FC801B1DE182FCE0101960E9489336E
:10412000812F26960FB6F894DEBF0FBECDBFDF916C
:10413000CF911F910F910895CF92DF92EF92FF924E
:10414000CF93DF93EC01C7DF882341F160ED77E087
:1041500080E090E00E94A4360E9475366B017C01DD
:104160000E9475366C197D098E099F09683B7B405A
:104170008105910598F4CE017DDF882341F06CED37
:1041800075E080E090E00E94A43681E008C064E61B
:1041900070E080E090E00E94A436E2CF80E0DF9102
:1041A000CF91FF90EF90DF90CF9008958F929F92E4
:1041B000AF92BF92CF92DF92EF92FF920F931F9335
:1041C000CF93DF93CDB7DEB768970FB6F894DEBF15
:1041D0000FBECDBF5C014B0164E074E0CE0143969D
:1041E0000E94F4338114910411F410E046C0C5011B
:1041F0003FDB6AEE76E0F501808191810E94EC2E32
:104200006FED76E0CE0101960E94F43365EF76E023
:10421000CE0107960E94F43363EE76E0CE010D9650
:104220000E94F43398EEC92E93E0D92EE12CF12CA4
:104230008E010D5E1F4F9E012F5F3F4FAE01495F04
:104240005F4FBE01635F7F4FC50171DE182FCE0146
:104250000D960E948933CE0107960E948933CE01C4
:1042600001960E948933112309F4BFCFCE014396F2
:104270000E940E36F401608311E0CE0143960E9445
:104280008933812F68960FB6F894DEBF0FBECDBF7D
:10429000DF91CF911F910F91FF90EF90DF90CF9022
:1042A000BF90AF909F908F900895CF92DF92EF9242
:1042B000FF920F931F93CF93DF93CDB7DEB768972D
:1042C0000FB6F894DEBF0FBECDBF6C01162F64E0B1
:1042D00074E0CE0143960E94F433C601C9DA6EEF52
:1042E00076E0F601808191810E94E12E4AE050E063
:1042F000612FF601808191810E949D2F69E077E016
:10430000CE0107960E94F43363EE76E0CE010D965F
:104310000E94F43318EEE12E13E0F12E00E010E0DD
:104320009E01295F3F4FAE01435F5F4FB601CE0153
:104330000196CCDCBE016F5F7F4FCE0143960E9499
:104340005C34CE0101960E948933CE010D960E9405
:104350008933CE0107960E94893363EE76E0CE0161
:1043600007960E94F433BE01695F7F4FCE014396EA
:104370000E94C8350196B1F469E077E0CE0101965C
:104380000E94F433BE016F5F7F4FCE0143960E94BF
:10439000C83511E0019609F410E0CE0101960E94A3
:1043A000893301C011E0CE0107960E948933CE0106
:1043B00043960E948933812F68960FB6F894DEBF2A
:1043C0000FBECDBFDF91CF911F910F91FF90EF9066
:1043D000DF90CF900895FF920F931F93CF93DF93B9
:1043E0001F92CDB7DEB78C01BE016F5F7F4FDEDE5F
:1043F000F82E882369F08981833051F063E0C80189
:1044000054DF882321F0C80197DE811101C0F12C0F
:104410008F2D0F90DF91CF911F910F91FF900895F5
:10442000CF92DF92EF92FF920F931F93CF93DF9380
:10443000CDB7DEB768970FB6F894DEBF0FBECDBF1D
:104440006C018B017A0164E074E0CE0143960E9416
:10445000F433C6010DDA63E177E0F60180819181E2
:104460000E94E12EB801F601808191810E94D32E35
:104470006EE177E0F601808191810E94E12EB70123
:10448000F601808191810E94D32E60E277E0F601EF
:10449000808191810E94EC2E6BE972E0CE0107963B
:1044A0000E94F43363EE76E0CE010D960E94F43361
:1044B00010E1E12E17E2F12E00E010E09E01295FED
:1044C0003F4FAE01435F5F4FB601CE010196FEDB69
:1044D000BE016F5F7F4FCE0143960E945C34CE01D8
:1044E00001960E948933CE010D960E948933CE0138
:1044F00007960E94893363EE76E0CE0101960E9412
:10450000F433BE016F5F7F4FCE0143960E94C835E2
:104510008C01CE0101960E948933CE0143960E9400
:10452000893381E00F3F1F4F09F480E068960FB692
:10453000F894DEBF0FBECDBFDF91CF911F910F91D9
:10454000FF90EF90DF90CF900895EF92FF920F933E
:104550001F93CF93DF93CDB7DEB72C970FB6F894A8
:10456000DEBF0FBECDBF8C017B01BA01CE0101962B
:104570000E945434B701CE0107960E945434AE0114
:104580004F5F5F4FBE01695F7F4FC80149DF182F42
:10459000CE0107960E948933CE0101960E9489338D
:1045A000812F2C960FB6F894DEBF0FBECDBFDF91E2
:1045B000CF911F910F91FF90EF9008956F927F928E
:1045C0008F929F92AF92BF92CF92DF92EF92FF9223
:1045D0000F931F93CF93DF93CDB7DEB76E970FB6D0
:1045E000F894DEBF0FBECDBF5C014B013A016801FC
:1045F000790164E074E0CE0149960E94F433C5016C
:1046000037D968E577E0F501808191810E94E12E3C
:10461000B401F501808191810E94D32E6EE177E093
:10462000F501808191810E94E12EB301F501808125
:1046300091810E94D32E6FE377E0F5018081918113
:104640000E94E12E2AE030E0B701A601F501808149
:1046500091810E94B22F66E677E0CE0107960E9414
:10466000F43360EA72E0CE010D960E94F43363EEFB
:1046700076E0CE0143960E94F433E0E1CE2EE7E2ED
:10468000DE2EE12CF12C8E01095F1F4F9E01235F6E
:104690003F4FAE014D5E5F4FB501CE0101967FDB0E
:1046A000BE016F5F7F4FCE0149960E945C34CE0100
:1046B00001960E948933CE0143960E948933CE0130
:1046C0000D960E948933C8010E94893363EE76E01B
:1046D000C8010E94F433B801CE0149960E94C83542
:1046E0000196B1F466E677E0CE0101960E94F433BC
:1046F000BE016F5F7F4FCE0149960E94C83511E021
:10470000019609F410E0CE0101960E94893301C0A0
:1047100011E0CE0107960E948933CE0149960E948E
:104720008933812F6E960FB6F894DEBF0FBECDBFD2
:10473000DF91CF911F910F91FF90EF90DF90CF907D
:10474000BF90AF909F908F907F906F900895EF9261
:10475000FF920F931F93CF93DF93CDB7DEB7609790
:104760000FB6F894DEBF0FBECDBF7C01CE0101961F
:104770002D873E874F87588B0E94543466E777E039
:10478000CE0107960E94F4332D853E854F855889CA
:1047900089019A01AE014F5F5F4FBE01695F7F4F94
:1047A000C7010CDFF82ECE0107960E948933CE0197
:1047B00001960E9489338F2D60960FB6F894DEBF64
:1047C0000FBECDBFDF91CF911F910F91FF90EF9062
:1047D00008954F925F926F927F92AF92BF92CF9265
:1047E000DF92EF92FF920F931F93CF93DF9300D04E
:1047F00000D0CDB7DEB78C017B0129013A0138D852
:104800006BE877E0D8018D919C910E94E12E2AE01F
:1048100030E0B301A201F801808191810E94B22FA2
:1048200067E977E0CE0101960E94F43328E833E18E
:1048300040E050E0BE016F5F7F4FC8011DDBD82E06
:10484000CE0101960E948933DD2099F1C80110D86C
:104850005701C12CD12C7601C414D504E604F70409
:1048600099F0D8018D919C91F50161915F01DC0176
:10487000ED91FC910190F081E02D1995BFEFCB1ADD
:10488000DB0AEB0AFB0AE8CF69E977E0CE01019683
:104890000E94F43320E137E240E050E0BE016F5F58
:1048A0007F4FC801E9DA182FCE0101960E948933A3
:1048B00001C010E0812F26960FB6F894DEBF0FBE20
:1048C000CDBFDF91CF911F910F91FF90EF90DF90BF
:1048D000CF90BF90AF907F906F905F904F90089572
:1048E00078CF0F931F93CF93DF9300D000D0CDB735
:1048F000DEB78C010E94381C6AEB77E0F8018081FA
:1049000091810E94EC2E63EE76E0CE0101960E942A
:10491000F43328E833E140E050E0BE016F5F7F4FA1
:10492000C801AADA182FCE0101960E948933812F7F
:1049300026960FB6F894DEBF0FBECDBFDF91CF91A4
:104940001F910F910895CDCFFC0120812D3051F0A2
:1049500024F42950223030F505C0203219F02F32CE
:1049600019F008950196F0CFFC0121812A3219F047
:104970002F3279F008950296FC012081222321F341
:104980002A3229F421812F3211F40296DDCF0196CB
:10499000F3CFFC013296CF0121912223A9F22A30D4
:1049A000D1F7D2CF08950F931F93CF93DF931F9228
:1049B000CDB7DEB78C01FC01828193816983C4DFAE
:1049C000FC0120816981261307C00196BDDFF80133
:1049D0009383828381E001C080E00F90DF91CF91CB
:1049E0001F910F910895CF93DF93EC01AA81BB81B2
:1049F0004C813D812C91273219F4C42FD32F15C03F
:104A00002232D9F3C42FD32FFD012AC03C3559F4EB
:104A1000FD01329612963C91A8E1B8E06C916111CB
:104A200010C0332339F13993DF01AE01FD01319616
:104A300011963C9111973323E9F03213E7CF319669
:104A400019C0631303C011963C91EBCF1296E6CFC9
:104A5000322F3F7D31543A3148F4299331962081E9
:104A6000AE0130ED320F3A30C0F3F2CF33ED320FFA
:104A7000323098F3DA011D92EC012C813D81FB83E9
:104A8000EA83BD83AC83C901DF91CF910895BF92C2
:104A9000CF92DF92EF92FF920F931F93CF93DF930A
:104AA00000D000D0CDB7DEB78C01FC0180819181B0
:104AB000C0D16C016BE7C80176DF882309F43CC0E4
:104AC0006DE7C80170DF811135C086E0B82EC801DE
:104AD0008ADF7C01009781F16AE3C80164DF8823E3
:104AE00059F11A821982BE016F5F7F4FC80136D01B
:104AF000882311F1B701C60137D2009739F4C601F6
:104B0000E1D00097C9F0FC01F382E282FE01319608
:104B1000DC0114968B2D01900D928A95E1F76DE7DB
:104B2000C80141DF811106C06CE2C8013CDF811180
:104B3000CECF02C0C60102C08DE99FE026960FB617
:104B4000F894DEBF0FBECDBFDF91CF911F910F91C3
:104B5000FF90EF90DF90CF90BF900895FF920F935A
:104B60001F93CF93DF93EC018B018E81882309F48F
:104B700043C081508E838A819B81E6DE9B838A833A
:104B8000FC0180818B3519F08B3759F01AC0CE01AA
:104B90003AD0FC0120813181232B49F125E030E01E
:104BA00009C0CE0174DFFC0120813181232BF9F093
:104BB00026E030E0F801318320839383828381E013
:104BC00017C0873231F091E0823209F090E0F92E7F
:104BD00002C0FF24F394CE0106DF009741F0FF20CE
:104BE00019F022E030E0E6CF21E030E0E3CF80E0D2
:104BF0009E819F5F9E8301C080E0DF91CF911F91D6
:104C00000F91FF900895DF92EF92FF920F931F9301
:104C1000CF93DF9300D000D0CDB7DEB78C01FC017D
:104C200080819181F2D07C016BE5C801BCDE8823D4
:104C300051F16DE5C801B7DE811123C096E0D92E90
:104C40001A821982BE016F5F7F4FC80187DF8823F8
:104C5000D1F0C70159D00097B1F0FE013196DC01C7
:104C600012968D2D01900D928A95E1F76DE5C801A0
:104C70009ADE811106C06CE2C80195DE8111E0CF99
:104C800002C0C70102C089E99FE026960FB6F894DA
:104C9000DEBF0FBECDBFDF91CF911F910F91FF906F
:104CA000EF90DF900895DB01109749F0ED91FC91B2
:104CB00011970190F081E02DBC01CD01199480E0A5
:104CC00090E00895CF93DF93EC01688179818AE0C9
:104CD00090E0E9DF009729F0FC0111821082158233
:104CE0001482EA81FB81309751F0208131812115B6
:104CF000310511F0F901F9CF9183808302C09B83C4
:104D00008A83DF91CF910895CF93DF93EC0168817F
:104D1000798188E090E0C7DF009729F0FC011182DB
:104D2000108213821282EA81FB81309751F0208138
:104D300031812115310511F0F901F9CF918380837B
:104D400002C09B838A83DF91CF910895FC01808507
:104D500091852681378182179307A0F4A481B581BC
:104D60009C012F5F3F4F31872087A80FB91F6C939D
:104D7000A481B58180859185A80FB91F1C9281E01F
:104D800090E0089580E090E00895CF93DF93EC01E8
:104D900088819981DC01ED91FC910190F081E02DF9
:104DA00019952A813B81280F391F3B832A83DF9184
:104DB000CF9108950F931F93CF93DF93EC018B0155
:104DC0006BE5C801E2DF0A80DB81C02D209769F026
:104DD000B801CE0102961BD10990D881C02D209731
:104DE00021F06CE2C801D1DFF3CF6DE5C801DF919E
:104DF000CF911F910F91C9CF10929A0F1092990FD6
:104E000010929C0F10929B0F0895CF93DF93EC01AB
:104E1000BC0184E090E047DFFC01009729F0D183DA
:104E2000C0831382128202C089E99FE0DF91CF9193
:104E30000895CF93DF93EC01BC0184E090E033DF71
:104E4000FC01009729F0D183C0831382128202C033
:104E50008DE99FE0DF91CF910895CF93DF93CDB798
:104E6000DEB727970FB6F894DEBF0FBECDBF9A838B
:104E700089836115710519F484E094E001C0CB01C8
:104E80009C838B837E836D834F83CE010196FFDDF0
:104E900027960FB6F894DEBF0FBECDBFDF91CF913E
:104EA0000895EF92FF920F931F93CF93DF931F927A
:104EB0001F92CDB7DEB78B014F5F5F4FDC01ED91E5
:104EC000FC910190F081E02DBA0149835A83199534
:104ED0007C0149815A81009719F0B8010E948240F3
:104EE000C7010F900F90DF91CF911F910F91FF900D
:104EF000EF900895FF920F931F93CF93DF93EC01F0
:104F00008B016115710589F46BE278E088819981E4
:104F100058D72A813B81280F391F3B832A83DF9191
:104F2000CF911F910F91FF90089562E2CE012DDF86
:104F3000F80161918F01662351F0E4E1F8E0F0801F
:104F4000FF20A1F39181961751F03296F8CF62E2DB
:104F5000CE01DF91CF911F910F91FF9016CF6CE59D
:104F6000CE0113DF6F2DE2CF0F931F93CF93DF930B
:104F70008B01FC01C281D381209759F0B8018A814D
:104F80009B810E949640892B39F00990D881C02DD1
:104F9000F3CF80E090E001C0CE01DF91CF911F916F
:104FA0000F9108950F931F93CF93DF938C01EB0123
:104FB0006BE7CE01EADEF8010281138101151105CC
:104FC000B1F0F80162817381CE0194DF6AE3CE0112
:104FD000DCDEBE01C80104961AD0F80100811181FF
:104FE0000115110521F06CE2CE01CFDEEACF6DE7AD
:104FF000CE01DF91CF911F910F91C7CE10929E0FDE
:1050000010929D0F1092A00F10929F0F0895CF93B2
:10501000DF93FC01EB01208131812530310529F43A
:1050200082819381DF91CF91C5CE2630310529F45D
:1050300082819381DF91CF91B5CF2230310531F458
:1050400062817381CE01DF91CF9154CF2130310540
:1050500019F4628173811DC02430310551F44281FD
:105060005381648175812AE030E08881998112D76B
:1050700021C02330310589F482819381A481B581D7
:10508000892B8A2B8B2B19F066E975E002C060E34F
:1050900078E08881998195D60DC02730310584F05C
:1050A000275030E0428153816481758188819981E4
:1050B0000E94A8302A813B81280F391F3B832A8315
:1050C000DF91CF9108950895CF92DF92EF92FF92F2
:1050D000FC0185899689481B590B61097109A389CF
:1050E000B4899A01AB010E94F13C6B017C018FE015
:1050F000F594E794D794C7948A95D1F7658576851A
:10510000882777FD8095982F2BE0660F771F881FE3
:10511000991F2A95D1F727853089442737FD409577
:10512000542F2C0D3D1D4E1D5F1D0E94CF3C2C0D9C
:105130003D1D4E1D5F1DCA01B901FF90EF90DF902C
:10514000CF9008951F93CF93DF931F92CDB7DEB713
:10515000162F67E770E083E49FE049830E945A1AA4
:10516000612F83E49FE00E94091A4981642F83E440
:105170009FE00E94091A83E49FE00F90DF91CF9196
:105180001F910C94CC1ACF93C62F67E770E083E48D
:105190009FE00E945A1A6C2F83E49FE00E94091A34
:1051A00083E49FE00E94CC1A67E770E083E49FE00D
:1051B0000E945A1A41E050E067E770E083E49FE004
:1051C0000E94CA1A83E49FE00E94BA19C82F83E4A0
:1051D0009FE00E94CC1A8C2FCF910895CF93DF933C
:1051E000C62F67E770E083E49FE00E945A1A6C2F95
:1051F00083E49FE00E94091A83E49FE00E94CC1A96
:1052000067E770E083E49FE00E945A1A42E050E0B2
:1052100067E770E083E49FE00E94CA1A83E49FE09E
:105220000E94BA19D82F80E0C82F83E49FE00E9423
:10523000BA19C82BD92B83E49FE00E94CC1ACE0167
:10524000DF91CF910895CF93DF93EC01643008F0A4
:1052500063E0688383E49FE00E94471A60EDCE011B
:1052600092DF853509F039C06AEACE01B7DF9A834B
:1052700089836CEACE01B2DF9C838B836EEACE0118
:10528000ADDF9E838D8360EBCE01A8DF9A8B898B87
:1052900062EBCE01A3DF9C8B8B8B64EBCE019EDF98
:1052A0009E8B8D8B66EBCE0199DF98878F8368EBA1
:1052B000CE0194DF9A8789876AEBCE018FDF9C87C6
:1052C0008B876CEBCE018ADF9E878D876EEBCE01DC
:1052D00085DF988B8F8781E001C080E0DF91CF91DF
:1052E0000895CF93DF93EC014EE264EF2BDF65E08E
:1052F00070E080E090E00E94A43666EFCE01DF917E
:10530000CF916CCFCF92DF92EF92FF92CF93DF934A
:10531000EC0148814295440F440F407C4C5C64EFA3
:1053200011DF8881811105C065E070E080E090E0C8
:1053300012C0813029F468E070E080E090E00BC09A
:10534000823029F46EE070E080E090E004C06AE111
:1053500070E080E090E00E94A43666EFCE013EDF70
:105360006C01E12CF12CFE2CED2CDC2CCC2468EF14
:10537000CE0109DFA7019601282BCA01B901488196
:1053800028E030E0241B310904C096958795779575
:1053900067952A95D2F7DF91CF91FF90EF90DF903C
:1053A000CF9008952F923F924F925F926F927F928B
:1053B0008F929F92AF92BF92CF92DF92EF92FF9225
:1053C0000F931F93CF93DF93CDB7DEB72A970FB616
:1053D000F894DEBF0FBECDBF9A87898782DF8C012C
:1053E00089859A858FDF6D837E838F839887A80157
:1053F00060E070E089859A8567DE4B015C0180EA98
:10540000881A8FE0980AA108B108A5019401C50186
:10541000B4010E949E3C2B013C010CE07594679402
:10542000579447940A95D1F7A985BA8511962D907E
:105430003C9012971C9115960D90BC91A02D0E9446
:10544000FB3C6B017C018DE0F594E794D794C79405
:105450008A95D1F7E985FA85A781B085A3019201E4
:105460000E94FB3CBB2797FDB095AB2FC80ED91E01
:10547000EA1EFB1EF2E0CF0ED11CE11CF11C32E053
:10548000F594E794D794C7943A95D1F780E8D80E6D
:10549000E11CF11CE985FA85A189B289A701960171
:1054A0000E94F13CDC01CB014FE0B695A7959795A2
:1054B00087954A95D1F789839A83AB83BC83610131
:1054C000EE24D7FCE094FE2C52E0CC0CDD1CEE1C4C
:1054D000FF1C5A95D1F7A185B285A30192010E94C4
:1054E000FB3C2B013C016BE0759467945794479407
:1054F0006A95D1F7A381B481A50194010E94FB3C78
:10550000EBE09595879577956795EA95D1F7460EE7
:10551000571E681E791EC40CD51CE61CF71C012EF4
:1055200004C0CC0CDD1CEE1CFF1C0A94D2F792E0E8
:10553000C90ED11CE11CF11CC701B60124E030E00A
:1055400040E050E00E94CF3C8D819E81AF81B885C4
:10555000821B930BA40BB50B9C01AD0160E573ECB2
:1055600080E090E004C096958795779567951A95A9
:10557000D2F70E949E3C97FD0DC0660F771F881FD3
:10558000991F29813A814B815C810E94AD3C490180
:105590005A010CC029813A814B815C810E94AD3C4B
:1055A00049015A01880C991CAA1CBB1C9927B7FCFD
:1055B0009A958B2D7A2D692D9B01AC010E949E3C02
:1055C0009B01AC01AEEDBBE00E94F13C6C01FF24FD
:1055D000D7FCF094EF2CA3E4B3EEA50194010E9454
:1055E000FD3CBB2797FDB095AB2FC80ED91EEA1E18
:1055F000FB1E9FECC90E9EE0D91EE11CF11CA4E02D
:10560000F594E794D794C794AA95D1F7C80CD91C00
:10561000EA1CFB1CC701B6012A960FB6F894DEBF40
:105620000FBECDBFDF91CF911F910F91FF90EF90F3
:10563000DF90CF90BF90AF909F908F907F906F90B2
:105640005F904F903F902F900895FC01818D228DA7
:1056500090E0805C9F4F821B91098F73992708957A
:10566000FC01918D828D981731F0828DE80FF11D2C
:10567000858D90E008958FEF9FEF0895FC01918D47
:10568000828D981761F0828DDF01A80FB11D5D96A4
:105690008C91928D9F5F9F73928F90E008958FEF12
:1056A0009FEF089583EF9CE2892B39F080E090E032
:1056B000892B19F098D1811123C08EE99DE2892BA5
:1056C00039F080E090E0892B19F038D281111BC0AD
:1056D00089E49EE2892B39F080E090E0892B19F073
:1056E000D8D2811113C080E090E0892BA1F080E036
:1056F00090E0892B81F00E94000081110AC008957A
:105700000E940000DACF0E940000E2CF0E94000059
:10571000EACF0C9400000895FC01848DDF01A80FEE
:10572000B11DA35ABF4F2C91848D90E001968F73C9
:105730009927848FA689B7892C93A089B1898C91E8
:1057400080648C93938D848D981306C00288F389AE
:10575000E02D80818F7D80830895CF93DF93EC01CE
:10576000888D8823C1F0EA89FB89808185FD05C089
:10577000A889B9898C9186FD0EC00FB607FCF5CFBC
:10578000808185FFF2CFA889B9898C9185FFEDCF03
:10579000CE01C2DFE8CFDF91CF910895CF92DF92A3
:1057A000FF920F931F93CF93DF931F92CDB7DEB776
:1057B0006C0181E0D60158968C9358975B969C912A
:1057C0005B975C968C915C97981307C05096ED910F
:1057D000FC915197808185FD2DC0F601038D10E06D
:1057E0000F5F1F4F0F731127F02EF601848DF812F3
:1057F00010C00FB607FCF9CFD6015096ED91FC9181
:105800005197808185FFF1CFC601698385DF69816A
:10581000ECCF838DE80FF11DE35AFF4F6083D60173
:105820005B960C935B975296ED91FC915397808118
:1058300080620CC0D6015696ED91FC91579760831B
:105840005096ED91FC91519780818064808381E036
:1058500090E00F90DF91CF911F910F91FF90DF901B
:10586000CF900895BF92CF92DF92EF92FF92CF93A5
:10587000DF93EC016A017B01B22EE889F98982E0AD
:105880008083411581EE580761057105A1F060E044
:1058900079E08DE390E0A70196010E94AD3C215094
:1058A0003109410951095695479537952795211595
:1058B00080E1380798F0E889F989108260E874E897
:1058C0008EE190E0A70196010E94AD3C2150310984
:1058D000410951095695479537952795EC85FD85E2
:1058E0003083EE85FF852083188EEC89FD89B08298
:1058F000EA89FB89808180618083EA89FB898081D4
:1059000088608083EA89FB89808180688083EA8956
:10591000FB8980818F7D8083DF91CF91FF90EF9015
:10592000DF90CF90BF9008951F920F920FB60F9205
:1059300011240BB60F922F938F939F93EF93FF93A6
:10594000E091B10FF091B20F8081E091B70FF0912B
:10595000B80F82FD12C090818091BA0F8F5F8F7354
:105960002091BB0F821751F0E091BA0FF0E0EF5594
:10597000F04F958F8093BA0F01C08081FF91EF9116
:105980009F918F912F910F900BBE0F900FBE0F9094
:105990001F9018951F920F920FB60F9211240BB6FD
:1059A0000F922F933F934F935F936F937F938F93B8
:1059B0009F93AF93BF93EF93FF9381EA9FE0ACDE99
:1059C000FF91EF91BF91AF919F918F917F916F91D7
:1059D0005F914F913F912F910F900BBE0F900FBE93
:1059E0000F901F90189581EA9FE02FDE21E0892B10
:1059F00009F420E0822F08951092A40F1092A30FB3
:105A000088EE93E0A0E0B0E08093A50F9093A60FFE
:105A1000A093A70FB093A80F8AE398E09093A20FEA
:105A20008093A10F85EC90E09093AE0F8093AD0F23
:105A300084EC90E09093B00F8093AF0F80EC90E0F7
:105A40009093B20F8093B10F81EC90E09093B40FDC
:105A50008093B30F82EC90E09093B60F8093B50FD4
:105A600086EC90E09093B80F8093B70F1092BA0F26
:105A70001092BB0F1092BC0F1092BD0F08951F9291
:105A80000F920FB60F9211240BB60F922F938F9394
:105A90009F93EF93FF93E0914E10F0914F10808110
:105AA000E0915410F091551082FD12C090818091C8
:105AB00057108F5F8F7320915810821751F0E0912B
:105AC0005710F0E0E25CFF4E958F8093571001C0B5
:105AD0008081FF91EF919F918F912F910F900BBE3D
