:100000007FC100000C94AC300C94D7300C940231BA
:100010000C942D310C9458310C9483310C94AE31E6
:100020000C94D9310C94251A0C944F1A0C94791A0B
:1000300098C100000C94B42F94C1000092C100003C
:1000400090C100008EC100008CC100008AC1000078
:1000500088C1000086C1000084C100000C94AF3448
:1000600080C100000C94FF2A0C94352B7AC100004B
:1000700078C1000076C1000074C1000072C10000A8
:1000800070C100006EC100006CC100006AC10000B8
:100090000C94AA2B0C94E02B64C100000C94EF1676
:1000A00060C100005EC100005CC100005AC10000D8
:1000B00058C1000056C1000054C1000052C10000E8
:1000C00050C100004EC100004CC100000C94552CE2
:1000D0000C948B2C46C1000044C1000042C10000BA
:1000E00040C100005F30293031303D304A306B3044
:1000F00078309C3092309430963098309E30A030DA
:10010000143619361E3628363236AB363C3644366F
:100110004C36563660366A3679368336AB368D368F
:100120009736A136CC36CF36BE36C236C8360637FD
:10013000D336D736DD36E136E536EB36EF36F336F5
:100140000637F936FD36013707634236B79BD8A725
:100150001A39685618AEBAAB558C1D3CB7CC5763EC
:10016000BD6DEDFD753EF6177231BF000000803F9A
:1001700008000000BE922449123EABAAAA2ABECDB6
:10018000CCCC4C3E00000080BEABAAAAAA3E000028
:100190000000BF000000803F000000000008417820
:1001A000D3BB4387D1133D190E3CC3BD4282AD2B57
:1001B0003E68EC8276BED98FE1A93E4C80EFFFBE4F
:1001C00001C4FF7F3F00000000000200000A0B0294
:1001D000090C0D0E080703040100000000000000D8
:1001E000000000000000000000000000000000000F
:1001F00000000000000000121110000000000000CC
:1002000000000000000000000000000000000000EE
:100210000001021020200808102040102040800219
:10022000010201080402010102040810204080803C
:1002300040201008040201800402018040201008C0
:100240000402010804020101020408102040800198
:100250000204081020408005050505070508080868
:1002600008020202020A0A08080404040401010147
:10027000010101010103030303030303030407074F
:10028000070C0C0C0C0C0C0C0C02020202060606ED
:1002900006060606060B0B0B0B0B0B0B0B000020C8
:1002A000002300260029002C002F0032000001004E
:1002B0000003010601090100002200250028002B8F
:1002C000002E003100340002010000050108010B7E
:1002D0000100002100240027002A002D00300033F7
:1002E0000001010000040107010A0100EC02B90B42
:1002F000391967256926672B122CBD2CD103CA0B2F
:1003000011241FBECFEFD1E2DEBFCDBF00E00CBF96
:1003100017E0A0E0B2E0EEE9FFE700E00BBF02C0AB
:1003200007900D92A03AB107D9F720E1A0EAB7E013
:1003300001C01D92A93DB207E1F712E0CCEFD2E077
:1003400000E006C022970109FE010BBF0E94853B19
:10035000CC3ED10780E00807A9F70E94A0340C9496
:10036000BE3F4ECE88E898E00C94BB0C81EE97E03F
:100370000C94F612CF93DF93CDB7DEB72C970FB660
:10038000F894DEBF0FBECDBF81E00E948530789427
:100390006CEE7EE0CE0107960E94502F6EE272E076
:1003A000CE0107960E94CB33882339F06EE678E0C1
:1003B000CE0101960E94A9110EC064E372E0CE0145
:1003C00007960E94CB33882391F061EE77E0CE014F
:1003D00001960E941B13BE016F5F7F4F8CEE9EE063
:1003E0000E94572DCE0101960E94043236C06CE364
:1003F00072E0CE0107960E94CB33882319F064E4A3
:1004000072E027C068E472E0CE0107960E94CB3309
:10041000882329F0CE0101960E946C0BDCCF6DE49D
:1004200072E0CE0107960E94CB33882329F088E83A
:1004300098E00E94DC0C11C060E070E0CE010796ED
:100440000E94CB33882319F06EE572E002C060E6AB
:1004500072E08CEE9EE00E94672D41E050E06AEB76
:1004600071E081E00E941430CE0107960E940432B0
:100470002C960FB6F894DEBF0FBECDBFDF91CF91A3
:100480000895CF93DF9300D000D0CDB7DEB741E021
:1004900050E06CEA74E084E00E94143041E050E0E7
:1004A0006AEB71E081E00E94143026E040E051EEFA
:1004B00060E070E08CEE9EE00E949D2A61EC77E0A7
:1004C00080EE9EE00E945C1961EB77E080EE9EE09A
:1004D0000E945C1961EA77E080EE9EE00E945C1960
:1004E00066E672E0CE0101960E946F32CE0101965F
:1004F0005DD7CE0101960E94043226960FB6F8947D
:10050000DEBF0FBECDBFDF91CF9108951F93CF9374
:10051000DF9300D000D0CDB7DEB7BC01CE0101968D
:100520000E94CF32BE016F5F7F4F81ED97E06DD3A8
:10053000182FCE0101960E9404321123A9F164E71D
:1005400072E0CE0101960E946F32CE0101962ED745
:10055000CE0101960E94043281ED97E07BD2BC016E
:10056000CE0101960E946F32BE016F5F7F4F8EE613
:1005700098E00E94E60F182FCE0101960E940432E7
:10058000112379F06CE972E0CE0101960E946F327E
:10059000CE0101960BD7CE0101960E94043281E074
:1005A00011C068EB72E002C06CEC72E0CE01019603
:1005B0000E946F32CE010196F9D6CE0101960E94BB
:1005C000043280E026960FB6F894DEBF0FBECDBF92
:1005D000DF91CF911F910895CF93DF9300D000D08A
:1005E000CDB7DEB786E998E036D686E998E09093F5
:1005F00091088093900864E070E045D6909393084A
:100600008093920884E090E00E94AD349093950826
:100610008093940840E958E062E070E088E898E050
:100620000E94160C42E350E067E070E080E898E03A
:100630000E94950D20E031EE40E050E069E87FE057
:100640008CE798E00E94320D2CE738E040E858E053
:1006500068E878E08EE698E00E940E0E6FEE72E099
:10066000CE0101960E946F3246E350E0BE016F5FFB
:100670007F4F8CE598E0BFD4CE0101960E940432F2
:1006800062EF72E0CE0101960E946F3247E350E0C4
:10069000BE016F5F7F4F82E498E0F0D4CE010196F7
:1006A0000E94043266EF72E0CE0101960E946F3222
:1006B00044E050E0BE016F5F7F4F85E298E072D367
:1006C000CE0101960E94043262E073E0CE010196F1
:1006D0000E946F3244E050E0BE016F5F7F4F88E0C0
:1006E00098E003D4CE0101960E9404326BE073E0DF
:1006F000CE0101960E946F32BE016F5F7F4F85EE83
:1007000097E09ED3CE0101960E94043245E050E06E
:1007100066E072E081EE97E00E94F01220E031EE98
:1007200040E050E066E270E18FED97E00E94BF1A72
:100730002FED37E044E153E0BA0187ED97E00E94E6
:10074000AE1427ED37E040E550E06EE173E081ED57
:1007500097E078D122EB31E048EE53E060E070E0C2
:1007600081EC97E00E94F01926EB31E048E853E174
:1007700060E070E081EB97E00E94F01923E034E044
:1007800048EB5BE060E070E081EA97E00E94F019DE
:1007900026960FB6F894DEBF0FBECDBFDF91CF9186
:1007A0000895CF93DF93C8E7D3E0D093E607C093D3
:1007B000E5078BEE97E00E940432D0930908C093BE
:1007C00008088EE098E00E940432D0932608C09377
:1007D00025088BE298E00E940432D0934308C0932E
:1007E000420888E498E00E940432D0935D08C093E8
:1007F0005C0882E698E00E94043284E798E0DF918A
:10080000CF910C9404321F93CF93DF93CDB7DEB713
:1008100068970FB6F894DEBF0FBECDBF87ED97E0A7
:100820000E940914882309F484C061E08EE698E0F0
:100830000E94D90E8091A00761EE77E0882309F429
:100840003FC0CE010D960E941B136EE678E0CE01EC
:1008500007960E94A9116BE273E0CE0101960E94F7
:100860006F32BE01695F7F4FCE0101960E947233E5
:100870006AE673E00E948333BE01635F7F4F0E948C
:100880007233BC01CE0143960E94CF32CE01439613
:100890003DDE182FCE0143960E940432CE01019610
:1008A0000E940432CE0107960E940432CE010D96BA
:1008B0000E940432112309F445C01092A00742C0DF
:1008C000CE010D960E941B136EE678E0CE010796CE
:1008D0000E94A9116DE473E0CE0101960E946F326F
:1008E000BE01695F7F4FCE0101960E9472336AE6B6
:1008F00073E00E948333BE01635F7F4F0E947233B7
:10090000BC01CE0143960E94CF32CE014396FEDD5C
:10091000CE0143960E940432CE0101960E94043219
:10092000CE0107960E940432CE010D960E94043239
:1009300009C060E08EE698E00E94D90E87ED97E04E
:100940000E940B1468960FB6F894DEBF0FBECDBFA1
:10095000DF91CF911F9108950F931F93CF93DF9352
:10096000CDB7DEB762970FB6F894DEBF0FBECDBF2E
:1009700084E00E94853078946CE778E0CE010D9693
:100980000E94E70C6CE673E0CE0101960E946F3284
:10099000BE016F5F7F4FCE010D960E944C348C01DB
:1009A000CE0101960E9404320F3F1F4FA9F166E469
:1009B00072E0CE0101960E946F326EE678E0CE01C1
:1009C00007960E943C0EBE016F5F7F4FCE010796D7
:1009D0000E949B338C01CE0107960E940432CE0107
:1009E00001960E940432012B19F462E773E002C001
:1009F00066E472E0CE0101960E946F32BE016F5F25
:100A00007F4F8EE698E00E94DC0ECE0101960E9498
:100A1000043281E08093A00741E050E06CEA74E08A
:100A200084E00E941430CE010D960E94043262963A
:100A30000FB6F894DEBF0FBECDBFDF91CF911F91EF
:100A40000F910895FC01738362835583448331833E
:100A50002083089580EA98E00895EF92FF920F9323
:100A60001F93CF93DF93CDB7DEB768970FB6F89497
:100A7000DEBF0FBECDBF8B016AE773E0CE014396A8
:100A80000E946F3262E873E0CE010D960E946F32D1
:100A9000B801CE0107960E946F32BE01635F7F4F9F
:100AA000CE0107960E944C347C01BE016D5E7F4FE3
:100AB000CE0107960E944C344F89588D480F591F1C
:100AC0009701BE01695F7F4FCE0101960E944F34AE
:100AD000BE016F5F7F4FCE0107960E94D732CE01D5
:100AE00001960E940432F80101900020E9F7AF015D
:100AF00041505109401B510B20E030E0B801CE01BC
:100B000007960E94EA33CE0107960E940432CE0176
:100B10000D960E940432CE0143960E94043281E079
:100B200068960FB6F894DEBF0FBECDBFDF91CF91B0
:100B30001F910F91FF90EF900895EF92FF920F9306
:100B40001F93CF93DF93CDB7DEB764970FB6F894BA
:100B5000DEBF0FBECDBF7B018A01FC0162817381C4
:100B6000CE0101962B8B3C8B0E946F3268E873E0BC
:100B7000CE0107960E946F32B701CE0107960E9400
:100B800072336DE873E00E948333BE016F5F7F4F65
:100B90000E9472336FE973E00E948333BC01CE017F
:100BA0000D960E94CF32CE0107960E940432CE01EC
:100BB00001960E940432E989FA8931962B89422FE5
:100BC0003C89532FE417F5070CF4AF0120E030E027
:100BD000B801CE010D960E94EA3364E670E080E031
:100BE00090E00E942835CE010D960E940432C80183
:100BF00064960FB6F894DEBF0FBECDBFDF91CF91E4
:100C00001F910F91FF90EF900895CF92DF92EF9296
:100C1000FF920F931F93CF93DF9300D000D0CDB7F7
:100C2000DEB78C016B01DC018D919C91DC01ED91B3
:100C3000FC910280F381E02D1995882309F46BC0A3
:100C4000F80180819181DC01ED91FC91D80114962D
:100C50004D915C91159712966D917C91139704803C
:100C6000F581E02D1995882309F43DC0D801ED9157
:100C7000FC910190F081E02DE084F184B601CE0179
:100C800001960E94CF3224EF31E044E95AE0BE01E0
:100C90006F5F7F4FC80151DFBC01F80180819181F6
:100CA000F7011995CE0101960E940432D8018D9169
:100CB0009C91DC01ED91FC910284F385E02D44EFE1
:100CC00051E060EA78E01995F80180819181DC01BA
:100CD000ED91FC910680F781E02D199560EA78E0AE
:100CE000C801BBDE26C064EA73E0CE0101960E9413
:100CF0006F32CE0101965AD3CE0101960E94043282
:100D0000F80180819181DC01ED91FC910190F081ED
:100D1000E02D19950DC067EC73E0CE0101960E949D
:100D20006F32CE01019642D3CE0101960E94043269
:100D300080E026960FB6F894DEBF0FBECDBFDF91E0
:100D4000CF911F910F91FF90EF90DF90CF9008957A
:100D50000F931F93CF93DF93EC018C01045F1F4F20
:100D600040E050E064E0C8010E94D5158D899E895D
:100D7000019719F468EE73E002C060ED77E0882710
:100D800077FD8095982F0E942835C8010E94FE1596
:100D90006A837B838C839D8381E0DF91CF911F9158
:100DA0000F910895EF92FF920F931F93CF93DF93CC
:100DB000EC017B0188E793E0998388838E010A5FC9
:100DC0001F4F63EA73E0C8010E946F3283EF93E024
:100DD00099838883B701C8010E94BA321A821B82A4
:100DE0001C821D82DF91CF911F910F91FF90EF9098
:100DF00008950F931F93CF93DF93EC018C01045F51
:100E00001F4F63E0C8010E948E27C8010E943D2841
:100E10000E94A23820E836EE45EC57E40E940738DD
:100E200020E030E04EE354E40E9456396A837B832D
:100E30008C839D8381E0DF91CF911F910F91089565
:100E4000EF92FF920F931F93CF93DF93EC017B01FF
:100E500088E793E0998388838E010A5F1F4F63EAD6
:100E600073E0C8010E946F3289EF93E09983888311
:100E7000CE010C960E94CE26B701C8010E94BA325C
:100E80001A821B821C821D82DF91CF911F910F91CC
:100E9000FF90EF9008950F931F93CF93DF93EC0192
:100EA0008C01045F1F4F40E050E064E0C8010E94E5
:100EB000D5158D899E89019719F468EE73E002C0FB
:100EC00060ED77E0882777FD8095982F0E94283580
:100ED000C8010E94F3156A837B838C839D8381E024
:100EE000DF91CF911F910F910895EF92FF920F9391
:100EF0001F93CF93DF93EC017B0188E793E0998305
:100F000088838E010A5F1F4F63EA73E0C8010E9465
:100F10006F328FEF93E099838883B701C8010E94F5
:100F2000BA321A821B821C821D82DF91CF911F91DF
:100F30000F91FF90EF900895CF92DF92EF92FF9282
:100F4000CF93DF93EC0188890E94CC35BC018827C0
:100F500077FD8095982F0E94A23820E030E040E88D
:100F60005AE30E94563920E030E040EA50E40E9403
:100F700056396B017C019B01AC0160E070E080EAB6
:100F800090E40E949E37A70196010E9407382C85A5
:100F90003D854E855F850E9407389B01AC0160E06E
:100FA00070E080E89FE30E949E376B017C0120E0A7
:100FB00030E0A9010E94033887FF03C0C12CD12C67
:100FC000760120E030E847E754E4C701B6010E940B
:100FD000563920E030E040E251E40E949F376A83B6
:100FE0007B838C839D8381E0DF91CF91FF90EF9095
:100FF000DF90CF900895AF92BF92CF92DF92EF92A1
:10100000FF920F931F93CF93DF93EC016B015A0173
:1010100088E793E0998388837E0186E0E80EF11CDF
:1010200063EA73E0C7010E946F3285E094E0998320
:10103000888300E010E020EF31E40C871D872E87C5
:101040003F87B601C7010E94BA32B98AA88A1A82BC
:101050001B821C821D8246E656E666E370E44C87DE
:101060005D876E877F87DF91CF911F910F91FF90F2
:10107000EF90DF90CF90BF90AF900895CF92DF9226
:10108000EF92FF920F931F93CF93DF93EC017B01BD
:101090006A0188E793E0998388838E010A5F1F4F76
:1010A00063EA73E0C8010E946F328BE094E0998399
:1010B00088838CE0E2E2F2E0DE011E9601900D9260
:1010C0008A95E1F7B701C8010E94BA32DD86CC8665
:1010D0001A821B821C821D82DF91CF911F910F917A
:1010E000FF90EF90DF90CF900895CF92DF92EF9234
:1010F000FF921F93CF93DF93162FC5E0D0E0C12C52
:10110000D12C7601812F0E94CC35BC01882777FD38
:101110008095982F0E94A2389B01AC01C701B601AF
:101120000E949F376B017C0162E370E080E090E0F9
:101130000E942835219731F720E030E040EA50E462
:10114000C701B6010E94073820E030E040EA50E4D1
:101150000E94563920E030E040E85AE30E945639B8
:10116000DF91CF911F91FF90EF90DF90CF90089586
:10117000CF92DF92EF92FF92CF93DF93CB01BA0130
:10118000E90120E030E040EA50E40E9407386B01BA
:101190007C012DED34E246E05FE30E94523987FF87
:1011A00020C02C813D814E815F81C701B6010E9424
:1011B0009E37288539854A855B850E9407382881B6
:1011C00039814A815B810E949F379B01AC0160E0BD
:1011D00070E080E291E40E94B9390E946F38CB013F
:1011E00002C08FEF9FEFDF91CF91FF90EF90DF90E4
:1011F000CF900895CF93DF93EC016C857D8575DFEB
:10120000AB01BC019E01225F3F4FCE01B1DF8F3F9A
:101210002FEF920759F0BC01882777FD8095982F12
:101220000E94A2386A837B838C839D8381E0DF9157
:10123000CF910895FC016281738184819581089525
:10124000CF93DF93EC016A5F7F4F0E94CF32CE01D4
:10125000DF91CF910895CF93DF93EC011F821E821F
:10126000198618861D821C8284E190E00E94AD34AC
:101270009983888384E190E00E94AD349B838A83C4
:10128000DF91CF910895FC0120853185848195817E
:10129000880F991FA081B181A80FB91F2D933C938E
:1012A00084819581880F991FA281B381A80FB91FEE
:1012B0006D937C9380859185860F971F918780879A
:1012C000848195819C012F5F3F4F3583248308954E
:1012D000DF92EF92FF920F931F93CF93DF938C01D6
:1012E000EB017A01CC0FDD1FD12C2D2D30E0D80180
:1012F0001296ED91FC911397EC0FFD1F8081918167
:101300002817390794F4A701420F531FD801ED9114
:10131000FC91EC0FFD1F80819181FA016081820FA9
:10132000931F0E949D3FD394E0CFDF91CF911F91F7
:101330000F91FF90EF90DF900895BF92CF92DF92D0
:10134000EF92FF920F931F93CF93DF938C01EB01EA
:101350006A01CC0FDD1FB12C2B2D30E0D801129685
:10136000ED91FC911397EC0FFD1F8081918128175F
:10137000390794F47601E20EF31ED801ED91FC9149
:10138000EC0FFD1F80819181820F931F0E94953F7A
:10139000F7018083B394E0CFDF91CF911F910F913C
:1013A000FF90EF90DF90CF90BF9008954F925F92A3
:1013B0006F927F928F929F92AF92BF92CF92DF9265
:1013C000EF92FF920F931F93CF93DF93CDB7DEB7CA
:1013D000A4970FB6F894DEBF0FBECDBF4C010E949C
:1013E000F9342B013C0120E83EEE46E350E00E9438
:1013F000313B69017A0144EC960142035001439F5D
:10140000B00C1124C301B20120E63AEE40E050E0F6
:101410000E94313BA20EB31E80EF91EF8C9D8001A4
:101420008D9D100D9C9D100D1124C301B20128EE5D
:1014300033E040E050E00E94313B020F131F44ECC8
:1014400095014203C001439F900D1124080F191FFD
:1014500080E891E18C9DB0018D9D700D9C9D700D7B
:101460001124640D751D20EA35E1A29EC001A39EE2
:10147000900DB29E900D1124680F791F28E13CEF6A
:10148000029FC001039F900D129F900D1124680FC1
:10149000791F4AE0CE0101960E9403334AE0B80169
:1014A000CE0107960E9403334AE0B501CE010D96A6
:1014B0000E9403334AE0B601CE0149960E940333ED
:1014C000BE01675E7F4FCE0143960E94CF3262E439
:1014D00076E0CE0143960E948333BE01635F7F4F67
:1014E0000E94723362E476E00E948333BE01695F3A
:1014F0007F4F0E94723362E476E00E948333BE0124
:101500006F5F7F4F0E947233BC01CE014F960E94E5
:10151000CF32CE0143960E940432CE0149960E94FA
:101520000432CE010D960E940432CE0107960E942D
:101530000432CE0101960E940432BE01615E7F4FEB
:10154000CE0107960E94CF326DE074E0CE0107967F
:101550000E948333B4010E947233BC01CE01019614
:101560000E94CF32C0908A0CD0908B0C80918C0C52
:1015700090918D0CC816D90609F06DC076018FEFD9
:10158000E81AF80AF0928D0CE0928C0CE1E4EE1669
:10159000E5E1FE0640F426E02E9DC0012F9D900D52
:1015A0001124029602C08FEF9FEF0E94AD34FC0120
:1015B000E192F1928F017F012FEFC216D20659F00E
:1015C00063EA73E0C8010E946F320A5F1F4FF1E0C7
:1015D000CF1AD108F1CF00E010E0C12CD12C8091BE
:1015E0008A0C90918B0C6091880C7091890CC816B4
:1015F000D9066CF4600F711FC701800F911F0E9404
:10160000BA323FEFC31AD30A0A5F1F4FE8CF611502
:101610007105E9F0FB0132978081918126E0289FD6
:101620008001299F100D1124060F171FC80120915A
:10163000880C3091890C065011098217930721F00C
:10164000C8010E940432F2CF02970E94AE34F09299
:10165000890CE092880C20918A0C30918B0C46E02A
:10166000429FC001439F900D11242091880C30911E
:10167000890CBE016F5F7F4F820F931F0E94BA32A9
:1016800080918A0C90918B0C019690938B0C809397
:101690008A0CCE0101960E940432CE0107960E9468
:1016A0000432CE014F960E940432A4960FB6F894ED
:1016B000DEBF0FBECDBFDF91CF911F910F91FF9085
:1016C000EF90DF90CF90BF90AF909F908F907F90E2
:1016D0006F905F904F900895DF92EF92FF920F937B
:1016E0001F93CF93DF9300D000D0CDB7DEB77C013E
:1016F00063EA73E00E946F320091880C1091890CAC
:1017000086E0D82E80918A0C90918B0CD89E900107
:10171000D99E300D11248091880C9091890C820FF4
:10172000931F08171907B1F0B801CE0101960E9466
:10173000CF3262EA73E0CE0101960E948333BC018E
:10174000C7010E945933CE0101960E9404320A5FFC
:101750001F4FD8CFC70126960FB6F894DEBF0FBE35
:10176000CDBFDF91CF911F910F91FF90EF90DF9050
:1017700008951092890C1092880C10928B0C109284
:101780008A0C10928D0C10928C0C10928F0C10926F
:101790008E0C0895CF93DF938091880C9091890CE3
:1017A0000097E1F0FC0132972081318146E0429FB1
:1017B000E001439FD00D1124C80FD91FCE01209105
:1017C000880C3091890C26978217930721F0CE015F
:1017D0000E940432F3CF02970E94AE341092890C1B
:1017E0001092880C10928B0C10928A0C10928D0C17
:1017F00010928C0C10928F0C10928E0CDF91CF9166
:101800000895CF93DF93FC01C681D7814C815D8120
:101810006A817B818881998190DDEC81FD81608185
:10182000718182819381DF91CF910895CF93DF936E
:10183000EC01862F26E934E0398328836C837D838D
:101840005F834E8361E00E94073761E08C810E94D4
:1018500040371B821A82DF91CF910895CF93DF9397
:10186000EC0160E08C810E9440376CE271E080E026
:1018700090E00E94283561E08C810E94403781E031
:10188000DF91CF910895CF93DF93EC018A819B8103
:10189000892B61F4CE01E2DF882329F081E090E01A
:1018A0009B838A830AC061E174E002C069E374E04B
:1018B0008CEE9EE00E94672D80E0DF91CF9108952D
:1018C000CF93DF93EC018A819B81019759F4CE017C
:1018D000C5DF882321F01B821A8281E00AC061E102
:1018E00074E002C065E674E08CEE9EE00E94672D15
:1018F00080E0DF91CF910895EF92FF920F931F93B5
:10190000CF93DF9300D01F92CDB7DEB78C0184E078
:1019100090E049835A836B837C830E94AD347C01C1
:1019200049815A816B817C81FC01408351836283B0
:101930007383F80162817381AC0180819181C8DC7D
:10194000E114F10469F0C7010F900F900F900F9010
:10195000DF91CF911F910F91FF90EF900C94AE34D7
:101960000F900F900F900F90DF91CF911F910F91DB
:10197000FF90EF9008950F931F93CF93DF938C0107
:10198000FC01C681D7814C815D816A817B81888120
:101990009981D3DCEC81FD81408151816281738129
:1019A0004F5F5F4F6F4F7F4FF80186819781DF91C7
:1019B000CF911F910F91A0CF40E050E0BA01FC0100
:1019C0008681978199CFFC01828193810895CF937D
:1019D000DF93EC01FB01628173810E94502FCE01E5
:1019E000DF91CF9108950F931F93CF93DF93CDB7DE
:1019F000DEB72C970FB6F894DEBF0FBECDBF8C01BB
:101A0000FC01828193810E943E2D69E276E0CE0145
:101A100001960E946F32F80162817381CE010796B0
:101A20000E94502FBE016F5F7F4FCE0107960E942C
:101A30004C348C01CE0107960E940432CE010196EF
:101A40000E94043281E00F3F1F4F09F480E02C9682
:101A50000FB6F894DEBF0FBECDBFDF91CF911F91BF
:101A60000F910895FC01CB01BA01A90120EA34E0ED
:101A7000318320839383828326E00C949D2AFC018A
:101A8000848195810895FC01828193810895CF938B
:101A9000DF93EC018A819B81892B51F46C817D81DC
:101AA0008E810E94F13581E090E09B838A8307C09C
:101AB00064EA74E08CEE9EE00E94672D80E0DF9186
:101AC000CF910895CF93DF93EC018A819B81019799
:101AD00041F460E08E810E9440371B821A8281E0CF
:101AE00007C060ED74E08CEE9EE00E94672D80E000
:101AF000DF91CF910895FC01848195818536910510
:101B000050F47583648382819381019761F48681A7
:101B10000E94F13508C06DEF74E08CEE9EE00E94EB
:101B2000672D80E0089581E00895CF93DF93EC0165
:101B3000862F2BE235E0398328836E837F835D8394
:101B40004C8361E00E94073760E08E810E9440373D
:101B50001B821A82DF91CF9108959C01FC01E6530C
:101B6000FF4F80819181680F791F693C710530F4C6
:101B7000718360830296820F931F089580E090E046
:101B80000895CF93DF93FC01808191819C012350C4
:101B900031092230310528F4628173818481958175
:101BA00029C0873091053CF06281738184819581E1
:101BB0000E946F381FC001970297C8F4C281D38179
:101BC0002097A9F0BE0185E395E00E941A3F892B7A
:101BD00049F04AE050E060E070E0CE01DF91CF9143
:101BE0000C94A33D61E070E080E090E003C060E011
:101BF00070E0CB01DF91CF9108956115710559F027
:101C0000FB0101900020E9F7AF0141505109461B4B
:101C1000570B0C94BC2580E090E00895AF92BF92E2
:101C2000CF92DF92EF92FF920F931F93CF93DF93A8
:101C3000EC017B015A0169018C010A5F1F4F63EAC5
:101C400073E0C8010E946F32F982E882BB82AA82E7
:101C5000DD82CC8266E472E0C8010E94ED321C860F
:101C60001D86DF91CF911F910F91FF90EF90DF9034
:101C7000CF90BF90AF900895CF93DF93EC016A5F50
:101C80007F4F0E94CF32CE01DF91CF910895EF9226
:101C9000FF920F931F93CF93DF93CDB7DEB7689773
:101CA0000FB6F894DEBF0FBECDBF8C0163EA73E0C0
:101CB000CE0143960E946F32D8011D968C918823E5
:101CC00049F06AE375E0CE0101960E946F32E12C83
:101CD000F12C2AC0F801848598012A5F3F4F7901D1
:101CE000882379F062E475E0CE010D960E946F3290
:101CF000B701CE010D960E947233E12CFF24F394BC
:101D00000EC069E475E0CE0107960E946F32B701FC
:101D1000CE0107960E947233EE24E394F12CBC01AD
:101D2000CE0101960E94CF32BE016F5F7F4FCE0180
:101D300043960E94E232CE0101960E940432EE20C8
:101D400021F0CE0107960E940432FF2021F0CE013F
:101D50000D960E940432D8011496ED91FC911597CE
:101D60000190F081E02DE280F380BE016D5E7F4F37
:101D7000CE0101960E94CF32BE016F5F7F4FF80106
:101D800084819581F7011995CE0101960E94043254
:101D9000CE0143960E94043268960FB6F894DEBFD7
:101DA0000FBECDBFDF91CF911F910F91FF90EF90AC
:101DB0000895FC0164876BCFCF92DF92EF92FF9280
:101DC0000F931F93CF93DF9300D000D0CDB7DEB732
:101DD0007C018B0166E472E0CE0101960E946F32B5
:101DE000BE016F5F7F4FC8010E949B336C01CE0123
:101DF00001960E940432CD28A1F4D7018D919C91C7
:101E0000DC01ED91FC910280F381E02D1995F70141
:101E100082819381DC01ED91FC910280F381E02DC0
:101E200032C062E773E0CE0101960E946F32BE01BC
:101E30006F5F7F4FC8010E949B336C01CE010196FA
:101E40000E940432CD2809F5F70180819181DC01DF
:101E5000ED91FC910190F081E02D1995F7018281BF
:101E60009381DC01ED91FC910480F581E02D64E625
:101E700070E01995F70182819381DC01ED91FC916D
:101E80000190F081E02D19958AC064EF72E0CE01D7
:101E900001960E946F32BE016F5F7F4FC8010E94A2
:101EA0009B336C01CE0101960E940432CD2809F4C7
:101EB00076C061E575E0CE0101960E946F32BE01E9
:101EC0006F5F7F4FC8010E949B336C01CE0101966A
:101ED0000E940432CD2809F462C063E575E0CE01AA
:101EE00001960E946F32BE016F5F7F4FC8010E9452
:101EF0009B336C01CE0101960E940432CD2809F477
:101F00004EC065E575E0CE0101960E946F32BE01BC
:101F10006F5F7F4FC8010E949B336C01CE01019619
:101F20000E940432CD28D9F167E575E0CE01019613
:101F30000E946F32BE016F5F7F4FC8010E949B33CA
:101F40006C01CE0101960E940432CD2841F169E571
:101F500075E0CE0101960E946F32BE016F5F7F4F28
:101F6000C8010E949B336C01CE0101960E9404328D
:101F7000CD28A9F06BE575E0CE0101960E946F3285
:101F8000BE016F5F7F4FC8010E949B336C01CE0181
:101F900001960E940432CD2811F080E008C0B801FB
:101FA000C70106960E94BA32C70171DE81E026960B
:101FB0000FB6F894DEBF0FBECDBFDF91CF911F915A
:101FC0000F91FF90EF90DF90CF900895CF92DF9226
:101FD000EF92FF920F931F93CF93DF93CDB7DEB7AE
:101FE000C85DD1090FB6F894DEBF0FBECDBF8C011E
:101FF0008CEE95E09A838983C553DF4F198218824E
:10200000CB5CD040DB016D917C91CE010196F5DD7A
:102010004AE0BC01CE0101960E9498257C01FC019A
:1020200080819181892B09F450C06DE575E0C7016D
:102030000E941F26009769F0DC0114962D913C91B7
:1020400015972630310529F416968D919C91179796
:1020500002C088EE9EE06EE272E00E941F260097AA
:1020600019F004968EDD02C060E070E06115710524
:1020700099F06130710519F5F80180819181A3DC37
:10208000892B29F5D8018D919C91DC01ED91FC9172
:102090000190F081E02D0FC0F8018081918193DCE7
:1020A0000197A9F4D8018D919C91DC01ED91FC91EF
:1020B0000280F381E02D1995811109C006C062E606
:1020C00075E08CEE9EE00E94672D80E0FEC062E924
:1020D00075E0C7010E941F26009749F0FC0124818A
:1020E00035812630310519F48681978102C088EE4A
:1020F0009EE06EE272E00E941F26009719F004969F
:1021000040DD02C060E070E061157105D9F061301A
:10211000710589F5D80112968D919C911397DC0178
:10212000ED91FC910084F185E02D1995892B31F515
:10213000F80182819381DC01ED91FC910190F081A5
:10214000E02D15C0F80182819381DC01ED91FC91B5
:102150000084F185E02D1995019781F4F8018281C1
:102160009381DC01ED91FC910280F381E02D1995C2
:10217000811104C0AACF69E975E0A3CF62E975E0D7
:10218000C7010E941F26009749F0FC012481358178
:102190002630310519F48681978102C088EE9EE0D1
:1021A0006BEC75E00E941F26009721F00496E9DC95
:1021B0006B0102C0C12CD12CD80112968D919C913B
:1021C0001397DC01ED91FC910680F781E02D1995C4
:1021D000C816D90649F467ED75E0C7010E941F26AD
:1021E000009799F580E03AC0D8011296ED91FC91E4
:1021F00013970190F081E02DC480D58062E975E0ED
:10220000C7010E941F26009749F0FC0124813581F7
:102210002630310519F48681978102C088EE9EE050
:102220006BEC75E00E941F26009719F00496A9DC5C
:1022300002C060E070E0D80112968D919C911397D6
:10224000F60119958111C7CF40CF04969ADC21E0A1
:10225000672B682B692B09F420E0822FD8011D968B
:102260008C9363EE75E0C7010E941F26009719F05A
:10227000049687DC02C060E070E04AE0CE018D5237
:102280009F4F0E940333B8016A5F7F4FCE018D528A
:102290009F4F0E949B33892B91F0BE016D527F4F5F
:1022A000CE0183539F4F0E94CF32BE0163537F4FB5
:1022B000C80182DDCE0183539F4F0E940432CE01BC
:1022C0008D529F4F0E94043281E0C852DF4F0FB6FB
:1022D000F894DEBF0FBECDBFDF91CF911F910F915C
:1022E000FF90EF90DF90CF900895CF92DF92EF9222
:1022F000FF920F931F93CF93DF93EC016B010A8141
:102300001B81E880F980B801C7010E941F26FC01EB
:10231000009741F4C7010E94CD24FC01009779F099
:102320001383028384E090E095838483A60166276B
:1023300057FD6095762F4683578360877187CE015E
:10234000DF91CF911F910F91FF90EF90DF90CF9091
:1023500008952F923F924F925F926F927F928F9249
:102360009F92AF92BF92CF92DF92EF92FF920F9324
:102370001F93CF93DF93CDB7DEB7CA5DD1090FB6F8
:10238000F894DEBF0FBECDBF4C016B018CEE95E023
:102390009A838983C553DF4F19821882CB5CD04062
:1023A000CE0101960E9484255C01DC018D919C91F7
:1023B0000097E1F00E9484258C0162E975E0C50177
:1023C0000E941F26FC01009751F4C5010E94CD24F4
:1023D000FC01009781F022E935E03383228326E077
:1023E00030E0358324830683178305C048EEE42E4E
:1023F0004EE0F42E01C07801F501808191810097B3
:10240000E1F00E9484258C016DE575E0C5010E9414
:102410001F26FC01009751F4C5010E94CD24FC0148
:10242000009781F02DE535E03383228326E030E00C
:10243000358324830683178305C038EE632E3EE080
:10244000732E01C03801D60112968D919C9113977D
:10245000DC01ED91FC910084F185E02D19958E0150
:1024600003531F4FF801F182E0822EE2422E22E058
:10247000522E53824282BC01C80137DFD601129628
:102480008D919C911397DC01ED91FC910680F78171
:10249000E02D1995F801F182E0822BEC35E03383D1
:1024A0002283BC01C80121DFD6018D919C918BDA7A
:1024B000F8017182608253824282BC01C80115DF3B
:1024C000D6018D919C91DC01ED91FC910480F58108
:1024D000E02D19951B012C0168E572E0C3010E94F3
:1024E0001F26009751F4C3010E94CD24009789F064
:1024F00028E532E0FC013383228324E030E0DC0174
:1025000015963C932E931497FC01268237824086C1
:102510005186C60106960E9492346B017C0163EEDF
:1025200075E0C5010E941F26009761F4C5010E9455
:10253000CD24009781F023EE35E0DC0113963C9327
:102540002E93129724E030E0FC0135832483C68269
:10255000D782E086F186F8011382128282E797E043
:102560009183808380E99CE09583848387EC90E06D
:1025700097838683118610861092900CC952DF4F84
:1025800019830883C75DD040C752DF4F1982188274
:10259000C95DD040BE0169527F4FC5010E943D26F2
:1025A00060E97CE0C4010E946F32C401C652DF4F73
:1025B0000FB6F894DEBF0FBECDBFDF91CF911F9154
:1025C0000F91FF90EF90DF90CF90BF90AF909F90D2
:1025D0008F907F906F905F904F903F902F900895D5
:1025E000FC01718360835383428308950F931F938B
:1025F000CF93DF938C01C0E0D0E0F801828193811A
:10260000C817D9079CF4CE01880F991FD801ED9106
:10261000FC91E80FF91F80819181DC01ED91FC9123
:102620000190F081E02D19952196E7CFDF91CF91B0
:102630001F910F9108952F923F924F925F926F9248
:102640007F928F929F92AF92BF92CF92DF92EF9242
:10265000FF920F931F93CF93DF93CDB7DEB7CC5D7F
:10266000D1090FB6F894DEBF0FBECDBF4C01C552E5
:10267000DF4F79836883CB5DD0408CEE95E09A8301
:102680008983C553DF4F19821882CB5CD040CE01BD
:1026900001960E9484256C01A12CB12C8E0103535C
:1026A0001F4FC552DF4FE881F981CB5DD040828159
:1026B0009381A816B9060CF05EC0C552DF4FA88101
:1026C000B981CB5DD040ED91FC917501EE0CFF1C02
:1026D000EE0DFF1D808191810E941A091B012C01C2
:1026E000C552DF4FA881B981CB5DD040ED91FC91FF
:1026F000EE0DFF1D60817181C8010E942009F80163
:1027000060807180B301C6010E941F267C01009782
:1027100011F5C6010E94CD247C01009729F1D60154
:102720008D919C916114710469F0F3010190002076
:10273000E9F7AF014150510946195709B3010E9409
:10274000BC2502C080E090E0D70113969C938E9345
:102750001297892B49F089E090E0F70195838483F3
:102760002682378240865186C8010E940432BFEF1C
:10277000AB1ABB0A96CFD80113961C921E921297E1
:1027800082E797E011969C938E9388E59DE01596DD
:102790009C938E93149787EC90E017969C938E935E
:1027A000169719961C921E9218971092580DC9529E
:1027B000DF4F19830883C75DD040C752DF4F1982AE
:1027C0001882C95DD040BE0169527F4FC6010E9488
:1027D0003D2668E57DE0C4010E946F32C401C45209
:1027E000DF4F0FB6F894DEBF0FBECDBFDF91CF91A4
:1027F0001F910F91FF90EF90DF90CF90BF90AF901F
:102800009F908F907F906F905F904F903F902F9010
:10281000089581E008950F931F93CF93DF93CDB771
:10282000DEB72C970FB6F894DEBF0FBECDBF8C017C
:10283000FC01868197810E945620F8016481758190
:10284000CE0101960E946F32F80162817381CE0140
:1028500007960E946F32AE014F5F5F4FBE01695F06
:102860007F4FF801868197810E941021182FCE0199
:1028700007960E940432CE0101960E940432812FF5
:102880002C960FB6F894DEBF0FBECDBFDF91CF916F
:102890001F910F910895EF92FF920F931F93CF9383
:1028A000DF9300D000D0CDB7DEB78C017A01CE0126
:1028B00001960E946F329701442737FD4095542FAF
:1028C000BE016F5F7F4FF801868197810E941222BF
:1028D000182FCE0101960E940432812F26960FB642
:1028E000F894DEBF0FBECDBFDF91CF911F910F9146
:1028F000FF90EF900895FC01868197810C940E2340
:10290000FB0101900020E9F73197E61BF70B9F01CF
:1029100040E050E0FC01868197810C94DB22EF922D
:10292000FF920F931F939A01442737FD4095542F30
:1029300018EEE12E13E0F12E00E010E0FC0186819C
:102940009781B9D721E0672B682B692B09F420E028
:10295000822F1F910F91FF90EF900895FC0182EF5D
:1029600095E09183808373836283558344833783A7
:1029700026830895CF93DF93EC010E94F934685BBE
:102980007B40810991096D877E878F87988BDF91C6
:10299000CF9108952F923F924F925F926F927F92C4
:1029A0008F929F92AF92BF92CF92DF92EF92FF925F
:1029B0000F931F93CF93DF931F92CDB7DEB71C0108
:1029C0000E94F934F10185849684A784B0882B0194
:1029D0003C01481859086A087B0821853285213056
:1029E000310539F447EE842E43E0942EA12CB12C0E
:1029F00006C03FEC832E37E0932EA12CB12C481457
:102A000059046A047B0408F4BCC0F1016587768729
:102A10008787908B80E090E0A0ECBFE78083918374
:102A2000A283B38384839583A683B78360E0808584
:102A30000E94403761E0F10180850E940737F10173
:102A400081859285019739F462E170E080E090E041
:102A50000E94283504C080E293E00E945F3560E068
:102A6000F10180850E94073761E0F10180850E94B5
:102A700040372DEF922E0E940535762EF92DF170FC
:102A80008F2EAF2EBB24A7FCB0940E94053567198A
:102A90006B3518F081E090E02FC0F10180856983EB
:102AA0000E94753769818A159B0579F397FC07C0E9
:102AB000882029F0000F111F6F3108F00160FFE13D
:102AC0009F1639F08FE3981205C0780100E010E0FE
:102AD00001C068019394E0E59E12CDCF6D2D77275C
:102AE000AF2CB12C8E2D8C0D860F8F0D90E08017A2
:102AF000910731F082E090E0F1019487838741C033
:102B0000F10181859285019779F480E090E00E943F
:102B1000A038F1016483758386839783B50180E0D3
:102B200090E00E94A03825C0B60180E090E00E94AD
:102B3000A0382DEC3CEC4CEC5DE30E945639F101E1
:102B40006483758386839783C70197FF05C09F774A
:102B5000EE24FF24E81AF90AB701882777FD80954B
:102B6000982F0E94A2382DEC3CEC4CEC5DE30E94C7
:102B70005639F1016083718382839383F101148656
:102B800013860F90DF91CF911F910F91FF90EF90DF
:102B9000DF90CF90BF90AF909F908F907F906F907D
:102BA0005F904F903F902F9008950F931F93CF9376
:102BB000DF93EC018A0168875A874987DBDE012BA6
:102BC00069F482E090E09A878987CE01E3DE8B8505
:102BD0009C858130910511F49A878987DF91CF9187
:102BE0001F910F910895CF93DF93EC01D3DE6C8199
:102BF0007D818E819F81DF91CF910895CF93DF9367
:102C0000EC01C8DE688179818A819B81DF91CF9157
:102C1000089510928D0E81E080938B0E10928A0E93
:102C200061E084E10E94403761E085E10E94403725
:102C3000E9EBF0E080818E7F808380818D7F8083CF
:102C400088E48093B80085E48093BC000895413205
:102C500008F043C090918D0E9111FCCF91E09093BC
:102C60008D0E20938B0E2FEF2093200E1092650E69
:102C7000240F2093640E90938C0E90918C0E880FED
:102C8000892B80938C0E80918A0E813061F4109292
:102C90008A0E80918C0E8093BB008091BC0083FDD6
:102CA000F8CF85EC01C085EE8093BC0080918D0E3D
:102CB0008130E1F38091650E841710F44091650E28
:102CC00026E63EE0FB01D9018A2F821B841718F407
:102CD0008D918193F9CF842F089580E008950F930B
:102CE000413208F04AC090918D0E9111FCCF92E0D4
:102CF00090938D0E00938B0E9FEF9093200E109269
:102D0000650E4093640EFB0166E67EE0DB019A2FC0
:102D1000961B941718F491919D93F9CF10928C0EF5
:102D200090918C0E880F892B80938C0E80918A0E47
:102D3000813061F410928A0E80918C0E8093BB00DA
:102D40008091BC0083FDF8CF85EC01C085EE8093B7
:102D5000BC00222321F080918D0E8230E1F380911E
:102D6000200E8F3F61F08091200E803251F08091D3
:102D7000200E803341F483E007C081E005C080E08D
:102D800003C082E001C084E00F910895613298F49D
:102D900020918D0E243089F46093420EFC0184E46E
:102DA0009EE0DC012A2F281B261718F421912D9371
:102DB000F9CF80E0089581E0089582E0089585EDDF
:102DC0008093BC008091BC0084FDFCCF10928D0EDE
:102DD000089585EC8093BC0010928D0E08951F928B
:102DE0000F920FB60F9211240BB60F922F933F93B1
:102DF0004F935F936F937F938F939F93AF93BF9303
:102E0000EF93FF938091B900887F803609F49DC0CD
:102E100070F5883209F45CC090F4803109F455C033
:102E200038F4882309F4F3C0883009F44EC0F2C0A6
:102E3000883109F44DC0803209F45EC0EBC08034A3
:102E400009F469C050F4803309F456C0883309F09E
:102E5000E1C08093200EBDDFDDC0803509F44FC096
:102E6000883509F45DC0883409F0D4C0D2C08839EF
:102E700009F4C3C0A8F4883709F467C038F4883669
:102E800009F463C0803709F460C0C4C0883809F40D
:102E9000B4C0803909F45FC0803809F0BBC05BC0A2
:102EA000803B09F482C038F4803A09F466C0883A5D
:102EB00009F47BC0AFC0803C09F4A3C0883C09F48E
:102EC000A0C0883B09F486C0A5C080918C0E10C0BC
:102ED0009091650E8091640E981770F5E091650EE3
:102EE00081E08E0F8093650EF0E0EA59F14F80810A
:102EF0008093BB0085EC82C08093200E8AC0E09155
:102F0000650E81E08E0F8093650E8091BB00F0E02E
:102F1000EA59F14F80839091650E8091640E6AC0EA
:102F2000E091650E81E08E0F8093650E8091BB006D
:102F3000F0E0EA59F14F808380918B0E811169C0D6
:102F400081E080938A0E84EA5DC083E080938D0ED9
:102F50001092210ECFCF8091210E803208F04DC00B
:102F6000E091210E81E08E0F8093210E8091BB00B5
:102F7000F0E0EE5DF14F8083BDCF2BDF8091210E1D
:102F8000803230F4E091210EF0E0EE5DF14F1082DE
:102F90006091210E70E0E091860EF091870E82E242
:102FA0009EE019951092210E35C084E080938D0E1D
:102FB0001092430E1092420EE091880EF091890E0D
:102FC00019958091420E811105C081E08093420ED7
:102FD0001092440EE091430E81E08E0F8093430ED9
:102FE000F0E0EC5BF14F80818093BB009091430E49
:102FF0008091420E981708F47DCF85E88093BC003D
:1030000009C085EC8093BC0010928D0E03C0109215
:10301000200ED5DEFF91EF91BF91AF919F918F91DF
:103020007F916F915F914F913F912F910F900BBEC8
:103030000F900FBE0F901F9018958091BE0E90E0DC
:103040002091BF0E821B910908952091BF0E80919F
:10305000BE0E281750F4E22FF0E0E054F14F8081CB
:1030600090E02F5F2093BF0E08958FEF9FEF08959C
:10307000E091BF0E8091BE0EE81730F4F0E0E0540E
:10308000F14F808190E008958FEF9FEF08950895AC
:10309000CF92DF92EF92FF920F931F93CF93DF9324
:1030A0007C01CB018A0120919A0E222389F0EB0149
:1030B0006B01C40ED51ECC15DD0561F06991D701F9
:1030C000ED91FC910190F081E02DC7011995F3CFAE
:1030D000642F5CDEC801DF91CF911F910F91FF90AB
:1030E000EF90DF90CF900895CF93DF931F92CDB7ED
:1030F000DEB7698320919A0E2223D1F020919B0E96
:10310000203240F021E030E0FC013383228380E074
:1031100090E014C080919C0EE82FF0E0E356F14F50
:10312000998190838F5F80939C0E80939B0E04C047
:1031300061E0CE0101962ADE81E090E00F90DF9100
:10314000CF910895FC011382128248EE53E060E0B3
:1031500070E0448355836683778382E096E09183B1
:10316000808308951092BF0E1092BE0E10929C0E96
:1031700010929B0E4ECD81E080939A0E6093BD0E0F
:1031800010929C0E10929B0E0895F5CF0F93062F70
:1031900021E040919B0E6DE97EE08091BD0E9FDDA8
:1031A00010929C0E10929B0E10929A0E0F91089501
:1031B0008F929F92AF92BF92CF92DF92EF92FF9247
:1031C0000F931F93CF93DF93EC01F62ED42E48017B
:1031D0005901EE2009F1CFDF1E2D143008F013E065
:1031E0001150B8F0E881F98128E0129FB001112454
:1031F000A501940104C056954795379527956A9582
:10320000D2F7CA01B9010190F081E02DCE011995E4
:10321000E7CF60E0CE01BADF4D2D413208F040E249
:103220002C2D60EC7EE08F2D12DD1092BF0E80936E
:10323000BE0EDF91CF911F910F91FF90EF90DF9025
:10324000CF90BF90AF909F908F900895CF92EF92C4
:103250000F931F93C22EE12C00E010E09801A8DF2D
:103260001F910F91EF90CF90089521E0EFCF61E093
:103270008DCF8EE89EE066CFDC01ED91FC91119739
:103280003097C9F0E617F70749F4268537852D935F
:103290003C9308958617970731F0FC018685978542
:1032A0000097C1F708C0DB011E968D919C911F9776
:1032B00097878687089508950F931F93CF93DF9381
:1032C0008C01EB01D9DFD801ED91FC91119730977A
:1032D00019F4CD93DC9308C086859785009711F08B
:1032E000FC01FACFD787C6870E940535088119816E
:1032F0002A813B81601B710B820B930B6C837D8356
:103300008E839F831F861E86DF91CF911F910F9121
:103310000895CF92DF92EF92FF920F931F93CF9376
:10332000DF93EB010E9405356B017C014C815D81CF
:103330006E817F81088119812A813B81400F511F55
:10334000621F731FC416D506E606F70690F00C81BF
:103350001D812E813F814017510762077307D8F402
:103360000C811D812E813F81C016D106E206F30635
:1033700090F00C811D812E813F81C016D106E2069E
:10338000F306A8F40C811D812E813F81401751075F
:103390006207730760F0C886D986EA86FB86EC85EB
:1033A000FD85CE011995CC82DD82EE82FF82DF9110
:1033B000CF911F910F91FF90EF90DF90CF900895E4
:1033C0008C01F801C081D1812097D9F3BE01C801D9
:1033D000A0DF0E84DF85C02DF7CF80EE9EE0F0DF0A
:1033E000CF93DF93FC01E901A8EEB3E09A01AB01B2
:1033F0000E94753B6083718382839383D587C487E2
:10340000148215821682178217861686DF91CF9155
:1034100008951F93CF93DF93162FFC01C081D181B4
:10342000209779F08B81811308C0E881F9810190A0
:10343000F081E02D612FCE0119950C80DD81C02D2A
:10344000EFCFDF91CF911F9108951F920F920FB68A
:103450000F9211240BB60F922F933F934F935F93CC
:103460006F937F938F939F93AF93BF93EF93FF934C
:1034700060E082EE9EE0CDDFFF91EF91BF91AF91D2
:103480009F918F917F916F915F914F913F912F917C
:103490000F900BBE0F900FBE0F901F9018951F92AC
:1034A0000F920FB60F9211240BB60F922F933F93EA
:1034B0004F935F936F937F938F939F93AF93BF933C
:1034C000EF93FF9361E082EE9EE0A3DFFF91EF9127
:1034D000BF91AF919F918F917F916F915F914F912C
:1034E0003F912F910F900BBE0F900FBE0F901F902A
:1034F00018951F920F920FB60F9211240BB60F92D0
:103500002F933F934F935F936F937F938F939F93EB
:10351000AF93BF93EF93FF9362E082EE9EE079DF7B
:10352000FF91EF91BF91AF919F918F917F916F919B
:103530005F914F913F912F910F900BBE0F900FBE57
:103540000F901F901895CF93DF93EC01888199819C
:10355000DC01ED91FC910480F581E02D19951816A0
:10356000190654F488819981DC01ED91FC91068063
:10357000F781E02D1995EACFDF91CF910895CF9390
:10358000DF93EC01CB01BA01A9019983888326E07E
:103590000E949D2ACE01DF91CF91D5CF2F923F92ED
:1035A0004F925F926F927F928F929F92AF92BF9253
:1035B000CF92DF92EF92FF920F931F93CF93DF93FF
:1035C000CDB7DEB7A0970FB6F894DEBF0FBECDBF64
:1035D0009E878D87798F688F2C8B3D8B4E8B5F8B71
:1035E0001B8F0A8FBD8EAC8E8E01095F1F4F63EA61
:1035F00073E0C8010E946F32288D398D232B29F486
:1036000060E070E000E010E034C10E94F9346F87A0
:10361000788B898B9A8B0B8B1E8F0E94F9342F85A8
:10362000388949895A89621B730B840B950B6C1579
:103630007D058E059F0520F7AD85BE858D919C91FA
:10364000DC01ED91FC910480F581E02D19951816AF
:10365000190684F4ED85FE8580819181DC01ED9170
:10366000FC910680F781E02D1995682F8B899E8D3E
:103670000E945F336EE076E0CE0101960E946F32C9
:10368000BE016F5F7F4FC8010E944C345C01CE01C8
:1036900001960E940432BFEFAB16BB0609F4BDCF02
:1036A0003501E5E06E0E711CA3016AE3C8010E94BA
:1036B00014341C014C01AA2497FCA094BA2CFFEFEF
:1036C0008F169F06AF06BF0609F4A7CFA3016CE2D1
:1036D000C8010E9414347C019C01442737FD4095A9
:1036E000542F2F87388B498B5A8B2F3F8FEF3807FA
:1036F0004807580791F1281539054A055B056CF50F
:103700009701A301B801CE0101960E944F34CE016A
:1037100001960E9492346B8BCE0101960E94043276
:103720009B89953008F06CCFA7014F5F5F4F9101E7
:10373000B801CE0101960E944F34CE0101960E943D
:1037400092342B013C01CE0101960E9404321414E4
:10375000150416041704E4F053CF9101A301BE0130
:10376000695F7F4FCE0101960E944F34CE010196D2
:103770000E9492342B013C01CE0101960E9404323A
:1037800014141504160417040CF03ACFAFEFAB8BEA
:10379000730162018C899D89AE89BF898415950565
:1037A000A605B70510F46C017D010E94F9346C8BFD
:1037B0007D8B8E8B9F8B812C912C54010E94F93430
:1037C0002C893D894E895F89621B730B840B950B95
:1037D000683B7B408105910508F012CFAD85BE8521
:1037E0008D919C91DC01ED91FC910480F581E02D9F
:1037F0001995181619062CF48C149D04AE04BF04F8
:1038000010F18C149D04AE04BF04C1F68D859E8515
:103810009ADEEA8DFB8D309721F0408251826282E0
:1038200073822F85388949895A892F3F3F4F4F4FDF
:103830005F4F31F0AC8DBD8D109711F0EB89EC939B
:10384000B601870116C0AD85BE858D919C91DC01C6
:10385000ED91FC910680F781E02D1995E88DF98DA9
:10386000E80DF91D8083BFEF8B1A9B0AAB0ABB0AD8
:10387000B5CFCE0107966F8F78A30E9404326F8D6B
:1038800078A1C801A0960FB6F894DEBF0FBECDBFD9
:10389000DF91CF911F910F91FF90EF90DF90CF902C
:1038A000BF90AF909F908F907F906F905F904F9060
:1038B0003F902F900895AF92BF92CF92DF92EF92F8
:1038C000FF920F931F9367017801A12CB12C00E0A8
:1038D00010E064DE1F910F91FF90EF90DF90CF908A
:1038E000BF90AF9008954F925F926F927F928F92A8
:1038F0009F92AF92BF92CF92DF92EF92FF920F937F
:103900001F93CF93DF93EC015B014A0168017901BA
:1039100063EA73E00E946F320E94F9342B013C018C
:103920000E94F93464197509860997096C157D059B
:103930008E059F0520F5F50180819181DC01ED91D7
:10394000FC910480F581E02D1995181619068CF468
:10395000D5018D919C91DC01ED91FC910680F78160
:10396000E02D1995882339F3682FCE010E945F332B
:10397000E2CFB401CE010E944C34019689F2CE010F
:10398000DF91CF911F910F91FF90EF90DF90CF903B
:10399000BF90AF909F908F907F906F905F904F906F
:1039A00008952F923F924F925F926F927F928F92E3
:1039B0009F92AF92BF92CF92DF92EF92FF920F93BE
:1039C0001F93CF93DF93EC011B014A01590127019B
:1039D000380163EA73E00E946F320E94F9346B0190
:1039E0007C010E94F9346C197D098E099F096415C8
:1039F00075058605970550F5F10180819181DC01FF
:103A0000ED91FC910480F581E02D199518161906A9
:103A10008CF4D1018D919C91DC01ED91FC9106809B
:103A2000F781E02D1995882339F3682FCE010E9484
:103A30005F33E2CFB401CE010E944C34019631F4E1
:103A4000B501CE010E944C34019659F2CE01DF91AE
:103A5000CF911F910F91FF90EF90DF90CF90BF908B
:103A6000AF909F908F907F906F905F904F903F901E
:103A70002F9008952F923F924F925F926F927F9274
:103A80008F929F92AF92BF92CF92DF92EF92FF926E
:103A90000F931F93CF93DF93EC015B011A01490150
:103AA00063EA73E00E946F320E94F9342B013C01FB
:103AB0000E94F93464197509860997096C157D050A
:103AC0008E059F0580F5F50180819181DC01ED91E6
:103AD000FC910480F581E02D1995181619068CF4D7
:103AE000D5018D919C91DC01ED91FC910680F781CF
:103AF000E02D1995882339F3682FCE010E945F339A
:103B0000E2CFB101CE010E944C34019661F4B401C0
:103B1000CE010E944C34019631F4B801CE010E94CE
:103B20004C34019629F2CE01DF91CF911F910F9174
:103B3000FF90EF90DF90CF90BF90AF909F908F90CD
:103B40007F906F905F904F903F902F900895CF920D
:103B5000DF92EF92FF920F931F93CF93DF93CDB736
:103B6000DEB766970FB6F894DEBF0FBECDBF6C010F
:103B70007B0163EA73E0CE010D962B8B3C8B4D8B62
:103B80005E8B0E946F32B701CE0107960E94CF3242
:103B90002B893C894D895E8989019A01AE01495F73
:103BA0005F4FB601CE0101969EDEBE016F5F7F4F73
:103BB000CE010D960E94D732CE0101960E940432AA
:103BC000CE0107960E940432B701CE010D960E94E5
:103BD0004C347C01CE010D960E94043281E0EF202E
:103BE000E09409F480E066960FB6F894DEBF0FBE4D
:103BF000CDBFDF91CF911F910F91FF90EF90DF909C
:103C0000CF9008952F923F924F925F926F927F9242
:103C10008F929F92AF92BF92CF92DF92EF92FF92DC
:103C20000F931F93CF93DF93CDB7DEB762970FB695
:103C3000F894DEBF0FBECDBF2C013B014A01190134
:103C4000580163EA73E0CE010D960E946F32B30112
:103C5000CE0107960E94CF3297018601AE01495FDF
:103C60005F4FB201CE0101963EDEBE016F5F7F4F16
:103C7000CE010D960E94D732CE0101960E940432E9
:103C8000CE0107960E940432B301CE010D960E9428
:103C90004C340196B1F1B401CE010D960E944C3422
:103CA0002C01662457FC6094762CB101CE010D9650
:103CB0000E944C34EFEF4E165E066E067E0609F14A
:103CC0008F3FFFEF9F07E9F0F40124813581B301B5
:103CD000A201420F531F611D711D9C01BE01635F54
:103CE0007F4FCE0101960E944F34BE016F5F7F4F20
:103CF000C5010E94D732CE0101960E94043211E024
:103D000006C063EA73E0C5010E94ED3210E0CE0107
:103D10000D960E940432812F62960FB6F894DEBF92
:103D20000FBECDBFDF91CF911F910F91FF90EF900C
:103D3000DF90CF90BF90AF909F908F907F906F90CB
:103D40005F904F903F902F9008950F931F93CF93C4
:103D5000DF9300D000D0CDB7DEB78C01F4DB64E197
:103D600076E0F801808191810E94672D69E276E01A
:103D7000CE0101960E946F3228EE33E040E050E021
:103D8000BE016F5F7F4FC801E2DE182FCE010196A2
:103D90000E940432812F26960FB6F894DEBF0FBE24
:103DA000CDBFDF91CF911F910F9108950F931F9376
:103DB000CF93DF9300D000D0CDB7DEB78C01C3DB4B
:103DC00067E176E0F801808191810E94672D69E2C8
:103DD00076E0CE0101960E946F3228EE33E040E09B
:103DE00050E0BE016F5F7F4FC801B1DE182FCE01DA
:103DF00001960E940432812F26960FB6F894DEBFFA
:103E00000FBECDBFDF91CF911F910F910895CF923B
:103E1000DF92EF92FF92CF93DF93EC01C7DF88230D
:103E200041F160ED77E080E090E00E9428350E944B
:103E3000F9346B017C010E94F9346C197D098E09FB
:103E40009F09683B7B408105910598F4CE017DDF99
:103E5000882341F06CED75E080E090E00E94283509
:103E600081E008C064E670E080E090E00E942835C0
:103E7000E2CF80E0DF91CF91FF90EF90DF90CF9085
:103E800008958F929F92AF92BF92CF92DF92EF925E
:103E9000FF920F931F93CF93DF93CDB7DEB7689751
:103EA0000FB6F894DEBF0FBECDBF5C014B0163EAD5
:103EB00073E0CE0143960E946F328114910411F495
:103EC00010E046C0C5013FDB60E376E0F50180818C
:103ED00091810E94672D65E276E0CE0101960E94F5
:103EE0006F326BE376E0CE0107960E946F3269E293
:103EF00076E0CE010D960E946F3298EEC92E93E0C7
:103F0000D92EE12CF12C8E010D5E1F4F9E012F5FEB
:103F10003F4FAE01495F5F4FBE01635F7F4FC501F9
:103F200071DE182FCE010D960E940432CE01079645
:103F30000E940432CE0101960E940432112309F43A
:103F4000BFCFCE0143960E949234F401608311E00A
:103F5000CE0143960E940432812F68960FB6F894E2
:103F6000DEBF0FBECDBFDF91CF911F910F91FF90AC
:103F7000EF90DF90CF90BF90AF909F908F9008957B
:103F8000CF92DF92EF92FF920F931F93CF93DF9325
:103F9000CDB7DEB768970FB6F894DEBF0FBECDBFC2
:103FA0006C01162F63EA73E0CE0143960E946F32D4
:103FB000C601C9DA64E476E0F601808191810E944D
:103FC0004C2D4AE050E0612FF601808191810E94E2
:103FD000182E6FE476E0CE0107960E946F3269E2F8
:103FE00076E0CE010D960E946F3218EEE12E13E0BE
:103FF000F12E00E010E09E01295F3F4FAE01435FCC
:104000005F4FB601CE010196CCDCBE016F5F7F4FE2
:10401000CE0143960E94D732CE0101960E9404320F
:10402000CE010D960E940432CE0107960E94043202
:1040300069E276E0CE0107960E946F32BE01695FA9
:104040007F4FCE0143960E944C340196B1F46FE449
:1040500076E0CE0101960E946F32BE016F5F7F4F06
:10406000CE0143960E944C3411E0019609F410E011
:10407000CE0101960E94043201C011E0CE010796E4
:104080000E940432CE0143960E940432812F68962A
:104090000FB6F894DEBF0FBECDBFDF91CF911F9159
:1040A0000F91FF90EF90DF90CF900895FF920F93C4
:1040B0001F93CF93DF931F92CDB7DEB78C01BE0164
:1040C0006F5F7F4FDEDEF82E882369F089818330B1
:1040D00051F063E0C80154DF882321F0C80197DE66
:1040E000811101C0F12C8F2D0F90DF91CF911F9185
:1040F0000F91FF900895CF92DF92EF92FF920F936E
:104100001F93CF93DF93CDB7DEB768970FB6F894C0
:10411000DEBF0FBECDBF6C018B017A0163EA73E095
:10412000CE0143960E946F32C6010DDA69E576E052
:10413000F601808191810E944C2DB801F6018081A9
:1041400091810E943E2D64E676E0F60180819181A6
:104150000E944C2DB701F601808191810E943E2D75
:1041600066E676E0F601808191810E94672D68E61F
:1041700076E0CE0107960E946F3269E276E0CE01CA
:104180000D960E946F3210E1E12E17E2F12E00E051
:1041900010E09E01295F3F4FAE01435F5F4FB601C4
:1041A000CE010196FEDBBE016F5F7F4FCE014396CD
:1041B0000E94D732CE0101960E940432CE010D96A4
:1041C0000E940432CE0107960E94043269E276E032
:1041D000CE0101960E946F32BE016F5F7F4FCE010C
:1041E00043960E944C348C01CE0101960E94043209
:1041F000CE0143960E94043281E00F3F1F4F09F425
:1042000080E068960FB6F894DEBF0FBECDBFDF9199
:10421000CF911F910F91FF90EF90DF90CF90089575
:10422000EF92FF920F931F93CF93DF93CDB7DEB73B
:104230002C970FB6F894DEBF0FBECDBF8C017B016B
:10424000BA01CE0101960E94CF32B701CE01079686
:104250000E94CF32AE014F5F5F4FBE01695F7F4F5B
:10426000C80149DF182FCE0107960E940432CE0103
:1042700001960E940432812F2C960FB6F894DEBF6F
:104280000FBECDBFDF91CF911F910F91FF90EF90A7
:1042900008956F927F928F929F92AF92BF92CF922A
:1042A000DF92EF92FF920F931F93CF93DF93CDB7DF
:1042B000DEB76E970FB6F894DEBF0FBECDBF5C01C0
:1042C0004B013A016801790163EA73E0CE01499636
:1042D0000E946F32C50137D963EA76E0F50180812B
:1042E00091810E944C2DB401F501808191810E9441
:1042F0003E2D64E676E0F501808191810E944C2D8F
:10430000B301F501808191810E943E2D6AE876E03B
:10431000F501808191810E944C2D2AE030E0B701A7
:10432000A601F501808191810E942D2E61EB76E03E
:10433000CE0107960E946F3260E672E0CE010D96C4
:104340000E946F3269E276E0CE0143960E946F329E
:10435000E0E1CE2EE7E2DE2EE12CF12C8E01095FAA
:104360001F4F9E01235F3F4FAE014D5E5F4FB50172
:10437000CE0101967FDBBE016F5F7F4FCE01499674
:104380000E94D732CE0101960E940432CE0143969C
:104390000E940432CE010D960E940432C8010E9490
:1043A000043269E276E0C8010E946F32B801CE01A2
:1043B00049960E944C340196B1F461EB76E0CE014F
:1043C00001960E946F32BE016F5F7F4FCE0149960A
:1043D0000E944C3411E0019609F410E0CE010196E0
:1043E0000E94043201C011E0CE0107960E940432FF
:1043F000CE0149960E940432812F6E960FB6F89432
:10440000DEBF0FBECDBFDF91CF911F910F91FF9007
:10441000EF90DF90CF90BF90AF909F908F907F9064
:104420006F900895EF92FF920F931F93CF93DF93B6
:10443000CDB7DEB760970FB6F894DEBF0FBECDBF25
:104440007C01CE0101962D873E874F87588B0E94B5
:10445000CF3261EC76E0CE0107960E946F322D8557
:104460003E854F85588989019A01AE014F5F5F4FA4
:10447000BE01695F7F4FC7010CDFF82ECE010796A2
:104480000E940432CE0101960E9404328F2D609664
:104490000FB6F894DEBF0FBECDBFDF91CF911F9155
:1044A0000F91FF90EF9008954F925F926F927F92DD
:1044B000AF92BF92CF92DF92EF92FF920F931F9332
:1044C000CF93DF9300D000D0CDB7DEB78C017B0156
:1044D00029013A0138D866ED76E0D8018D919C919A
:1044E0000E944C2D2AE030E0B301A201F801808146
:1044F00091810E942D2E62EE76E0CE0101960E94FF
:104500006F3228E833E140E050E0BE016F5F7F4F3B
:10451000C8011DDBD82ECE0101960E940432DD2099
:1045200099F1C80110D85701C12CD12C7601C414BF
:10453000D504E604F70499F0D8018D919C91F5011A
:1045400061915F01DC01ED91FC910190F081E02D22
:104550001995BFEFCB1ADB0AEB0AFB0AE8CF64EE32
:1045600076E0CE0101960E946F3220E137E240E012
:1045700050E0BE016F5F7F4FC801E9DA182FCE010E
:1045800001960E94043201C010E0812F26960FB6DA
:10459000F894DEBF0FBECDBFDF91CF911F910F9179
:1045A000FF90EF90DF90CF90BF90AF907F906F9093
:1045B0005F904F90089578CF0F931F93CF93DF9321
:1045C00000D000D0CDB7DEB78C010E94A31A65E001
:1045D00077E0F801808191810E94672D69E276E0A1
:1045E000CE0101960E946F3228E833E140E050E0AE
:1045F000BE016F5F7F4FC801AADA182FCE01019666
:104600000E940432812F26960FB6F894DEBF0FBEAB
:10461000CDBFDF91CF911F910F910895CDCFFC01B8
:1046200020812D3051F024F42950223030F505C07E
:10463000203219F02F3219F008950196F0CFFC01C5
:1046400021812A3219F02F3279F008950296FC0167
:104650002081222321F32A3229F421812F3211F4DF
:104660000296DDCF0196F3CFFC013296CF01219166
:104670002223A9F22A30D1F7D2CF08950F931F93A6
:10468000CF93DF931F92CDB7DEB78C01FC018281FF
:1046900093816983C4DFFC0120816981261307C0EF
:1046A0000196BDDFF8019383828381E001C080E041
:1046B0000F90DF91CF911F910F910895CF93DF93CA
:1046C000EC01AA81BB814C813D812C91273219F4E8
:1046D000C42FD32F15C02232D9F3C42FD32FFD01FD
:1046E0002AC03C3559F4FD01329612963C91A3E65E
:1046F000B7E06C91611110C0332339F13993DF01B8
:10470000AE01FD01319611963C9111973323E9F0EA
:104710003213E7CF319619C0631303C011963C9151
:10472000EBCF1296E6CF322F3F7D31543A3148F429
:10473000299331962081AE0130ED320F3A30C0F32B
:10474000F2CF33ED320F323098F3DA011D92EC01E3
:104750002C813D81FB83EA83BD83AC83C901DF915A
:10476000CF910895BF92CF92DF92EF92FF920F9375
:104770001F93CF93DF9300D000D0CDB7DEB78C016D
:10478000FC0180819181C0D16C016BE7C80176DFAB
:10479000882309F43CC06DE7C80170DF811135C082
:1047A00086E0B82EC8018ADF7C01009781F16AE3B8
:1047B000C80164DF882359F11A821982BE016F5F34
:1047C0007F4FC80136D0882311F1B701C60137D217
:1047D000009739F4C601E1D00097C9F0FC01F382DB
:1047E000E282FE013196DC0114968B2D01900D9230
:1047F0008A95E1F76DE7C80141DF811106C06CE2DF
:10480000C8013CDF8111CECF02C0C60102C088EED4
:104810009EE026960FB6F894DEBF0FBECDBFDF91A7
:10482000CF911F910F91FF90EF90DF90CF90BF90AD
:104830000895FF920F931F93CF93DF93EC018B01A9
:104840008E81882309F443C081508E838A819B81A5
:10485000E6DE9B838A83FC0180818B3519F08B37E0
:1048600059F01AC0CE013AD0FC0120813181232BAE
:1048700049F125E030E009C0CE0174DFFC01208160
:104880003181232BF9F026E030E0F80131832083D9
:104890009383828381E017C0873231F091E08232C6
:1048A00009F090E0F92E02C0FF24F394CE0106DF58
:1048B000009741F0FF2019F022E030E0E6CF21E040
:1048C00030E0E3CF80E09E819F5F9E8301C080E067
:1048D000DF91CF911F910F91FF900895DF92EF929A
:1048E000FF920F931F93CF93DF9300D000D0CDB7EB
:1048F000DEB78C01FC0180819181F2D07C016BE5F7
:10490000C801BCDE882351F16DE5C801B7DE811115
:1049100023C096E0D92E1A821982BE016F5F7F4FA5
:10492000C80187DF8823D1F0C70159D00097B1F0C3
:10493000FE013196DC0112968D2D01900D928A9523
:10494000E1F76DE5C8019ADE811106C06CE2C8018D
:1049500095DE8111E0CF02C0C70102C084EE9EE067
:1049600026960FB6F894DEBF0FBECDBFDF91CF9174
:104970001F910F91FF90EF90DF900895DB0110974A
:1049800049F0ED91FC9111970190F081E02DBC016F
:10499000CD01199480E090E00895CF93DF93EC016E
:1049A000688179818AE090E0E9DF009729F0FC01D5
:1049B0001182108215821482EA81FB81309751F0B6
:1049C000208131812115310511F0F901F9CF918351
:1049D000808302C09B838A83DF91CF910895CF9318
:1049E000DF93EC016881798188E090E0C7DF009770
:1049F00029F0FC011182108213821282EA81FB816C
:104A0000309751F0208131812115310511F0F901E4
:104A1000F9CF9183808302C09B838A83DF91CF91FA
:104A20000895FC018085918526813781821793073F
:104A3000A0F4A481B5819C012F5F3F4F318720876F
:104A4000A80FB91F6C93A481B58180859185A80FAB
:104A5000B91F1C9281E090E0089580E090E00895F5
:104A6000CF93DF93EC0188819981DC01ED91FC917A
:104A70000190F081E02D19952A813B81280F391F83
:104A80003B832A83DF91CF9108950F931F93CF9398
:104A9000DF93EC018B016BE5C801E2DF0A80DB816B
:104AA000C02D209769F0B801CE0102961BD1099064
:104AB000D881C02D209721F06CE2C801D1DFF3CF5F
:104AC0006DE5C801DF91CF911F910F91C9CF109271
:104AD000E50E1092E40E1092E70E1092E60E089585
:104AE000CF93DF93EC01BC0184E090E047DFFC0151
:104AF000009729F0D183C0831382128202C084EE12
:104B00009EE0DF91CF910895CF93DF93EC01BC013C
:104B100084E090E033DFFC01009729F0D183C0836B
:104B20001382128202C088EE9EE0DF91CF91089539
:104B3000CF93DF93CDB7DEB727970FB6F894DEBFDC
:104B40000FBECDBF9A8389836115710519F483EA7D
:104B500093E001C0CB019C838B837E836D834F8365
:104B6000CE010196FFDD27960FB6F894DEBF0FBE8B
:104B7000CDBFDF91CF910895EF92FF920F931F93D6
:104B8000CF93DF931F921F92CDB7DEB78B014F5F9C
:104B90005F4FDC01ED91FC910190F081E02DBA01B5
:104BA00049835A8319957C0149815A81009719F0EC
:104BB000B8010E94063FC7010F900F90DF91CF917F
:104BC0001F910F91FF90EF900895FF920F931F9305
:104BD000CF93DF93EC018B016115710589F466E7D2
:104BE00077E08881998158D72A813B81280F391F26
:104BF0003B832A83DF91CF911F910F91FF900895FE
:104C000062E2CE012DDFF80161918F01662351F040
:104C1000EFE5F7E0F080FF20A1F39181961751F0C6
:104C20003296F8CF62E2CE01DF91CF911F910F91C2
:104C3000FF9016CF6CE5CE0113DF6F2DE2CF0F93FF
:104C40001F93CF93DF938B01FC01C281D381209707
:104C500059F0B8018A819B810E941A3F892B39F053
:104C60000990D881C02DF3CF80E090E001C0CE0143
:104C7000DF91CF911F910F9108950F931F93CF93C1
:104C8000DF938C01EB016BE7CE01EADEF8010281D4
:104C9000138101151105B1F0F80162817381CE0114
:104CA00094DF6AE3CE01DCDEBE01C80104961AD0AF
:104CB000F801008111810115110521F06CE2CE018E
:104CC000CFDEEACF6DE7CE01DF91CF911F910F913B
:104CD000C7CE1092E90E1092E80E1092EB0E1092D1
:104CE000EA0E0895CF93DF93FC01EB01208131811F
:104CF0002530310529F482819381DF91CF91C5CE92
:104D00002630310529F482819381DF91CF91B5CF8F
:104D10002230310531F462817381CE01DF91CF9170
:104D200054CF2130310519F4628173811DC02430C4
:104D3000310551F442815381648175812AE030E06C
:104D40008881998122D721C02330310589F482815D
:104D50009381A481B581892B8A2B8B2B19F065E374
:104D600075E002C06BE777E08881998195D60DC028
:104D70002730310584F0275030E04281538164812F
:104D80007581888199810E94232F2A813B81280F78
:104D9000391F3B832A83DF91CF9108950895CF92E5
:104DA000DF92EF92FF92FC0185899689481B590B8F
:104DB00061097109A389B4899A01AB010E94753B0D
:104DC0006B017C018FE0F594E794D794C7948A95A2
:104DD000D1F765857685882777FD8095982F2BE01C
:104DE000660F771F881F991F2A95D1F7278530896D
:104DF000442737FD4095542F2C0D3D1D4E1D5F1D42
:104E00000E94533B2C0D3D1D4E1D5F1DCA01B90173
:104E1000FF90EF90DF90CF9008951F93CF93DF9393
:104E20001F92CDB7DEB7162F67E770E08EE89EE0E1
:104E300049830E94C518612F8EE89EE00E94741875
:104E40004981642F8EE89EE00E9474188EE89EE0EF
:104E50000F90DF91CF911F910C943719CF93C62FEC
:104E600067E770E08EE89EE00E94C5186C2F8EE820
:104E70009EE00E9474188EE89EE00E94371967E752
:104E800070E08EE89EE00E94C51841E050E067E7C0
:104E900070E08EE89EE00E9435198EE89EE00E9448
:104EA0002518C82F8EE89EE00E9437198C2FCF91CD
:104EB0000895CF93DF93C62F67E770E08EE89EE0FA
:104EC0000E94C5186C2F8EE89EE00E9474188EE830
:104ED0009EE00E94371967E770E08EE89EE00E942E
:104EE000C51842E050E067E770E08EE89EE00E945F
:104EF00035198EE89EE00E942518D82F80E0C82F33
:104F00008EE89EE00E942518C82BD92B8EE89EE0E3
:104F10000E943719CE01DF91CF910895CF93DF938F
:104F2000EC01643008F063E068838EE89EE00E9444
:104F3000B21860EDCE0192DF853509F039C06AEA1A
:104F4000CE01B7DF9A8389836CEACE01B2DF9C83FE
:104F50008B836EEACE01ADDF9E838D8360EBCE0145
:104F6000A8DF9A8B898B62EBCE01A3DF9C8B8B8BA6
:104F700064EBCE019EDF9E8B8D8B66EBCE0199DFBD
:104F800098878F8368EBCE0194DF9A8789876AEBD5
:104F9000CE018FDF9C878B876CEBCE018ADF9E87EB
:104FA0008D876EEBCE0185DF988B8F8781E001C006
:104FB00080E0DF91CF910895CF93DF93EC014EE233
:104FC00064EF2BDF65E070E080E090E00E94283520
:104FD00066EFCE01DF91CF916CCFCF92DF92EF924F
:104FE000FF92CF93DF93EC0148814295440F440F29
:104FF000407C4C5C64EF11DF8881811105C065E065
:1050000070E080E090E012C0813029F468E070E048
:1050100080E090E00BC0823029F46EE070E080E028
:1050200090E004C06AE170E080E090E00E942835E2
:1050300066EFCE013EDF6C01E12CF12CFE2CED2C55
:10504000DC2CCC2468EFCE0109DFA7019601282BC8
:10505000CA01B901488128E030E0241B310904C0AD
:1050600096958795779567952A95D2F7DF91CF9199
:10507000FF90EF90DF90CF9008952F923F924F9244
:105080005F926F927F928F929F92AF92BF92CF92D8
:10509000DF92EF92FF920F931F93CF93DF93CDB7E1
:1050A000DEB72A970FB6F894DEBF0FBECDBF9A8742
:1050B000898782DF8C0189859A858FDF6D837E8366
:1050C0008F839887A80160E070E089859A8567DE04
:1050D0004B015C0180EA881A8FE0980AA108B108A8
:1050E000A5019401C501B4010E94223B2B013C01A2
:1050F0000CE075946794579447940A95D1F7A98565
:10510000BA8511962D903C9012971C9115960D9092
:10511000BC91A02D0E947F3B6B017C018DE0F5943A
:10512000E794D794C7948A95D1F7E985FA85A78142
:10513000B085A30192010E947F3BBB2797FDB095EC
:10514000AB2FC80ED91EEA1EFB1EF2E0CF0ED11CFB
:10515000E11CF11C32E0F594E794D794C7943A959A
:10516000D1F780E8D80EE11CF11CE985FA85A18908
:10517000B289A70196010E94753BDC01CB014FE08B
:10518000B695A795979587954A95D1F789839A8380
:10519000AB83BC836101EE24D7FCE094FE2C52E08B
:1051A000CC0CDD1CEE1CFF1C5A95D1F7A185B285F5
:1051B000A30192010E947F3B2B013C016BE075949F
:1051C0006794579447946A95D1F7A381B481A50158
:1051D00094010E947F3BEBE09595879577956795C5
:1051E000EA95D1F7460E571E681E791EC40CD51CD1
:1051F000E61CF71C012E04C0CC0CDD1CEE1CFF1CB1
:105200000A94D2F792E0C90ED11CE11CF11CC7012F
:10521000B60124E030E040E050E00E94533B8D8135
:105220009E81AF81B885821B930BA40BB50B9C01AB
:10523000AD0160E573EC80E090E004C09695879541
:10524000779567951A95D2F70E94223B97FD0DC07E
:10525000660F771F881F991F29813A814B815C81D6
:105260000E94313B49015A010CC029813A814B818E
:105270005C810E94313B49015A01880C991CAA1C8F
:10528000BB1C9927B7FC9A958B2D7A2D692D9B0114
:10529000AC010E94223B9B01AC01AEEDBBE00E9441
:1052A000753B6C01FF24D7FCF094EF2CA3E4B3EE24
:1052B000A50194010E94813BBB2797FDB095AB2FC0
:1052C000C80ED91EEA1EFB1E9FECC90E9EE0D91E19
:1052D000E11CF11CA4E0F594E794D794C794AA9537
:1052E000D1F7C80CD91CEA1CFB1CC701B6012A96D1
:1052F0000FB6F894DEBF0FBECDBFDF91CF911F91E7
:105300000F91FF90EF90DF90CF90BF90AF909F9064
:105310008F907F906F905F904F903F902F90089567
:10532000FC01818D228D90E0805C9F4F821B910952
:105330008F7399270895FC01918D828D981731F014
:10534000828DE80FF11D858D90E008958FEF9FEF1E
:105350000895FC01918D828D981761F0828DDF0197
:10536000A80FB11D5D968C91928D9F5F9F73928F58
:1053700090E008958FEF9FEF08958EE59BE2892BD3
:1053800039F080E090E0892B19F098D1811123C089
:1053900089E09CE2892B39F080E090E0892B19F0BC
:1053A00038D281111BC084EB9CE2892B39F080E05C
:1053B00090E0892B19F0D8D2811113C080E090E0E1
:1053C000892BA1F080E090E0892B81F00E94000001
:1053D00081110AC008950E940000DACF0E940000E7
:1053E000E2CF0E940000EACF0C9400000895FC0177
:1053F000848DDF01A80FB11DA35ABF4F2C91848D5E
:1054000090E001968F739927848FA689B7892C9392
:10541000A089B1898C9180648C93938D848D98132D
:1054200006C00288F389E02D80818F7D80830895F6
:10543000CF93DF93EC01888D8823C1F0EA89FB8943
:10544000808185FD05C0A889B9898C9186FD0EC033
:105450000FB607FCF5CF808185FFF2CFA889B98907
:105460008C9185FFEDCFCE01C2DFE8CFDF91CF91E8
:105470000895CF92DF92FF920F931F93CF93DF9304
:105480001F92CDB7DEB76C0181E0D60158968C93A0
:1054900058975B969C915B975C968C915C97981360
:1054A00007C05096ED91FC915197808185FD2DC0EC
:1054B000F601038D10E00F5F1F4F0F731127F02EC1
:1054C000F601848DF81210C00FB607FCF9CFD60193
:1054D0005096ED91FC915197808185FFF1CFC601E7
:1054E000698385DF6981ECCF838DE80FF11DE35A75
:1054F000FF4F6083D6015B960C935B975296ED91BC
:10550000FC915397808180620CC0D6015696ED9134
:10551000FC91579760835096ED91FC915197808153
:105520008064808381E090E00F90DF91CF911F91A4
:105530000F91FF90DF90CF900895BF92CF92DF92AE
:10554000EF92FF92CF93DF93EC016A017B01B22EC1
:10555000E889F98982E08083411581EE5807610569
:105560007105A1F060E079E08DE390E0A70196017C
:105570000E94313B21503109410951095695479507
:1055800037952795211580E1380798F0E889F98942
:10559000108260E874E88EE190E0A70196010E9415
:1055A000313B2150310941095109569547953795AD
:1055B0002795EC85FD853083EE85FF852083188E49
:1055C000EC89FD89B082EA89FB89808180618083D2
:1055D000EA89FB89808188608083EA89FB898081F0
:1055E00080688083EA89FB8980818F7D8083DF9159
:1055F000CF91FF90EF90DF90CF90BF9008951F92D2
:105600000F920FB60F9211240BB60F922F938F9318
:105610009F93EF93FF93E091FC0EF091FD0E80813C
:10562000E091020FF091030F82FD12C090818091F2
:10563000050F8F5F8F732091060F821751F0E09155
:10564000050FF0E0E451F14F958F8093050F01C0F5
:105650008081FF91EF919F918F912F910F900BBEC1
:105660000F900FBE0F901F9018951F920F920FB6BC
:105670000F9211240BB60F922F933F934F935F938A
:105680006F937F938F939F93AF93BF93EF93FF930A
:105690008CEE9EE0ACDEFF91EF91BF91AF919F91B8
:1056A0008F917F916F915F914F913F912F910F90CB
:1056B0000BBE0F900FBE0F901F9018958CEE9EE0C2
:1056C0002FDE21E0892B09F420E0822F089510922B
:1056D000EF0E1092EE0E88EE93E0A0E0B0E0809323
:1056E000F00E9093F10EA093F20EB093F30E85E8B6
:1056F00097E09093ED0E8093EC0E85EC90E0909304
:10570000F90E8093F80E84EC90E09093FB0E80935A
:10571000FA0E80EC90E09093FD0E8093FC0E81ECED
:1057200090E09093FF0E8093FE0E82EC90E09093B9
:10573000010F8093000F86EC90E09093030F80930D
:10574000020F1092050F1092060F1092070F109281
:10575000080F08951F920F920FB60F9211240BB6E7
:105760000F922F938F939F93EF93FF93E091990F55
:10577000F0919A0F8081E0919F0FF091A00F82FD30
:1057800012C090818091A20F8F5F8F732091A30F21
:10579000821751F0E091A20FF0E0E757F04F958F9C
:1057A0008093A20F01C08081FF91EF919F918F9113
:1057B0002F910F900BBE0F900FBE0F901F9018955A
:1057C0001F920F920FB60F9211240BB60F922F93C8
:1057D0003F934F935F936F937F938F939F93AF9379
:1057E000BF93EF93FF9389E89FE001DEFF91EF9174
:1057F000BF91AF919F918F917F916F915F914F91E9
:105800003F912F910F900BBE0F900FBE0F901F90E6
:10581000189589E89FE084DD21E0892B09F420E0D8
:10582000822F089510928C0F10928B0F88EE93E0C8
:10583000A0E0B0E080938D0F90938E0FA0938F0F18
:10584000B093900F85E897E090938A0F8093890F2B
:105850008DEC90E09093960F8093950F8CEC90E0F8
:105860009093980F8093970F88EC90E090939A0F05
:105870008093990F89EC90E090939C0F80939B0FFD
:105880008AEC90E090939E0F80939D0F8EEC90E0B9
:105890009093A00F80939F0F1092A20F1092A30FCE
:1058A0001092A40F1092A50F08951F920F920FB699
:1058B0000F9211240BB60F922F938F939F93EF9318
:1058C000FF93E0913610F09137108081E0913C1009
:1058D000F0913D1082FD12C0908180913F108F5F4A
:1058E0008F7320914010821751F0E0913F10F0E04B
:1058F000EA5DFF4E958F80933F1001C08081FF913C
:10590000EF919F918F912F910F900BBE0F900FBE33
:105910000F901F9018951F920F920FB60F9211249F
:105920000BB60F922F933F934F935F936F937F9399
:105930008F939F93AF93BF93EF93FF9386E290E192
:1059400056DDFF91EF91BF91AF919F918F917F9124
:105950006F915F914F913F912F910F900BBE0F90E0
:105960000FBE0F901F90189586E290E1D9DC21E0E0
:10597000892B09F420E0822F0895109229101092AB
:10598000281088EE93E0A0E0B0E080932A10909376
:105990002B10A0932C10B0932D1085E897E09093D6
:1059A00027108093261085ED90E09093331080931C
:1059B000321084ED90E0909335108093341080ED98
:1059C00090E0909337108093361081ED90E09093A3
:1059D00039108093381082ED90E090933B108093C3
:1059E0003A1086ED90E090933D1080933C10109219
:1059F0003F101092401010924110109242100895E2
:105A0000CF92DF92EF92FF920F931F93CF93DF938A
:105A10007C016A01EB0100E010E00C151D0571F03E
:105A20006991D701ED91FC910190F081E02DC701C2
:105A30001995892B19F00F5F1F4FEFCFC801DF9128
:105A4000CF911F910F91FF90EF90DF90CF9008952D
:105A50006115710581F0DB010D900020E9F7AD01C2
:105A600041505109461B570BDC01ED91FC9102801E
:105A7000F381E02D199480E090E00895DC01ED9130
:105A8000FC91DB0114964D915C9115976D917C9181
:105A90000280F381E02D1994DBCFDC01ED91FC91C4
:105AA0000190F081E02D199461EA73E0D1CF0F935A
:105AB0001F93CF93DF93EC01E1DF8C01CE01F4DF84
:105AC000800F911FDF91CF911F910F9108950F9338
:105AD0001F93CF93DF93EC01BBDF8C01CE01E4DF9A
