:100000007FC100000C94A12F0C94CC2F0C94F72FDF
:100010000C9422300C944D300C9478300C94A33016
:100020000C94CE300C942A190C9454190C947E190B
:1000300098C100000C94A92E94C1000092C1000048
:1000400090C100008EC100008CC100008AC1000078
:1000500088C1000086C1000084C100000C949B335D
:1000600080C100000C94042A0C943A2A7AC1000042
:1000700078C1000076C1000074C1000072C10000A8
:1000800070C100006EC100006CC100006AC10000B8
:100090000C94AF2A0C94E52A64C100000C94F4156A
:1000A00060C100005EC100005CC100005AC10000D8
:1000B00058C1000056C1000054C1000052C10000E8
:1000C00050C100004EC100004CC100000C945A2BDE
:1000D0000C94902B46C1000044C1000042C10000B6
:1000E00040C10000542F1E2F262F322F3F2F602F8C
:1000F0006D2F912F872F892F8B2F8D2F932F952F3A
:10010000003505350A3514351E3597352835303517
:10011000383542354C35563565356F359735793537
:1001200083358D35B835BB35AA35AE35B435F235A6
:10013000BF35C335C935CD35D135D735DB35DF359D
:10014000F235E535E935ED3507634236B79BD8A77B
:100150001A39685618AEBAAB558C1D3CB7CC5763EC
:10016000BD6DEDFD753EF6177231BF000000803F9A
:1001700008000000BE922449123EABAAAA2ABECDB6
:10018000CCCC4C3E00000080BEABAAAAAA3E000028
:100190000000BF000000803F000000000008417820
:1001A000D3BB4387D1133D190E3CC3BD4282AD2B57
:1001B0003E68EC8276BED98FE1A93E4C80EFFFBE4F
:1001C00001C4FF7F3F00000000000200000A0B0294
:1001D000090C0D0E080703040100000000000000D8
:1001E000000000000000000000000000000000000F
:1001F00000000000000000121110000000000000CC
:1002000000000000000000000000000000000000EE
:100210000001021020200808102040102040800219
:10022000010201080402010102040810204080803C
:1002300040201008040201800402018040201008C0
:100240000402010804020101020408102040800198
:100250000204081020408005050505070508080868
:1002600008020202020A0A08080404040401010147
:10027000010101010103030303030303030407074F
:10028000070C0C0C0C0C0C0C0C02020202060606ED
:1002900006060606060B0B0B0B0B0B0B0B000020C8
:1002A000002300260029002C002F0032000001004E
:1002B0000003010601090100002200250028002B8F
:1002C000002E003100340002010000050108010B7E
:1002D0000100002100240027002A002D00300033F7
:1002E0000001010000040107010A0100FC02E30B08
:1002F0003E186C246E256C2A172BC22BE103F40BDD
:1003000011241FBECFEFD1E2DEBFCDBF00E00CBF96
:1003100017E0A0E0B2E0E2E9FDE700E00BBF02C0B9
:1003200007900D92AA3AB107D9F720E1AAEAB7E0FF
:1003300001C01D92AE3DB207E1F712E0CCEFD2E072
:1003400000E006C022970109FE010BBF0E94713A2E
:10035000CC3ED10780E00807A9F70E948C330C94AB
:10036000B83E4ECE8DE898E00E943B0D019721F4F7
:100370008DE898E00C94130D08958BEE97E00C94A3
:10038000FB1180E00E947A2F789441E050E061EC0C
:1003900071E080E00C94092FCF93DF93CDB7DEB7E7
:1003A0002C970FB6F894DEBF0FBECDBF81E00E9440
:1003B0007A2F789461EF7EE0CE0107960E94452E59
:1003C0006EE272E0CE0107960E948532882339F0F2
:1003D00068E778E0CE0101960E94B9100EC062E392
:1003E00072E0CE0107960E948532882391F06BEE71
:1003F00077E0CE0101960E942012BE016F5F7F4F11
:1004000081EF9EE00E94432CCE0101960E94F930BC
:1004100033C066E372E0CE0107960E9485328823DE
:1004200019F06AE372E024C06EE372E0CE01079631
:100430000E948532882329F0CE0101960E94960BF6
:10044000DCCF62E472E0CE0107960E9485328823F9
:1004500029F08DE898E00E94340D0EC060E070E055
:10046000CE0107960E948532811106C066E472E0D3
:1004700081EF9EE00E94512C41E050E06CEC71E075
:1004800081E00E94092FCE0107960E94F9302C9638
:100490000FB6F894DEBF0FBECDBFDF91CF910895A8
:1004A000CF93DF9300D000D0CDB7DEB741E050E06E
:1004B00068EE74E084E00E94092F41E050E06CECAB
:1004C00071E081E00E94092F41E050E061EC71E0B1
:1004D00080E00E94092F26E040E051EE60E070E0ED
:1004E00081EF9EE00E94A2296BEC77E085EE9EE012
:1004F0000E9461186BEA77E085EE9EE00E94611829
:100500006CE472E0CE0101960E946431CE01019646
:1005100077D7CE0101960E94F93026960FB6F8944F
:10052000DEBF0FBECDBFDF91CF9108951F93CF9354
:10053000DF9300D000D0CDB7DEB7BC01CE0101966D
:100540000E94C431BE016F5F7F4F8BED97E087D370
:10055000182FCE0101960E94F9301123A9F16AE506
:1005600072E0CE0101960E946431CE01019648D717
:10057000CE0101960E94F9308BED97E095D2BC0137
:10058000CE0101960E946431BE016F5F7F4F88E704
:1005900098E00E94280F182FCE0101960E94F93092
:1005A000112379F062E872E0CE0101960E94643175
:1005B000CE01019625D7CE0101960E94F93081E047
:1005C00011C06EE972E002C062EB72E0CE010196EA
:1005D0000E946431CE01019613D7CE0101960E948C
:1005E000F93080E026960FB6F894DEBF0FBECDBF7F
:1005F000DF91CF911F910895CF93DF9300D000D06A
:10060000CDB7DEB78BE998E050D68BE998E09093B0
:1006100096088093950864E070E05FD69093980800
:100620008093970884E090E00E94993390939A0811
:100630008093990845E958E065E070E08DE898E01E
:100640000E94400C42E350E066E070E085E898E0EC
:100650000E94ED0D20E031EE40E050E06EE87FE0DA
:1006600081E898E00E948A0D21E838E045E858E0EA
:100670006DE878E088E798E00E94660E65ED72E02C
:10068000CE0101960E94643146E350E0BE016F5FE7
:100690007F4F86E698E0D9D4CE0101960E94F930CA
:1006A00068ED72E0CE0101960E94643147E350E0AC
:1006B000BE016F5F7F4F8CE498E00AD5CE010196B2
:1006C0000E94F9306CED72E0CE0101960E94643117
:1006D00044E050E0BE016F5F7F4F8FE298E08CD323
:1006E000CE0101960E94F93068EE72E0CE010196CB
:1006F0000E94643144E050E0BE016F5F7F4F82E1B1
:1007000098E01DD4CE0101960E94F93061EF72E0AD
:10071000CE0101960E946431BE016F5F7F4F8FEE64
:1007200097E0B8D3CE0101960E94F93045E050E041
:1007300066E072E08BEE97E00E94F51120E031EE6A
:1007400040E050E06BE270E189EE97E00E94C4194E
:1007500029EE37E04AEF52E0BA0181EE97E00E94BD
:10076000B31321EE37E040E550E064E073E08BED39
:1007700097E092D122EB31E048EE53E060E070E088
:100780008BEC97E00E94F5182DEB31E048E853E13F
:1007900060E070E08BEB97E00E94F5182FE034E00A
:1007A00048EB5BE060E070E08BEA97E00E94F518B0
:1007B00026960FB6F894DEBF0FBECDBFDF91CF9166
:1007C0000895CF93DF93C2E8D3E0D093F007C093AE
:1007D000EF0785EF97E00E94F930D0931308C0939C
:1007E000120888E198E00E94F930D0933008C09355
:1007F0002F0885E398E00E94F930D0934D08C0930C
:100800004C0882E598E00E94F930D0936708C093C5
:1008100066088CE698E0DF91CF910C94F9301F9335
:10082000CF93DF93CDB7DEB768970FB6F894DEBFEE
:100830000FBECDBF80E00E947A2F81EE97E00E942C
:100840000E13882309F497C088E798E00E94B60E3B
:10085000811112C061E088E798E00E94750E61E1A5
:1008600073E0CE0101960E946431CE010196C8D595
:10087000CE0101960E94F9308091AA076BEE77E0D5
:10088000882309F43FC0CE0107960E94201268E732
:1008900078E0CE0143960E94B91063E273E0CE0186
:1008A0000D960E946431BE016D5E7F4FCE010D96A4
:1008B0000E945C3262E673E00E946D32BE01695FA5
:1008C0007F4F0E945C32BC01CE0101960E94C43170
:1008D000CE0101962BDE182FCE0101960E94F93031
:1008E000CE010D960E94F930CE0143960E94F93058
:1008F000CE0107960E94F930112309F458C01092D6
:10090000AA0755C0CE0107960E94201268E778E03A
:10091000CE0143960E94B91065E473E0CE010D96B6
:100920000E946431BE016D5E7F4FCE010D960E9424
:100930005C3262E673E00E946D32BE01695F7F4FF8
:100940000E945C32BC01CE0101960E94C431CE01EE
:100950000196ECDDCE0101960E94F930CE010D9694
:100960000E94F930CE0143960E94F930CE010796DD
:100970000E94F9301CC088E798E00E94B60E8823D8
:1009800091F064E673E0CE0101960E946431CE01DD
:10099000019636D5CE0101960E94F93060E088E7D5
:1009A00098E00E94750E81EE97E00E94101341E0DE
:1009B00050E061EC71E080E00E94092F68960FB66C
:1009C000F894DEBF0FBECDBFDF91CF911F91089588
:1009D0001F93CF93DF93CDB7DEB72C970FB6F89464
:1009E000DEBF0FBECDBF84E00E947A2F789461E80D
:1009F00078E0CE0107960E943F0D66E773E0CE01D6
:100A000001960E946431BE016F5F7F4FCE01079651
:100A10000E94C832182FCE0101960E94F93011238E
:100A200031F188E798E00E94710E892B81F48DE8FE
:100A300098E053D764E670E085E898E00E94D30D13
:100A400085E898E00E949F0D61E070E009C08DE8A4
:100A500098E077D785E898E00E94BA0D60E070E0F2
:100A600088E798E00E94B90E81E08093AA0741E0F0
:100A700050E068EE74E084E00E94092FCE010796F2
:100A80000E94F9302C960FB6F894DEBF0FBECDBF92
:100A9000DF91CF911F910895FC0173836283558389
:100AA000448331832083089585EA98E00895EF9286
:100AB000FF920F931F93CF93DF93CDB7DEB7689765
:100AC0000FB6F894DEBF0FBECDBF8B0164E873E0B4
:100AD000CE0143960E9464316CE873E0CE010D961E
:100AE0000E946431B801CE0107960E946431BE01B4
:100AF000635F7F4FCE0107960E9438337C01BE01B1
:100B00006D5E7F4FCE0107960E9438334F89588D16
:100B1000480F591F9701BE01695F7F4FCE010196B3
:100B20000E943B33BE016F5F7F4FCE0107960E944C
:100B3000CC31CE0101960E94F930F80101900020DD
:100B4000E9F7AF0141505109401B510B20E030E063
:100B5000B801CE0107960E94D632CE0107960E94B8
:100B6000F930CE010D960E94F930CE0143960E94D5
:100B7000F93081E068960FB6F894DEBF0FBECDBFA6
:100B8000DF91CF911F910F91FF90EF900895EF9219
:100B9000FF920F931F93CF93DF93CDB7DEB7649788
:100BA0000FB6F894DEBF0FBECDBF7B018A01FC01FA
:100BB00062817381CE0101962B8B3C8B0E94643144
:100BC00062E973E0CE0107960E946431B701CE015D
:100BD00007960E945C3267E973E00E946D32BE01A5
:100BE0006F5F7F4F0E945C3269EA73E00E946D3252
:100BF000BC01CE010D960E94C431CE0107960E9421
:100C0000F930CE0101960E94F930E989FA893196CE
:100C10002B89422F3C89532FE417F5070CF4AF01C1
:100C200020E030E0B801CE010D960E94D63264E695
:100C300070E080E090E00E941434CE010D960E9496
:100C4000F930C80164960FB6F894DEBF0FBECDBF71
:100C5000DF91CF911F910F91FF90EF900895CF9268
:100C6000DF92EF92FF920F931F93CF93DF9300D009
:100C700000D0CDB7DEB78C016B01DC018D919C916A
:100C8000DC01ED91FC910280F381E02D1995882320
:100C900009F46BC0F80180819181DC01ED91FC9138
:100CA000D80114964D915C91159712966D917C9197
:100CB00013970480F581E02D1995882309F43DC030
:100CC000D801ED91FC910190F081E02DE084F18458
:100CD000B601CE0101960E94C43124EF31E049E90A
:100CE0005AE0BE016F5F7F4FC80151DFBC01F801C0
:100CF00080819181F7011995CE0101960E94F9300A
:100D0000D8018D919C91DC01ED91FC910284F385D9
:100D1000E02D44EF51E065EA78E01995F801808113
:100D20009181DC01ED91FC910680F781E02D199510
:100D300065EA78E0C801BBDE26C06EEA73E0CE014A
:100D400001960E946431CE0101965AD3CE010196DC
:100D50000E94F930F80180819181DC01ED91FC91D4
:100D60000190F081E02D19950DC061ED73E0CE0189
:100D700001960E946431CE01019642D3CE010196C4
:100D80000E94F93080E026960FB6F894DEBF0FBEC1
:100D9000CDBFDF91CF911F910F91FF90EF90DF902A
:100DA000CF9008950F931F93CF93DF93EC018C01A5
:100DB000045F1F4F40E050E064E0C8010E94DA1475
:100DC0008D899E89019719F468EE73E002C060ED89
:100DD00077E0882777FD8095982F0E941434C8010A
:100DE0000E9403156A837B838C839D8381E0DF915E
:100DF000CF911F910F910895EF92FF920F931F9340
:100E0000CF93DF93EC017B0182E893E099838883A1
:100E10008E010A5F1F4F6DEA73E0C8010E946431C2
:100E20008DEF93E099838883B701C8010E94AF31A9
:100E30001A821B821C821D82DF91CF911F910F911C
:100E4000FF90EF9008950F931F93CF93DF93EC01E2
:100E50008C01045F1F4F63E0C8010E949326C80104
:100E60000E9442270E948E3720E836EE45EC57E478
:100E70000E94F33620E030E04EE354E40E94423812
:100E80006A837B838C839D8381E0DF91CF911F9167
:100E90000F910895EF92FF920F931F93CF93DF93DB
:100EA000EC017B0182E893E0998388838E010A5FDD
:100EB0001F4F6DEA73E0C8010E94643183E094E043
:100EC00099838883CE010C960E94D325B701C8016F
:100ED0000E94AF311A821B821C821D82DF91CF914A
:100EE0001F910F91FF90EF9008950F931F93CF9351
:100EF000DF93EC018C01045F1F4F40E050E064E0A1
:100F0000C8010E94DA148D899E89019719F468EE50
:100F100073E002C060ED77E0882777FD8095982F19
:100F20000E941434C8010E94F8146A837B838C8366
:100F30009D8381E0DF91CF911F910F910895EF92F2
:100F4000FF920F931F93CF93DF93EC017B0182E815
:100F500093E0998388838E010A5F1F4F6DEA73E0E7
:100F6000C8010E94643189E094E099838883B701C5
:100F7000C8010E94AF311A821B821C821D82DF9140
:100F8000CF911F910F91FF90EF900895CF92DF9234
:100F9000EF92FF92CF93DF93EC0188890E94B834DF
:100FA000BC01882777FD8095982F0E948E3720E01E
:100FB00030E040E85AE30E94423820E030E040EA66
:100FC00050E40E9442386B017C019B01AC0160E05F
:100FD00070E080EA90E40E948A36A70196010E94A0
:100FE000F3362C853D854E855F850E94F3369B0147
:100FF000AC0160E070E080E89FE30E948A366B01FC
:101000007C0120E030E0A9010E94EF3687FF03C099
:10101000C12CD12C760120E030E847E754E4C70129
:10102000B6010E94423820E030E040E251E40E94E4
:101030008B366A837B838C839D8381E0DF91CF91A4
:10104000FF90EF90DF90CF900895AF92BF92CF9234
:10105000DF92EF92FF920F931F93CF93DF93EC01F8
:101060006B015A0182E893E0998388837E0186E0D0
:10107000E80EF11C6DEA73E0C7010E9464318FE055
:1010800094E09983888300E010E020EF31E40C873E
:101090001D872E873F87B601C7010E94AF31B98AED
:1010A000A88A1A821B821C821D8246E656E666E3E7
:1010B00070E44C875D876E877F87DF91CF911F91AA
:1010C0000F91FF90EF90DF90CF90BF90AF90089579
:1010D000CF92DF92EF92FF920F931F93CF93DF9304
:1010E000EC017B016A0182E893E0998388838E0199
:1010F0000A5F1F4F6DEA73E0C8010E94643185E109
:1011000094E0998388838CE0E2E2F2E0DE011E96AF
:1011100001900D928A95E1F7B701C8010E94AF31A5
:10112000DD86CC861A821B821C821D82DF91CF91C4
:101130001F910F91FF90EF90DF90CF900895CF9285
:10114000DF92EF92FF921F93CF93DF93162FC5E0AC
:10115000D0E0C12CD12C7601812F0E94B834BC0183
:10116000882777FD8095982F0E948E379B01AC01D0
:10117000C701B6010E948B366B017C0162E370E00F
:1011800080E090E00E941434219731F720E030E0B5
:1011900040EA50E4C701B6010E94F33620E030E097
:1011A00040EA50E40E94423820E030E040E85AE350
:1011B0000E944238DF91CF911F91FF90EF90DF9016
:1011C000CF900895CF92DF92EF92FF92CF93DF936B
:1011D000CB01BA01E90120E030E040EA50E40E948E
:1011E000F3366B017C012DED34E246E05FE30E94B3
:1011F0003E3887FF20C02C813D814E815F81C70131
:10120000B6010E948A36288539854A855B850E9409
:10121000F336288139814A815B810E948B369B019C
:10122000AC0160E070E080E291E40E94A5380E9489
:101230005B37CB0102C08FEF9FEFDF91CF91FF9023
:10124000EF90DF90CF900895CF93DF93EC016C8502
:101250007D8575DFAB01BC019E01225F3F4FCE0152
:10126000B1DF8F3F2FEF920759F0BC01882777FD40
:101270008095982F0E948E376A837B838C839D8311
:1012800081E0DF91CF910895FC01628173818481B7
:1012900095810895CF93DF93EC016A5F7F4F0E94A1
:1012A000C431CE01DF91CF910895CF93DF93EC014C
:1012B0001F821E82198618861D821C8284E190E09E
:1012C0000E9499339983888384E190E00E94993346
:1012D0009B838A83DF91CF910895FC01208531851E
:1012E00084819581880F991FA081B181A80FB91FB2
:1012F0002D933C9384819581880F991FA281B3819E
:10130000A80FB91F6D937C9380859185860F971FD9
:1013100091878087848195819C012F5F3F4F358322
:1013200024830895DF92EF92FF920F931F93CF9340
:10133000DF938C01EB017A01CC0FDD1FD12C2D2D19
:1013400030E0D8011296ED91FC911397EC0FFD1F40
:10135000808191812817390794F4A701420F531F08
:10136000D801ED91FC91EC0FFD1F80819181FA0174
:101370006081820F931F0E94973ED394E0CFDF914C
:10138000CF911F910F91FF90EF90DF900895BF9242
:10139000CF92DF92EF92FF920F931F93CF93DF9341
:1013A0008C01EB016A01CC0FDD1FB12C2B2D30E03D
:1013B000D8011296ED91FC911397EC0FFD1F8081DF
:1013C00091812817390794F47601E20EF31ED801B3
:1013D000ED91FC91EC0FFD1F80819181820F931F95
:1013E0000E948F3EF7018083B394E0CFDF91CF91CD
:1013F0001F910F91FF90EF90DF90CF90BF900895D5
:101400004F925F926F927F928F929F92AF92BF9214
:10141000CF92DF92EF92FF920F931F93CF93DF93C0
:10142000CDB7DEB7A4970FB6F894DEBF0FBECDBF21
:101430004C010E94E5332B013C0120E83EEE46E3DF
:1014400050E00E941D3A69017A0144EC9601420382
:101450005001439FB00C1124C301B20120E63AEEC3
:1014600040E050E00E941D3AA20EB31E80EF91EFC3
:101470008C9D80018D9D100D9C9D100D1124C3012C
:10148000B20128EE33E040E050E00E941D3A020F26
:10149000131F44EC95014203C001439F900D11249A
:1014A000080F191F80E891E18C9DB0018D9D700D92
:1014B0009C9D700D1124640D751D20EA35E1A29EDE
:1014C000C001A39E900DB29E900D1124680F791F4C
:1014D00028E13CEF029FC001039F900D129F900DE9
:1014E0001124680F791F4AE0CE0101960E94ED3168
:1014F0004AE0B801CE0107960E94ED314AE0B501FD
:10150000CE010D960E94ED314AE0B601CE0149961A
:101510000E94ED31BE01675E7F4FCE0143960E946F
:10152000C4316DE476E0CE0143960E946D32BE0177
:10153000635F7F4F0E945C326DE476E00E946D3203
:10154000BE01695F7F4F0E945C326DE476E00E94CD
:101550006D32BE016F5F7F4F0E945C32BC01CE01D5
:101560004F960E94C431CE0143960E94F930CE01BD
:1015700049960E94F930CE010D960E94F930CE01B5
:1015800007960E94F930CE0101960E94F930BE0103
:10159000615E7F4FCE0107960E94C43167E174E01F
:1015A000CE0107960E946D32B4010E945C32BC01EC
:1015B000CE0101960E94C431C0908F0CD090900C47
:1015C0008091910C9091920CC816D90609F06DC0CB
:1015D00076018FEFE81AF80AF092920CE092910CE3
:1015E000E1E4EE16E5E1FE0640F426E02E9DC001A2
:1015F0002F9D900D1124029602C08FEF9FEF0E9445
:101600009933FC01E192F1928F017F012FEFC21615
:10161000D20659F06DEA73E0C8010E9464310A5F96
:101620001F4FF1E0CF1AD108F1CF00E010E0C12C3C
:10163000D12C80918F0C9091900C60918D0C7091B9
:101640008E0CC816D9066CF4600F711FC701800F8D
:10165000911F0E94AF313FEFC31AD30A0A5F1F4F99
:10166000E8CF61157105E9F0FB0132978081918126
:1016700026E0289F8001299F100D1124060F171FB7
:10168000C80120918D0C30918E0C065011098217E3
:10169000930721F0C8010E94F930F2CF02970E940F
:1016A0009A33F0928E0CE0928D0C20918F0C309139
:1016B000900C46E0429FC001439F900D1124209161
:1016C0008D0C30918E0CBE016F5F7F4F820F931F88
:1016D0000E94AF3180918F0C9091900C0196909365
:1016E000900C80938F0CCE0101960E94F930CE01B0
:1016F00007960E94F930CE014F960E94F930A496C9
:101700000FB6F894DEBF0FBECDBFDF91CF911F9112
:101710000F91FF90EF90DF90CF90BF90AF909F9090
:101720008F907F906F905F904F900895DF92EF922F
:10173000FF920F931F93CF93DF9300D000D0CDB7CC
:10174000DEB77C016DEA73E00E94643100918D0C7C
:1017500010918E0C86E0D82E80918F0C9091900C79
:10176000D89E9001D99E300D112480918D0C9091BE
:101770008E0C820F931F08171907B1F0B801CE0124
:1017800001960E94C4316CEA73E0CE0101960E947A
:101790006D32BC01C7010E944332CE0101960E9406
:1017A000F9300A5F1F4FD8CFC70126960FB6F894BD
:1017B000DEBF0FBECDBFDF91CF911F910F91FF9084
:1017C000EF90DF90089510928E0C10928D0C109275
:1017D000900C10928F0C1092920C1092910C10920F
:1017E000940C1092930C0895CF93DF9380918D0CFD
:1017F00090918E0C0097E1F0FC01329720813181AD
:1018000046E0429FE001439FD00D1124C80FD91F2D
:10181000CE0120918D0C30918E0C26978217930764
:1018200021F0CE010E94F930F3CF02970E949A3343
:1018300010928E0C10928D0C1092900C10928F0CB6
:101840001092920C1092910C1092940C1092930C96
:10185000DF91CF910895CF93DF93FC01C681D781AB
:101860004C815D816A817B818881998190DDEC81E9
:10187000FD816081718182819381DF91CF91089593
:10188000CF93DF93EC01862F20EA34E0398328835D
:101890006C837D835F834E8361E00E94F33561E05A
:1018A0008C810E942C361B821A82DF91CF91089581
:1018B000CF93DF93EC0160E08C810E942C366CE2C8
:1018C00071E080E090E00E94143461E08C810E941D
:1018D0002C3681E0DF91CF9108950F931F93CF9322
:1018E000DF9300D000D0CDB7DEB78C01FC01828140
:1018F0009381892B69F4C801DBDF882331F081E013
:1019000090E0F8019383828311C06BE174E002C020
:1019100063E474E0CE0101960E946431CE01019629
:101920006FDDCE0101960E94F93080E026960FB659
:10193000F894DEBF0FBECDBFDF91CF911F910F9105
:1019400008950F931F93CF93DF9300D000D0CDB7AE
:10195000DEB78C01FC0182819381019761F4C8019B
:10196000A7DF882329F0F8011382128281E011C0D9
:101970006BE174E002C06FE674E0CE0101960E9454
:101980006431CE0101963CDDCE0101960E94F93012
:1019900080E026960FB6F894DEBF0FBECDBFDF9174
:1019A000CF911F910F910895EF92FF920F931F9384
:1019B000CF93DF9300D01F92CDB7DEB78C0184E0C8
:1019C00090E049835A836B837C830E9499337C0126
:1019D00049815A816B817C81FC0140835183628300
:1019E0007383F80162817381AC01808191819ADCFB
:1019F000E114F10469F0C7010F900F900F900F9060
:101A0000DF91CF911F910F91FF90EF900C949A333B
:101A10000F900F900F900F90DF91CF911F910F912A
:101A2000FF90EF9008950F931F93CF93DF938C0156
:101A3000FC01C681D7814C815D816A817B8188816F
:101A40009981A5DCEC81FD814081518162817381A6
:101A50004F5F5F4F6F4F7F4FF80186819781DF9116
:101A6000CF911F910F91A0CF40E050E0BA01FC014F
:101A70008681978199CFFC01828193810895CF93CC
:101A8000DF93EC01FB01628173810E94452ECE0140
:101A9000DF91CF9108950F931F93CF93DF93CDB72D
:101AA000DEB72C970FB6F894DEBF0FBECDBF8C010A
:101AB000FC01828193810E94432C64E376E0CE0195
:101AC00001960E946431F80162817381CE0107960C
:101AD0000E94452EBE016F5F7F4FCE0107960E9488
:101AE00038338C01CE0107960E94F930CE01019661
:101AF0000E94F93081E00F3F1F4F09F480E02C96DF
:101B00000FB6F894DEBF0FBECDBFDF91CF911F910E
:101B10000F910895FC01CB01BA01A9012AEA34E032
:101B2000318320839383828326E00C94A229FC01D5
:101B3000848195810895FC01828193810895CF93DA
:101B4000DF93EC018A819B81892B51F46C817D812B
:101B50008E810E94DD3481E090E09B838A8307C000
:101B60006EEA74E081EF9EE00E945C2C80E0DF91E1
:101B7000CF910895CF93DF93EC018A819B810197E8
:101B800041F460E08E810E942C361B821A8281E033
:101B900007C06AED74E081EF9EE00E945C2C80E05B
:101BA000DF91CF910895FC0184819581853691055F
:101BB00050F47583648382819381019761F48681F7
:101BC0000E94DD3408C067E075E081EF9EE00E946E
:101BD0005C2C80E0089581E00895CF93DF93EC01C1
:101BE000862F25E335E0398328836E837F835D83E9
:101BF0004C8361E00E94F33560E08E810E942C36B8
:101C00001B821A82DF91CF9108959C01FC01E6535B
:101C1000FF4F80819181680F791F693C710530F415
:101C2000718360830296820F931F089580E090E095
:101C30000895CF93DF93FC01808191819C01235013
:101C400031092230310528F46281738184819581C4
:101C500029C0873091053CF0628173818481958130
:101C60000E945B371FC001970297A0F4C281D38105
:101C7000209781F0BE018FE395E00E94063E892BFC
:101C800069F04AE050E060E070E0CE01DF91CF9172
:101C90000C948F3C60E070E0CB0104C061E070E028
:101CA00080E090E0DF91CF9108956115710559F0C2
:101CB000FB0101900020E9F7AF0141505109461B9B
:101CC000570B0C94C12480E090E00895FC017183CF
:101CD0006083538342833583248317821682108660
:101CE0000895FC01868197810895EF92FF920F93EA
:101CF0001F93CF93DF9300D000D0CDB7DEB78C0118
:101D0000DC0118968C911897861719F118966C9328
:101D100018971496ED91FC9115970190F081E02DA4
:101D2000E280F380662319F064E475E002C06BE49E
:101D300075E0CE0101960E946431BE016F5F7F4F56
:101D4000F80184819581F7011995CE0101960E94D1
:101D5000F93026960FB6F894DEBF0FBECDBFDF91E7
:101D6000CF911F910F91FF90EF900895FC01808516
:101D70000895EF92FF920F931F93CF93DF9300D0BC
:101D800000D0CDB7DEB78C016F3F8FEF780769F5D4
:101D9000D80117967C936E9316971496ED91FC914B
:101DA00015970190F081E02DE280F38063E575E006
:101DB000CE0101960E946431BE016F5F7F4FF80132
:101DC00084819581F7011995CE0101960E94F93021
:101DD000D8011496ED91FC9115970190F081E02DBA
:101DE000E280F3806AE575E013C06930710510F593
:101DF000D80117967C936E9316971496ED91FC91EB
:101E000015970190F081E02DE280F3806E597A4FB2
:101E1000CE0101960E946431BE016F5F7F4FF801D1
:101E200084819581F7011995CE0101960E94F930C0
:101E300081E001C080E026960FB6F894DEBF0FBEA9
:101E4000CDBFDF91CF911F910F91FF90EF9008953B
:101E5000CF92DF92EF92FF920F931F93CF93DF9376
:101E6000CDB7DEB7CC5CD1090FB6F894DEBF0FBE9C
:101E7000CDBF8C0187EF95E09A838983C553DF4FEF
:101E800019821882CB5CD040DB016D917C91CE0130
:101E900001960BDF4AE0BC01CE0101960E949D2411
:101EA0007C01FC0180819181892B09F4A7C068E63F
:101EB00075E0C7010E942425009769F0DC011496A3
:101EC0002D913C9115972630310529F416968D9168
:101ED0009C91179702C08DEE9EE06DE675E00E9422
:101EE0002425009719F00496A4DE02C060E070E09B
:101EF0006115710599F06130710519F5F80180815E
:101F00009181B9DD892B01F5D8018D919C91DC017E
:101F1000ED91FC910190F081E02D0FC0F8018081DE
:101F20009181A9DD019781F4D8018D919C91DC010B
:101F3000ED91FC910280F381E02D1995811104C08F
:101F40005DC063E775E056C063EA75E0C7010E94B3
:101F50002425009749F0FC01248135812630310584
:101F600019F48681978102C08DEE9EE06DE675E0E2
:101F70000E942425009719F004965BDE02C060E001
:101F800070E061157105D9F06130710589F5D801EE
:101F900012968D919C911397DC01ED91FC91008438
:101FA000F185E02D1995892B59F5F80182819381EE
:101FB000DC01ED91FC910190F081E02D15C0F8015C
:101FC00082819381DC01ED91FC910084F185E02D0B
:101FD00019950197A9F4F80182819381DC01ED91B3
:101FE000FC910280F381E02D1995811109C006C092
:101FF0006AEA75E081EF9EE00E945C2C80E075C08B
:1020000063EA75E0C7010E942425009749F0FC01AE
:10201000248135812630310519F48681978102C0EB
:102020008DEE9EE06CED75E00E942425009721F076
:102030000496FFDD6B0102C0C12CD12CD801129691
:102040008D919C911397DC01ED91FC910680F781B5
:10205000E02D1995C816D90651F468EE75E0C70150
:102060000E9424250097A1F560E070E033C0D801FC
:102070001296ED91FC9113970190F081E02DC480B0
:10208000D58063EA75E0C7010E942425009749F0D6
:10209000FC01248135812630310519F48681978130
:1020A00002C08DEE9EE06CED75E00E942425009745
:1020B00019F00496BEDD02C060E070E0D80112960F
:1020C0008D919C911397F60119958111C6CF96CFEA
:1020D0000496AFDDD80116968D919C9117976817DD
:1020E000790711F0C80145DE81E0C453DF4F0FB618
:1020F000F894DEBF0FBECDBFDF91CF911F910F913E
:10210000FF90EF90DF90CF900895CF92DF92EF9203
:10211000FF920F931F93CF93DF93EC016B010A8122
:102120001B81E880F980B801C7010E942425FC01C9
:10213000009741F4C7010E94D223FC01009779F077
:102140001383028384E090E095838483A60166274D
:1021500057FD6095762F4683578360877187CE0140
:10216000DF91CF911F910F91FF90EF90DF90CF9073
:1021700008952F923F924F925F926F927F928F922B
:102180009F92AF92BF92CF92DF92EF92FF920F9306
:102190001F93CF93DF93CDB7DEB7CA5DD1090FB6DA
:1021A000F894DEBF0FBECDBF4C015B0187EF95E019
:1021B0009A838983C553DF4F19821882CB5CD04044
:1021C000CE0101960E9489247C01DC018D919C91B5
:1021D0000097E1F00E9489248C0163EA75E0C70151
:1021E0000E942425FC01009751F4C7010E94D223CC
:1021F000FC01009781F023EA35E03383228326E057
:1022000030E0358324830683178305C04DEEC42E4A
:102210004EE0D42E01C06801F701808191810097C2
:10222000E1F00E9489248C0168E675E0C7010E94F4
:102230002425FC01009751F4C7010E94D223FC0120
:10224000009781F028E635E03383228326E030E0F2
:10225000358324830683178305C03DEE632E3EE05D
:10226000732E01C03801D50112968D919C91139760
:10227000DC01ED91FC910084F185E02D19958E0132
:1022800003531F4FF801D182C0822DE6422E25E074
:10229000522E53824282BC01C80137DFD50112960B
:1022A0008D919C911397DC01ED91FC910680F78153
:1022B000E02D1995F801D182C0822CED35E03383F1
:1022C0002283BC01C80121DFD5018D919C91D3DB14
:1022D000F8017182608253824282BC01C80115DF1D
:1022E000D5018D919C91DC01ED91FC910480F581EB
:1022F000E02D19951B012C016DEE75E0C3010E94C4
:102300002425009751F4C3010E94D223009789F03D
:102310002DEE35E0FC013383228324E030E0DC0144
:1023200015963C932E931497FC01268237824086A3
:102330005186D50116966D917C911797F801F1821F
:10234000E08288EE95E093838283C801DEDED801C7
:1023500013961C921E9212978DE797E011969C930C
:102360008E9385E99CE015969C938E93149787EC49
:1023700090E017969C938E93169719961C921E9236
:1023800018971092950CC952DF4F19830883C75DC7
:10239000D040C752DF4F19821882C95DD040BE01BC
:1023A00069527F4FC7010E94422565E97CE0C40164
:1023B0000E946431C401C652DF4F0FB6F894DEBFED
:1023C0000FBECDBFDF91CF911F910F91FF90EF9086
:1023D000DF90CF90BF90AF909F908F907F906F9045
:1023E0005F904F903F902F900895FC017183608320
:1023F0005383428308950F931F93CF93DF938C01F0
:10240000C0E0D0E0F80182819381C817D9079CF41D
:10241000CE01880F991FD801ED91FC91E80FF91FAB
:1024200080819181DC01ED91FC910190F081E02DA2
:1024300019952196E7CFDF91CF911F910F910895C4
:102440002F923F924F925F926F927F928F929F92C4
:10245000AF92BF92CF92DF92EF92FF920F931F93B2
:10246000CF93DF93CDB7DEB7CC5DD1090FB6F8942B
:10247000DEBF0FBECDBF4C01C552DF4F79836883ED
:10248000CB5DD04087EF95E09A838983C553DF4FBA
:1024900019821882CB5CD040CE0101960E9489241B
:1024A0006C01A12CB12C8E0103531F4FC552DF4F7D
:1024B000E881F981CB5DD04082819381A816B9066D
:1024C0000CF05EC0C552DF4FA881B981CB5DD04012
:1024D000ED91FC917501EE0CFF1CEE0DFF1D80814E
:1024E00091810E9444091B012C01C552DF4FA88134
:1024F000B981CB5DD040ED91FC91EE0DFF1D608167
:102500007181C8010E944A09F80160807180B3019D
:10251000C6010E9424257C01009711F5C6010E9486
:10252000D2237C01009729F1D6018D919C916114F1
:10253000710469F0F30101900020E9F7AF01415007
:10254000510946195709B3010E94C12402C080E015
:1025500090E0D70113969C938E931297892B49F0A4
:1025600089E090E0F7019583848326823782408654
:102570005186C8010E94F930BFEFAB1ABB0A96CF53
:10258000D80113961C921E9212978DE797E0119630
:102590009C938E938DE59DE015969C938E93149756
:1025A00087EC90E017969C938E93169719961C9241
:1025B0001E92189710925D0DC952DF4F1983088340
:1025C000C75DD040C752DF4F19821882C95DD04025
:1025D000BE0169527F4FC6010E9442256DE57DE034
:1025E000C4010E946431C401C452DF4F0FB6F89495
:1025F000DEBF0FBECDBFDF91CF911F910F91FF9036
:10260000EF90DF90CF90BF90AF909F908F907F9092
:102610006F905F904F903F902F90089581E00895C4
:102620000F931F93CF93DF93CDB7DEB72C970FB6E1
:10263000F894DEBF0FBECDBF8C01FC01868197816F
:102640000E945B1FF80164817581CE0101960E9492
:102650006431F80162817381CE0107960E94643172
:10266000AE014F5F5F4FBE01695F7F4FF80186810A
:1026700097810E941520182FCE0107960E94F930ED
:10268000CE0101960E94F930812F2C960FB6F89456
:10269000DEBF0FBECDBFDF91CF911F910F91089587
:1026A000EF92FF920F931F93CF93DF9300D000D050
:1026B000CDB7DEB78C017A01CE0101960E9464315C
:1026C0009701442737FD4095542FBE016F5F7F4F20
:1026D000F801868197810E941721182FCE0101965B
:1026E0000E94F930812F26960FB6F894DEBF0FBEF8
:1026F000CDBFDF91CF911F910F91FF90EF90089583
:10270000FC01868197810C941322FB01019000202B
:10271000E9F73197E61BF70B9F0140E050E0FC0121
:10272000868197810C94E021EF92FF920F931F9383
:102730009A01442737FD4095542F18EEE12E13E0FF
:10274000F12E00E010E0FC0186819781B9D721E0ED
:10275000672B682B692B09F420E0822F1F910F91C2
:10276000FF90EF900895FC018DEF95E091838083B9
:102770007383628355834483378326830895CF937D
:10278000DF93EC010E94E533685B7B40810991098E
:102790006D877E878F87988BDF91CF9108952F92D9
:1027A0003F924F925F926F927F928F929F92AF92E1
:1027B000BF92CF92DF92EF92FF920F931F93CF932E
:1027C000DF931F92CDB7DEB71C010E94E533F10104
:1027D00085849684A784B0882B013C014818590849
:1027E0006A087B08218532852130310539F447EEAE
:1027F000842E43E0942EA12CB12C06C03FEC832EF6
:1028000037E0932EA12CB12C481459046A047B04A0
:1028100008F4BCC0F101658776878787908B80E0DC
:1028200090E0A0ECBFE780839183A283B38384838D
:102830009583A683B78360E080850E942C3661E093
:10284000F10180850E94F335F10181859285019720
:1028500039F462E170E080E090E00E94143404C03A
:1028600080E293E00E944B3460E0F10180850E9499
:10287000F33561E0F10180850E942C362DEF922E18
:102880000E94F133762EF92DF1708F2EAF2EBB24DE
:10289000A7FCB0940E94F13367196B3518F081E002
:1028A00090E02FC0F101808569830E9461366981C3
:1028B0008A159B0579F397FC07C0882029F0000F43
:1028C000111F6F3108F00160FFE19F1639F08FE3AF
:1028D000981205C0780100E010E001C068019394EF
:1028E000E0E59E12CDCF6D2D7727AF2CB12C8E2D2C
:1028F0008C0D860F8F0D90E08017910731F082E0EC
:1029000090E0F1019487838741C0F1018185928530
:10291000019779F480E090E00E948C37F1016483A4
:10292000758386839783B50180E090E00E948C37A1
:1029300025C0B60180E090E00E948C372DEC3CEC85
:102940004CEC5DE30E944238F10164837583868319
:102950009783C70197FF05C09F77EE24FF24E81AED
:10296000F90AB701882777FD8095982F0E948E3746
:102970002DEC3CEC4CEC5DE30E944238F1016083AD
:10298000718382839383F101148613860F90DF9104
:10299000CF911F910F91FF90EF90DF90CF90BF905C
:1029A000AF909F908F907F906F905F904F903F90EF
:1029B0002F9008950F931F93CF93DF93EC018A011B
:1029C00068875A874987DBDE012B69F482E090E053
:1029D0009A878987CE01E3DE8B859C8581309105BE
:1029E00011F49A878987DF91CF911F910F910895F4
:1029F000CF93DF93EC01D3DE6C817D818E819F814B
:102A0000DF91CF910895CF93DF93EC01C8DE688109
:102A100079818A819B81DF91CF9108951092920EE6
:102A200081E08093900E10928F0E61E084E10E940D
:102A30002C3661E085E10E942C36E9EBF0E08081E4
:102A40008E7F808380818D7F808388E48093B8002F
:102A500085E48093BC000895413208F043C0909112
:102A6000920E9111FCCF91E09093920E2093900ED4
:102A70002FEF2093250E10926A0E240F2093690EDB
:102A80009093910E9091910E880F892B8093910EC7
:102A900080918F0E813061F410928F0E8091910E93
:102AA0008093BB008091BC0083FDF8CF85EC01C012
:102AB00085EE8093BC008091920E8130E1F380918D
:102AC0006A0E841710F440916A0E2BE63EE0FB017B
:102AD000D9018A2F821B841718F48D918193F9CF25
:102AE000842F089580E008950F93413208F04AC082
:102AF0009091920E9111FCCF92E09093920E0093E0
:102B0000900E9FEF9093250E10926A0E4093690EDF
:102B1000FB016BE67EE0DB019A2F961B941718F4FD
:102B200091919D93F9CF1092910E9091910E880FF3
:102B3000892B8093910E80918F0E813061F41092D9
:102B40008F0E8091910E8093BB008091BC0083FD1D
:102B5000F8CF85EC01C085EE8093BC00222321F0E4
:102B60008091920E8230E1F38091250E8F3F61F0CB
:102B70008091250E803251F08091250E803341F4F2
:102B800083E007C081E005C080E003C082E001C0AF
:102B900084E00F910895613298F42091920E2430D0
:102BA00089F46093470EFC0189E49EE0DC012A2F42
:102BB000281B261718F421912D93F9CF80E0089552
:102BC00081E0089582E0089585ED8093BC008091B6
:102BD000BC0084FDFCCF1092920E089585EC80938A
:102BE000BC001092920E08951F920F920FB60F9292
:102BF00011240BB60F922F933F934F935F936F93D4
:102C00007F938F939F93AF93BF93EF93FF938091A5
:102C1000B900887F803609F49DC070F5883209F4C8
:102C20005CC090F4803109F455C038F4882309F46D
:102C3000F3C0883009F44EC0F2C0883109F44DC0A9
:102C4000803209F45EC0EBC0803409F469C050F4EE
:102C5000803309F456C0883309F0E1C08093250E13
:102C6000BDDFDDC0803509F44FC0883509F45DC093
:102C7000883409F0D4C0D2C0883909F4C3C0A8F49C
:102C8000883709F467C038F4883609F463C08037A0
:102C900009F460C0C4C0883809F4B4C0803909F4AC
:102CA0005FC0803809F0BBC05BC0803B09F482C0C4
:102CB00038F4803A09F466C0883A09F47BC0AFC0A2
:102CC000803C09F4A3C0883C09F4A0C0883B09F407
:102CD00086C0A5C08091910E10C090916A0E80911F
:102CE000690E981770F5E0916A0E81E08E0F80935F
:102CF0006A0EF0E0E559F14F80818093BB0085ECCE
:102D000082C08093250E8AC0E0916A0E81E08E0F0A
:102D100080936A0E8091BB00F0E0E559F14F80830B
:102D200090916A0E8091690E6AC0E0916A0E81E00E
:102D30008E0F80936A0E8091BB00F0E0E559F14F51
:102D400080838091900E811169C081E080938F0E05
:102D500084EA5DC083E08093920E1092260ECFCF5E
:102D60008091260E803208F04DC0E091260E81E061
:102D70008E0F8093260E8091BB00F0E0E95DF14F4D
:102D80008083BDCF2BDF8091260E803230F4E0911E
:102D9000260EF0E0E95DF14F10826091260E70E0A2
:102DA000E0918B0EF0918C0E87E29EE019951092C7
:102DB000260E35C084E08093920E1092480E109239
:102DC000470EE0918D0EF0918E0E19958091470E71
:102DD000811105C081E08093470E1092490EE09169
:102DE000480E81E08E0F8093480EF0E0E75BF14FD4
:102DF00080818093BB009091480E8091470E981778
:102E000008F47DCF85E88093BC0009C085EC8093F1
:102E1000BC001092920E03C01092250ED5DEFF91D9
:102E2000EF91BF91AF919F918F917F916F915F9142
:102E30004F913F912F910F900BBE0F900FBE0F90AF
:102E40001F9018958091C30E90E02091C40E821BB4
:102E5000910908952091C40E8091C30E281750F453
:102E6000E22FF0E0EB53F14F808190E02F5F209351
:102E7000C40E08958FEF9FEF0895E091C40E8091E6
:102E8000C30EE81730F4F0E0EB53F14F808190E08F
:102E900008958FEF9FEF08950895CF92DF92EF92FC
:102EA000FF920F931F93CF93DF937C01CB018A0195
:102EB00020919F0E222389F0EB016B01C40ED51ED9
:102EC000CC15DD0561F06991D701ED91FC91019080
:102ED000F081E02DC7011995F3CF642F5CDEC801A6
:102EE000DF91CF911F910F91FF90EF90DF90CF90E6
:102EF0000895CF93DF931F92CDB7DEB769832091FA
:102F00009F0E2223D1F02091A00E203240F021E02C
:102F100030E0FC013383228380E090E014C0809194
:102F2000A10EE82FF0E0EE55F14F998190838F5F6D
:102F30008093A10E8093A00E04C061E0CE010196A3
:102F40002ADE81E090E00F90DF91CF910895FC019F
:102F50001382128248EE53E060E070E044835583B0
:102F6000668377838DE096E0918380830895109245
:102F7000C40E1092C30E1092A10E1092A00E4ECD50
:102F800081E080939F0E6093C20E1092A10E10926A
:102F9000A00E0895F5CF0F93062F21E04091A00ECB
:102FA00062EA7EE08091C20E9FDD1092A10E109227
:102FB000A00E10929F0E0F9108958F929F92AF9244
:102FC000BF92CF92DF92EF92FF920F931F93CF9316
:102FD000DF93EC01F62ED42E48015901EE2009F1C1
:102FE000CFDF1E2D143008F013E01150B8F0E88147
:102FF000F98128E0129FB0011124A501940104C0B9
:1030000056954795379527956A95D2F7CA01B90124
:103010000190F081E02DCE011995E7CF60E0CE015F
:10302000BADF4D2D413208F040E22C2D65EC7EE0F8
:103030008F2D12DD1092C40E8093C30EDF91CF91BD
:103040001F910F91FF90EF90DF90CF90BF90AF90C6
:103050009F908F900895CF92EF920F931F93C22E5F
:10306000E12C00E010E09801A8DF1F910F91EF9094
:10307000CF90089521E0EFCF61E08DCF83E99EE00E
:1030800066CFDC01ED91FC9111973097C9F0E617FE
:10309000F70749F4268537852D933C9308958617C5
:1030A000970731F0FC01868597850097C1F708C026
:1030B000DB011E968D919C911F97978786870895B7
:1030C00008950F931F93CF93DF938C01EB01D9DF0A
:1030D000D801ED91FC911197309719F4CD93DC93C1
:1030E00008C086859785009711F0FC01FACFD78735
:1030F000C6870E94F133088119812A813B81601BB8
:10310000710B820B930B6C837D838E839F831F8651
:103110001E86DF91CF911F910F910895CF92DF927C
:10312000EF92FF920F931F93CF93DF93EB010E94D7
:10313000F1336B017C014C815D816E817F8108815F
:1031400019812A813B81400F511F621F731FC416D2
:10315000D506E606F70690F00C811D812E813F8191
:103160004017510762077307D8F40C811D812E8127
:103170003F81C016D106E206F30690F00C811D8156
:103180002E813F81C016D106E206F306A8F40C8119
:103190001D812E813F81401751076207730760F040
:1031A000C886D986EA86FB86EC85FD85CE01199511
:1031B000CC82DD82EE82FF82DF91CF911F910F9151
:1031C000FF90EF90DF90CF9008958C01F801C081BF
:1031D000D1812097D9F3BE01C801A0DF0E84DF851D
:1031E000C02DF7CF85EE9EE0F0DFCF93DF93FC019B
:1031F000E901A8EEB3E09A01AB010E94613A608355
:10320000718382839383D587C48714821582168243
:10321000178217861686DF91CF9108951F93CF935B
:10322000DF93162FFC01C081D181209779F08B812B
:10323000811308C0E881F9810190F081E02D612FB0
:10324000CE0119950C80DD81C02DEFCFDF91CF919C
:103250001F9108951F920F920FB60F9211240BB673
:103260000F922F933F934F935F936F937F938F931F
:103270009F93AF93BF93EF93FF9360E087EE9EE041
:10328000CDDFFF91EF91BF91AF919F918F917F9192
:103290006F915F914F913F912F910F900BBE0F90C7
:1032A0000FBE0F901F9018951F920F920FB60F929E
:1032B00011240BB60F922F933F934F935F936F930D
:1032C0007F938F939F93AF93BF93EF93FF9361E0AF
:1032D00087EE9EE0A3DFFF91EF91BF91AF919F91A9
:1032E0008F917F916F915F914F913F912F910F90AF
:1032F0000BBE0F900FBE0F901F9018951F920F924C
:103300000FB60F9211240BB60F922F933F934F934A
:103310005F936F937F938F939F93AF93BF93EF933D
:10332000FF9362E087EE9EE079DFFF91EF91BF911E
:10333000AF919F918F917F916F915F914F913F914D
:103340002F910F900BBE0F900FBE0F901F901895EE
:10335000CF93DF93EC0188819981DC01ED91FC91A1
:103360000480F581E02D19951816190654F488810A
:103370009981DC01ED91FC910680F781E02D199592
:10338000EACFDF91CF910895CF93DF93EC01CB018A
:10339000BA01A9019983888326E00E94A229CE015F
:1033A000DF91CF91D5CF2F923F924F925F926F9244
:1033B0007F928F929F92AF92BF92CF92DF92EF92C5
:1033C000FF920F931F93CF93DF93CDB7DEB7A097F4
:1033D0000FB6F894DEBF0FBECDBF9E878D87798F65
:1033E000688F2C8B3D8B4E8B5F8B1B8F0A8FBD8E16
:1033F000AC8E8E01095F1F4F6DEA73E0C8010E9419
:103400006431288D398D232B29F460E070E000E0D1
:1034100010E034C10E94E5336F87788B898B9A8BDB
:103420000B8B1E8F0E94E5332F85388949895A8975
:10343000621B730B840B950B6C157D058E059F0528
:1034400020F7AD85BE858D919C91DC01ED91FC91BD
:103450000480F581E02D19951816190684F4ED8580
:10346000FE8580819181DC01ED91FC910680F781E0
:10347000E02D1995682F8B899E8D0E94493269E154
:1034800076E0CE0101960E946431BE016F5F7F4FEE
:10349000C8010E9438335C01CE0101960E94F930C8
:1034A000BFEFAB16BB0609F4BDCF3501E5E06E0EEC
:1034B000711CA3016AE3C8010E9400331C014C0186
:1034C000AA2497FCA094BA2CFFEF8F169F06AF0694
:1034D000BF0609F4A7CFA3016CE2C8010E94003324
:1034E0007C019C01442737FD4095542F2F87388B52
:1034F000498B5A8B2F3F8FEF38074807580791F1B8
:10350000281539054A055B056CF59701A301B8013B
:10351000CE0101960E943B33CE0101960E947E337C
:103520006B8BCE0101960E94F9309B89953008F093
:103530006CCFA7014F5F5F4F9101B801CE0101969B
:103540000E943B33CE0101960E947E332B013C0149
:10355000CE0101960E94F9301414150416041704C4
:10356000E4F053CF9101A301BE01695F7F4FCE010B
:1035700001960E943B33CE0101960E947E332B01BF
:103580003C01CE0101960E94F93014141504160472
:1035900017040CF03ACFAFEFAB8B730162018C894B
:1035A0009D89AE89BF8984159505A605B70510F4D8
:1035B0006C017D010E94E5336C8B7D8B8E8B9F8B24
:1035C000812C912C54010E94E5332C893D894E8930
:1035D0005F89621B730B840B950B683B7B408105F5
:1035E000910508F012CFAD85BE858D919C91DC01CF
:1035F000ED91FC910480F581E02D199518161906BE
:103600002CF48C149D04AE04BF0410F18C149D04A2
:10361000AE04BF04C1F68D859E859ADEEA8DFB8DD2
:10362000309721F040825182628273822F853889DF
:1036300049895A892F3F3F4F4F4F5F4F31F0AC8D33
:10364000BD8D109711F0EB89EC93B601870116C080
:10365000AD85BE858D919C91DC01ED91FC9106803C
:10366000F781E02D1995E88DF98DE80DF91D80831E
:10367000BFEF8B1A9B0AAB0ABB0AB5CFCE010796E8
:103680006F8F78A30E94F9306F8D78A1C801A09642
:103690000FB6F894DEBF0FBECDBFDF91CF911F9163
:1036A0000F91FF90EF90DF90CF90BF90AF909F90E1
:1036B0008F907F906F905F904F903F902F900895E4
:1036C000AF92BF92CF92DF92EF92FF920F931F9330
:1036D00067017801A12CB12C00E010E064DE1F919D
:1036E0000F91FF90EF90DF90CF90BF90AF90089533
:1036F0004F925F926F927F928F929F92AF92BF9202
:10370000CF92DF92EF92FF920F931F93CF93DF93AD
:10371000EC015B014A01680179016DEA73E00E94E6
:1037200064310E94E5332B013C010E94E5336419AA
:103730007509860997096C157D058E059F0520F58D
:10374000F50180819181DC01ED91FC910480F5818E
:10375000E02D1995181619068CF4D5018D919C91C0
:10376000DC01ED91FC910680F781E02D199588230D
:1037700039F3682FCE010E944932E2CFB401CE0165
:103780000E943833019689F2CE01DF91CF911F91CB
:103790000F91FF90EF90DF90CF90BF90AF909F90F0
:1037A0008F907F906F905F904F9008952F923F92EF
:1037B0004F925F926F927F928F929F92AF92BF9241
:1037C000CF92DF92EF92FF920F931F93CF93DF93ED
:1037D000EC011B014A015901270138016DEA73E030
:1037E0000E9464310E94E5336B017C010E94E53345
:1037F0006C197D098E099F09641575058605970565
:1038000050F5F10180819181DC01ED91FC91048002
:10381000F581E02D1995181619068CF4D1018D91BA
:103820009C91DC01ED91FC910680F781E02D1995CA
:10383000882339F3682FCE010E944932E2CFB401C8
:10384000CE010E943833019631F4B501CE010E94B9
:103850003833019659F2CE01DF91CF911F910F912C
:10386000FF90EF90DF90CF90BF90AF909F908F90A0
:103870007F906F905F904F903F902F9008952F9280
:103880003F924F925F926F927F928F929F92AF92F0
:10389000BF92CF92DF92EF92FF920F931F93CF933D
:1038A000DF93EC015B011A0149016DEA73E00E94AC
:1038B00064310E94E5332B013C010E94E533641919
:1038C0007509860997096C157D058E059F0580F59C
:1038D000F50180819181DC01ED91FC910480F581FD
:1038E000E02D1995181619068CF4D5018D919C912F
:1038F000DC01ED91FC910680F781E02D199588237C
:1039000039F3682FCE010E944932E2CFB101CE01D6
:103910000E943833019661F4B401CE010E9438331D
:10392000019631F4B801CE010E943833019629F294
:10393000CE01DF91CF911F910F91FF90EF90DF901B
:10394000CF90BF90AF909F908F907F906F905F903F
:103950004F903F902F900895CF92DF92EF92FF9279
:103960000F931F93CF93DF93CDB7DEB766970FB654
:10397000F894DEBF0FBECDBF6C017B016DEA73E032
:10398000CE010D962B8B3C8B4D8B5E8B0E94643150
:10399000B701CE0107960E94C4312B893C894D891D
:1039A0005E8989019A01AE01495F5F4FB601CE0180
:1039B00001969EDEBE016F5F7F4FCE010D960E9485
:1039C000CC31CE0101960E94F930CE0107960E94BB
:1039D000F930B701CE010D960E9438337C01CE013B
:1039E0000D960E94F93081E0EF20E09409F480E028
:1039F00066960FB6F894DEBF0FBECDBFDF91CF91B4
:103A00001F910F91FF90EF90DF90CF9008952F922C
:103A10003F924F925F926F927F928F929F92AF925E
:103A2000BF92CF92DF92EF92FF920F931F93CF93AB
:103A3000DF93CDB7DEB762970FB6F894DEBF0FBE47
:103A4000CDBF2C013B014A01190158016DEA73E019
:103A5000CE010D960E946431B301CE0107960E94FB
:103A6000C43197018601AE01495F5F4FB201CE01BB
:103A700001963EDEBE016F5F7F4FCE010D960E9424
:103A8000CC31CE0101960E94F930CE0107960E94FA
:103A9000F930B301CE010D960E9438330196B1F191
:103AA000B401CE010D960E9438332C01662457FCD8
:103AB0006094762CB101CE010D960E943833EFEF61
:103AC0004E165E066E067E0609F18F3FFFEF9F07DA
:103AD000E9F0F40124813581B301A201420F531FA3
:103AE000611D711D9C01BE01635F7F4FCE01019678
:103AF0000E943B33BE016F5F7F4FC5010E94CC31F6
:103B0000CE0101960E94F93011E006C06DEA73E023
:103B1000C5010E94D73110E0CE010D960E94F93008
:103B2000812F62960FB6F894DEBF0FBECDBFDF9136
:103B3000CF911F910F91FF90EF90DF90CF90BF90AA
:103B4000AF909F908F907F906F905F904F903F903D
:103B50002F9008950F931F93CF93DF9300D000D041
:103B6000CDB7DEB78C01F4DB6FE176E0F801808140
:103B700091810E945C2C64E376E0CE0101960E9464
:103B8000643128EE33E040E050E0BE016F5F7F4FCC
:103B9000C801E2DE182FCE0101960E94F930812F74
:103BA00026960FB6F894DEBF0FBECDBFDF91CF9142
:103BB0001F910F9108950F931F93CF93DF9300D020
:103BC00000D0CDB7DEB78C01C3DB62E276E0F8014E
:103BD000808191810E945C2C64E376E0CE010196A5
:103BE0000E94643128EE33E040E050E0BE016F5F98
:103BF0007F4FC801B1DE182FCE0101960E94F93027
:103C0000812F26960FB6F894DEBF0FBECDBFDF9191
:103C1000CF911F910F910895CF92DF92EF92FF9273
:103C2000CF93DF93EC01C7DF882341F160ED77E0AC
:103C300080E090E00E9414340E94E5336B017C0127
:103C40000E94E5336C197D098E099F09683B7B4012
:103C50008105910598F4CE017DDF882341F06CED5C
:103C600075E080E090E00E94143481E008C064E6D2
:103C700070E080E090E00E941434E2CF80E0DF91B9
:103C8000CF91FF90EF90DF90CF9008958F929F9209
:103C9000AF92BF92CF92DF92EF92FF920F931F935A
:103CA000CF93DF93CDB7DEB768970FB6F894DEBF3A
:103CB0000FBECDBF5C014B016DEA73E0CE014396B0
:103CC0000E9464318114910411F410E046C0C501D2
:103CD0003FDB6BE376E0F501808191810E945C2CF3
:103CE00060E376E0CE0101960E94643166E476E0FE
:103CF000CE0107960E94643164E376E0CE010D9612
:103D00000E94643198EEC92E93E0D92EE12CF12C5B
:103D10008E010D5E1F4F9E012F5F3F4FAE01495F29
:103D20005F4FBE01635F7F4FC50171DE182FCE016B
:103D30000D960E94F930CE0107960E94F930CE010F
:103D400001960E94F930112309F4BFCFCE014396AA
:103D50000E947E33F401608311E0CE0143960E94FD
:103D6000F930812F68960FB6F894DEBF0FBECDBF35
:103D7000DF91CF911F910F91FF90EF90DF90CF9047
:103D8000BF90AF909F908F900895CF92DF92EF9267
:103D9000FF920F931F93CF93DF93CDB7DEB7689752
:103DA0000FB6F894DEBF0FBECDBF6C01162F6DEAC3
:103DB00073E0CE0143960E946431C601C9DA6FE414
:103DC00076E0F601808191810E94512C4AE050E01A
:103DD000612FF601808191810E940D2D6AE576E0C8
:103DE000CE0107960E94643164E376E0CE010D9621
:103DF0000E94643118EEE12E13E0F12E00E010E095
:103E00009E01295F3F4FAE01435F5F4FB601CE0178
:103E10000196CCDCBE016F5F7F4FCE0143960E94BE
:103E2000CC31CE0101960E94F930CE010D960E9450
:103E3000F930CE0107960E94F93064E376E0CE01B6
:103E400007960E946431BE01695F7F4FCE014396A1
:103E50000E9438330196B1F46AE576E0CE0101960E
:103E60000E946431BE016F5F7F4FCE0143960E9476
:103E7000383311E0019609F410E0CE0101960E945A
:103E8000F93001C011E0CE0107960E94F930CE0151
:103E900043960E94F930812F68960FB6F894DEBFE2
:103EA0000FBECDBFDF91CF911F910F91FF90EF908B
:103EB000DF90CF900895FF920F931F93CF93DF93DE
:103EC0001F92CDB7DEB78C01BE016F5F7F4FDEDE84
:103ED000F82E882369F08981833051F063E0C801AE
:103EE00054DF882321F0C80197DE811101C0F12C35
:103EF0008F2D0F90DF91CF911F910F91FF9008951B
:103F0000CF92DF92EF92FF920F931F93CF93DF93A5
:103F1000CDB7DEB768970FB6F894DEBF0FBECDBF42
:103F20006C018B017A016DEA73E0CE0143960E9429
:103F30006431C6010DDA64E676E0F6018081918194
:103F40000E94512CB801F601808191810E94432C7E
:103F50006FE676E0F601808191810E94512CB701D5
:103F6000F601808191810E94432C61E776E0F601A1
:103F7000808191810E945C2C63E776E0CE010796F8
:103F80000E94643164E376E0CE010D960E946431B4
:103F900010E1E12E17E2F12E00E010E09E01295F12
:103FA0003F4FAE01435F5F4FB601CE010196FEDB8E
:103FB000BE016F5F7F4FCE0143960E94CC31CE0190
:103FC00001960E94F930CE010D960E94F930CE0183
:103FD00007960E94F93064E376E0CE0101960E94D4
:103FE0006431BE016F5F7F4FCE0143960E9438332C
:103FF0008C01CE0101960E94F930CE0143960E94B9
:10400000F93081E00F3F1F4F09F480E068960FB64A
:10401000F894DEBF0FBECDBFDF91CF911F910F91FE
:10402000FF90EF90DF90CF900895EF92FF920F9363
:104030001F93CF93DF93CDB7DEB72C970FB6F894CD
:10404000DEBF0FBECDBF8C017B01BA01CE01019650
:104050000E94C431B701CE0107960E94C431AE015F
:104060004F5F5F4FBE01695F7F4FC80149DF182F67
:10407000CE0107960E94F930CE0101960E94F930D8
:10408000812F2C960FB6F894DEBF0FBECDBFDF9107
:10409000CF911F910F91FF90EF9008956F927F92B3
:1040A0008F929F92AF92BF92CF92DF92EF92FF9248
:1040B0000F931F93CF93DF93CDB7DEB76E970FB6F5
:1040C000F894DEBF0FBECDBF5C014B013A01680121
:1040D00079016DEA73E0CE0149960E946431C50111
:1040E00037D96EEA76E0F501808191810E94512CEA
:1040F000B401F501808191810E94432C6FE676E046
:10410000F501808191810E94512CB301F5018081DC
:1041100091810E94432C65E976E0F50180819181CF
:104120000E94512C2AE030E0B701A601F501808100
:1041300091810E94222D6CEB76E0CE0107960E94C1
:10414000643166E472E0CE010D960E94643164E34E
:1041500076E0CE0143960E946431E0E1CE2EE7E2A4
:10416000DE2EE12CF12C8E01095F1F4F9E01235F93
:104170003F4FAE014D5E5F4FB501CE0101967FDB33
:10418000BE016F5F7F4FCE0149960E94CC31CE01B8
:1041900001960E94F930CE0143960E94F930CE017B
:1041A0000D960E94F930C8010E94F93064E376E070
:1041B000C8010E946431B801CE0149960E9438338B
:1041C0000196B1F46CEB76E0CE0101960E94643169
:1041D000BE016F5F7F4FCE0149960E94383311E0D8
:1041E000019609F410E0CE0101960E94F93001C059
:1041F00011E0CE0107960E94F930CE0149960E9447
:10420000F930812F6E960FB6F894DEBF0FBECDBF8A
:10421000DF91CF911F910F91FF90EF90DF90CF90A2
:10422000BF90AF909F908F907F906F900895EF9286
:10423000FF920F931F93CF93DF93CDB7DEB76097B5
:104240000FB6F894DEBF0FBECDBF7C01CE01019644
:104250002D873E874F87588B0E94C4316CEC76E0E7
:10426000CE0107960E9464312D853E854F85588981
:1042700089019A01AE014F5F5F4FBE01695F7F4FB9
:10428000C7010CDFF82ECE0107960E94F930CE014F
:1042900001960E94F9308F2D60960FB6F894DEBF1C
:1042A0000FBECDBFDF91CF911F910F91FF90EF9087
:1042B00008954F925F926F927F92AF92BF92CF928A
:1042C000DF92EF92FF920F931F93CF93DF9300D073
:1042D00000D0CDB7DEB78C017B0129013A0138D877
:1042E00061EE76E0D8018D919C910E94512C2AE0DC
:1042F00030E0B301A201F801808191810E94222D5A
:104300006DEE76E0CE0101960E94643128E833E13B
:1043100040E050E0BE016F5F7F4FC8011DDBD82E2B
:10432000CE0101960E94F930DD2099F1C80110D824
:104330005701C12CD12C7601C414D504E604F7042E
:1043400099F0D8018D919C91F50161915F01DC019B
:10435000ED91FC910190F081E02D1995BFEFCB1A02
:10436000DB0AEB0AFB0AE8CF6FEE76E0CE0101969E
:104370000E94643120E137E240E050E0BE016F5F0F
:104380007F4FC801E9DA182FCE0101960E94F9305B
:1043900001C010E0812F26960FB6F894DEBF0FBE45
:1043A000CDBFDF91CF911F910F91FF90EF90DF90E4
:1043B000CF90BF90AF907F906F905F904F90089597
:1043C00078CF0F931F93CF93DF9300D000D0CDB75A
:1043D000DEB78C010E94A81960E177E0F8018081C6
:1043E00091810E945C2C64E376E0CE0101960E94EC
:1043F000643128E833E140E050E0BE016F5F7F4F59
:10440000C801AADA182FCE0101960E94F930812F37
:1044100026960FB6F894DEBF0FBECDBFDF91CF91C9
:104420001F910F910895CDCFFC0120812D3051F0C7
:1044300024F42950223030F505C0203219F02F32F3
:1044400019F008950196F0CFFC0121812A3219F06C
:104450002F3279F008950296FC012081222321F366
:104460002A3229F421812F3211F40296DDCF0196F0
:10447000F3CFFC013296CF0121912223A9F22A30F9
:10448000D1F7D2CF08950F931F93CF93DF931F924D
:10449000CDB7DEB78C01FC01828193816983C4DFD3
:1044A000FC0120816981261307C00196BDDFF80158
:1044B0009383828381E001C080E00F90DF91CF91F0
:1044C0001F910F910895CF93DF93EC01AA81BB81D7
:1044D0004C813D812C91273219F4C42FD32F15C064
:1044E0002232D9F3C42FD32FFD012AC03C3559F411
:1044F000FD01329612963C91AEE6B7E06C916111E7
:1045000010C0332339F13993DF01AE01FD0131963B
:1045100011963C9111973323E9F03213E7CF31968E
:1045200019C0631303C011963C91EBCF1296E6CFEE
:10453000322F3F7D31543A3148F42993319620810E
:10454000AE0130ED320F3A30C0F3F2CF33ED320F1F
:10455000323098F3DA011D92EC012C813D81FB830E
:10456000EA83BD83AC83C901DF91CF910895BF92E7
:10457000CF92DF92EF92FF920F931F93CF93DF932F
:1045800000D000D0CDB7DEB78C01FC0180819181D5
:10459000C0D16C016BE7C80176DF882309F43CC009
:1045A0006DE7C80170DF811135C086E0B82EC80103
:1045B0008ADF7C01009781F16AE3C80164DF882308
:1045C00059F11A821982BE016F5F7F4FC80136D040
:1045D000882311F1B701C60137D2009739F4C6011B
:1045E000E1D00097C9F0FC01F382E282FE0131962E
:1045F000DC0114968B2D01900D928A95E1F76DE701
:10460000C80141DF811106C06CE2C8013CDF8111A5
:10461000CECF02C0C60102C08DEE9EE026960FB638
:10462000F894DEBF0FBECDBFDF91CF911F910F91E8
:10463000FF90EF90DF90CF90BF900895FF920F937F
:104640001F93CF93DF93EC018B018E81882309F4B4
:1046500043C081508E838A819B81E6DE9B838A835F
:10466000FC0180818B3519F08B3759F01AC0CE01CF
:104670003AD0FC0120813181232B49F125E030E043
:1046800009C0CE0174DFFC0120813181232BF9F0B8
:1046900026E030E0F801318320839383828381E038
:1046A00017C0873231F091E0823209F090E0F92EA4
:1046B00002C0FF24F394CE0106DF009741F0FF20F3
:1046C00019F022E030E0E6CF21E030E0E3CF80E0F7
:1046D0009E819F5F9E8301C080E0DF91CF911F91FB
:1046E0000F91FF900895DF92EF92FF920F931F9327
:1046F000CF93DF9300D000D0CDB7DEB78C01FC01A3
:1047000080819181F2D07C016BE5C801BCDE8823F9
:1047100051F16DE5C801B7DE811123C096E0D92EB5
:104720001A821982BE016F5F7F4FC80187DF88231D
:10473000D1F0C70159D00097B1F0FE013196DC01EC
:1047400012968D2D01900D928A95E1F76DE5C801C5
:104750009ADE811106C06CE2C80195DE8111E0CFBE
:1047600002C0C70102C089EE9EE026960FB6F894FB
:10477000DEBF0FBECDBFDF91CF911F910F91FF9094
:10478000EF90DF900895DB01109749F0ED91FC91D7
:1047900011970190F081E02DBC01CD01199480E0CA
:1047A00090E00895CF93DF93EC01688179818AE0EE
:1047B00090E0E9DF009729F0FC0111821082158258
:1047C0001482EA81FB81309751F0208131812115DB
:1047D000310511F0F901F9CF9183808302C09B83E9
:1047E0008A83DF91CF910895CF93DF93EC016881A5
:1047F000798188E090E0C7DF009729F0FC01118201
:10480000108213821282EA81FB81309751F020815D
:1048100031812115310511F0F901F9CF91838083A0
:1048200002C09B838A83DF91CF910895FC0180852C
:1048300091852681378182179307A0F4A481B581E1
:104840009C012F5F3F4F31872087A80FB91F6C93C2
:10485000A481B58180859185A80FB91F1C9281E044
:1048600090E0089580E090E00895CF93DF93EC010D
:1048700088819981DC01ED91FC910190F081E02D1E
:1048800019952A813B81280F391F3B832A83DF91A9
:10489000CF9108950F931F93CF93DF93EC018B017A
:1048A0006BE5C801E2DF0A80DB81C02D209769F04B
:1048B000B801CE0102961BD10990D881C02D209756
:1048C00021F06CE2C801D1DFF3CF6DE5C801DF91C3
:1048D000CF911F910F91C9CF1092EA0E1092E90E5D
:1048E0001092EC0E1092EB0E0895CF93DF93EC0133
:1048F000BC0184E090E047DFFC01009729F0D18300
:10490000C0831382128202C089EE9EE0DF91CF91B4
:104910000895CF93DF93EC01BC0184E090E033DF96
:10492000FC01009729F0D183C0831382128202C058
:104930008DEE9EE0DF91CF910895CF93DF93CDB7B9
:10494000DEB727970FB6F894DEBF0FBECDBF9A83B0
:1049500089836115710519F48DEA93E001C0CB01DB
:104960009C838B837E836D834F83CE010196FFDD15
:1049700027960FB6F894DEBF0FBECDBFDF91CF9163
:104980000895EF92FF920F931F93CF93DF931F929F
:104990001F92CDB7DEB78B014F5F5F4FDC01ED910A
:1049A000FC910190F081E02DBA0149835A83199559
:1049B0007C0149815A81009719F0B8010E94F23DAB
:1049C000C7010F900F90DF91CF911F910F91FF9032
:1049D000EF900895FF920F931F93CF93DF93EC0115
:1049E0008B016115710589F461E877E0888199810F
:1049F00058D72A813B81280F391F3B832A83DF91B7
:104A0000CF911F910F91FF90089562E2CE012DDFAB
:104A1000F80161918F01662351F0EAE6F7E0F0803A
:104A2000FF20A1F39181961751F03296F8CF62E200
:104A3000CE01DF91CF911F910F91FF9016CF6CE5C2
:104A4000CE0113DF6F2DE2CF0F931F93CF93DF9330
:104A50008B01FC01C281D381209759F0B8018A8172
:104A60009B810E94063E892B39F00990D881C02D88
:104A7000F3CF80E090E001C0CE01DF91CF911F9194
:104A80000F9108950F931F93CF93DF938C01EB0148
:104A90006BE7CE01EADEF8010281138101151105F1
:104AA000B1F0F80162817381CE0194DF6AE3CE0137
:104AB000DCDEBE01C80104961AD0F8010081118124
:104AC0000115110521F06CE2CE01CFDEEACF6DE7D2
:104AD000CE01DF91CF911F910F91C7CE1092EE0EB4
:104AE0001092ED0E1092F00E1092EF0E0895CF93EB
:104AF000DF93FC01EB01208131812530310529F460
:104B000082819381DF91CF91C5CE2630310529F482
:104B100082819381DF91CF91B5CF2230310531F47D
:104B200062817381CE01DF91CF9154CF2130310565
:104B300019F4628173811DC02430310551F4428122
:104B40005381648175812AE030E08881998112D790
:104B500021C02330310589F482819381A481B581FC
:104B6000892B8A2B8B2B19F06FE375E002C066E866
:104B700077E08881998195D60DC02730310584F082
:104B8000275030E042815381648175818881998109
:104B90000E94182E2A813B81280F391F3B832A83CC
:104BA000DF91CF9108950895CF92DF92EF92FF9217
:104BB000FC0185899689481B590B61097109A389F4
:104BC000B4899A01AB010E94613A6B017C018FE0CC
:104BD000F594E794D794C7948A95D1F7658576853F
:104BE000882777FD8095982F2BE0660F771F881F09
:104BF000991F2A95D1F727853089442737FD40959D
:104C0000542F2C0D3D1D4E1D5F1D0E943F3A2C0D53
:104C10003D1D4E1D5F1DCA01B901FF90EF90DF9051
:104C2000CF9008951F93CF93DF931F92CDB7DEB738
:104C3000162F67E770E083E99EE049830E94CA1758
:104C4000612F83E99EE00E9479174981642F83E9EF
:104C50009EE00E94791783E99EE00F90DF91CF914B
:104C60001F910C943C18CF93C62F67E770E083E93F
:104C70009EE00E94CA176C2F83E99EE00E9479177C
:104C800083E99EE00E943C1867E770E083E99EE0BC
:104C90000E94CA1741E050E067E770E083E99EE0B8
:104CA0000E943A1883E99EE00E942A17C82F83E9E0
:104CB0009EE00E943C188C2FCF910895CF93DF93F4
:104CC000C62F67E770E083E99EE00E94CA176C2F49
:104CD00083E99EE00E94791783E99EE00E943C18D8
:104CE00067E770E083E99EE00E94CA1742E050E067
:104CF00067E770E083E99EE00E943A1883E99EE04E
:104D00000E942A17D82F80E0C82F83E99EE00E94D6
:104D10002A17C82BD92B83E99EE00E943C18CE01AC
:104D2000DF91CF910895CF93DF93EC01643008F0C9
:104D300063E0688383E99EE00E94B71760EDCE01CF
:104D400092DF853509F039C06AEACE01B7DF9A8370
:104D500089836CEACE01B2DF9C838B836EEACE013D
:104D6000ADDF9E838D8360EBCE01A8DF9A8B898BAC
:104D700062EBCE01A3DF9C8B8B8B64EBCE019EDFBD
:104D80009E8B8D8B66EBCE0199DF98878F8368EBC6
:104D9000CE0194DF9A8789876AEBCE018FDF9C87EB
:104DA0008B876CEBCE018ADF9E878D876EEBCE0101
:104DB00085DF988B8F8781E001C080E0DF91CF9104
:104DC0000895CF93DF93EC014EE264EF2BDF65E0B3
:104DD00070E080E090E00E94143466EFCE01DF9135
:104DE000CF916CCFCF92DF92EF92FF92CF93DF9370
:104DF000EC0148814295440F440F407C4C5C64EFC9
:104E000011DF8881811105C065E070E080E090E0ED
:104E100012C0813029F468E070E080E090E00BC0BF
:104E2000823029F46EE070E080E090E004C06AE136
:104E300070E080E090E00E94143466EFCE013EDF27
:104E40006C01E12CF12CFE2CED2CDC2CCC2468EF39
:104E5000CE0109DFA7019601282BCA01B9014881BB
:104E600028E030E0241B310904C09695879577959A
:104E700067952A95D2F7DF91CF91FF90EF90DF9061
:104E8000CF9008952F923F924F925F926F927F92B0
:104E90008F929F92AF92BF92CF92DF92EF92FF924A
:104EA0000F931F93CF93DF93CDB7DEB72A970FB63B
:104EB000F894DEBF0FBECDBF9A87898782DF8C0151
:104EC00089859A858FDF6D837E838F839887A8017C
:104ED00060E070E089859A8567DE4B015C0180EABD
:104EE000881A8FE0980AA108B108A5019401C501AC
:104EF000B4010E940E3A2B013C010CE075946794BA
:104F0000579447940A95D1F7A985BA8511962D90A3
:104F10003C9012971C9115960D90BC91A02D0E946B
:104F20006B3A6B017C018DE0F594E794D794C794BC
:104F30008A95D1F7E985FA85A781B085A301920109
:104F40000E946B3ABB2797FDB095AB2FC80ED91EB8
:104F5000EA1EFB1EF2E0CF0ED11CE11CF11C32E078
:104F6000F594E794D794C7943A95D1F780E8D80E92
:104F7000E11CF11CE985FA85A189B289A701960196
:104F80000E94613ADC01CB014FE0B695A795979559
:104F900087954A95D1F789839A83AB83BC83610156
:104FA000EE24D7FCE094FE2C52E0CC0CDD1CEE1C71
:104FB000FF1C5A95D1F7A185B285A30192010E94E9
:104FC0006B3A2B013C016BE07594679457944794BE
:104FD0006A95D1F7A381B481A50194010E946B3A2F
:104FE000EBE09595879577956795EA95D1F7460E0D
:104FF000571E681E791EC40CD51CE61CF71C012E1A
:1050000004C0CC0CDD1CEE1CFF1C0A94D2F792E00D
:10501000C90ED11CE11CF11CC701B60124E030E02F
:1050200040E050E00E943F3A8D819E81AF81B8857B
:10503000821B930BA40BB50B9C01AD0160E573ECD7
:1050400080E090E004C096958795779567951A95CE
:10505000D2F70E940E3A97FD0DC0660F771F881F8A
:10506000991F29813A814B815C810E941D3A490137
:105070005A010CC029813A814B815C810E941D3A02
:1050800049015A01880C991CAA1CBB1C9927B7FC22
:105090009A958B2D7A2D692D9B01AC010E940E3AB9
:1050A0009B01AC01AEEDBBE00E94613A6C01FF24B4
:1050B000D7FCF094EF2CA3E4B3EEA50194010E9479
:1050C0006D3ABB2797FDB095AB2FC80ED91EEA1ECF
:1050D000FB1E9FECC90E9EE0D91EE11CF11CA4E052
:1050E000F594E794D794C794AA95D1F7C80CD91C26
:1050F000EA1CFB1CC701B6012A960FB6F894DEBF66
:105100000FBECDBFDF91CF911F910F91FF90EF9018
:10511000DF90CF90BF90AF909F908F907F906F90D7
:105120005F904F903F902F900895FC01818D228DCC
:1051300090E0805C9F4F821B91098F73992708959F
:10514000FC01918D828D981731F0828DE80FF11D51
:10515000858D90E008958FEF9FEF0895FC01918D6C
:10516000828D981761F0828DDF01A80FB11D5D96C9
:105170008C91928D9F5F9F73928F90E008958FEF37
:105180009FEF089583E69AE2892B39F080E090E062
:10519000892B19F098D1811123C08EE09BE2892BD5
:1051A00039F080E090E0892B19F038D281111BC0D2
:1051B00089EB9BE2892B39F080E090E0892B19F094
:1051C000D8D2811113C080E090E0892BA1F080E05B
:1051D00090E0892B81F00E94000081110AC008959F
:1051E0000E940000DACF0E940000E2CF0E9400007F
:1051F000EACF0C9400000895FC01848DDF01A80F14
:10520000B11DA35ABF4F2C91848D90E001968F73EE
:105210009927848FA689B7892C93A089B1898C910D
:1052200080648C93938D848D981306C00288F389D3
:10523000E02D80818F7D80830895CF93DF93EC01F3
:10524000888D8823C1F0EA89FB89808185FD05C0AE
:10525000A889B9898C9186FD0EC00FB607FCF5CFE1
:10526000808185FFF2CFA889B9898C9185FFEDCF28
:10527000CE01C2DFE8CFDF91CF910895CF92DF92C8
:10528000FF920F931F93CF93DF931F92CDB7DEB79B
:105290006C0181E0D60158968C9358975B969C914F
:1052A0005B975C968C915C97981307C05096ED9134
:1052B000FC915197808185FD2DC0F601038D10E092
:1052C0000F5F1F4F0F731127F02EF601848DF81218
:1052D00010C00FB607FCF9CFD6015096ED91FC91A6
:1052E0005197808185FFF1CFC601698385DF698190
:1052F000ECCF838DE80FF11DE35AFF4F6083D60199
:105300005B960C935B975296ED91FC91539780813D
:1053100080620CC0D6015696ED91FC915797608340
:105320005096ED91FC91519780818064808381E05B
:1053300090E00F90DF91CF911F910F91FF90DF9040
:10534000CF900895BF92CF92DF92EF92FF92CF93CA
:10535000DF93EC016A017B01B22EE889F98982E0D2
:105360008083411581EE580761057105A1F060E069
:1053700079E08DE390E0A70196010E941D3A21504B
:1053800031094109510956954795379527952115BA
:1053900080E1380798F0E889F989108260E874E8BC
:1053A0008EE190E0A70196010E941D3A215031093B
:1053B000410951095695479537952795EC85FD8507
:1053C0003083EE85FF852083188EEC89FD89B082BD
:1053D000EA89FB89808180618083EA89FB898081F9
:1053E00088608083EA89FB89808180688083EA897C
:1053F000FB8980818F7D8083DF91CF91FF90EF903B
:10540000DF90CF90BF9008951F920F920FB60F922A
:1054100011240BB60F922F938F939F93EF93FF93CB
:10542000E091010FF091020F8081E091070FF09160
:10543000080F82FD12C0908180910A0F8F5F8F73D9
:1054400020910B0F821751F0E0910A0FF0E0EF501E
:10545000F14F958F80930A0F01C08081FF91EF91EA
:105460009F918F912F910F900BBE0F900FBE0F90B9
:105470001F9018951F920F920FB60F9211240BB622
:105480000F922F933F934F935F936F937F938F93DD
:105490009F93AF93BF93EF93FF9381EF9EE0ACDEBA
:1054A000FF91EF91BF91AF919F918F917F916F91FC
:1054B0005F914F913F912F910F900BBE0F900FBEB8
:1054C0000F901F90189581EF9EE02FDE21E0892B31
:1054D00009F420E0822F08951092F40E1092F30E3A
:1054E00088EE93E0A0E0B0E08093F50E9093F60E86
:1054F000A093F70EB093F80E80E997E09093F20E28
:105500008093F10E85EC90E09093FE0E8093FD0E5B
:1055100084EC90E09093000F8093FF0E80EC90E07D
:105520009093020F8093010F81EC90E09093040F11
:105530008093030F82EC90E09093060F8093050F09
:1055400086EC90E09093080F8093070F10920A0F5B
:1055500010920B0F10920C0F10920D0F08951F92C6
:105560000F920FB60F9211240BB60F922F938F93B9
:105570009F93EF93FF93E0919E0FF0919F0F808197
:10558000E091A40FF091A50F82FD12C0908180914F
:10559000A70F8F5F8F732091A80F821751F0E091B2
:1055A000A70FF0E0E257F04F958F8093A70F01C04F
:1055B0008081FF91EF919F918F912F910F900BBE62
:1055C0000F900FBE0F901F9018951F920F920FB65D
:1055D0000F9211240BB60F922F933F934F935F932B
:1055E0006F937F938F939F93AF93BF93EF93FF93AB
:1055F0008EE89FE001DEFF91EF91BF91AF919F9107
:105600008F917F916F915F914F913F912F910F906B
:105610000BBE0F900FBE0F901F9018958EE89FE065
:1056200084DD21E0892B09F420E0822F0895109277
:10563000910F1092900F88EE93E0A0E0B0E080937D
:10564000920F9093930FA093940FB093950F80E9CE
:1056500097E090938F0F80938E0F8DEC90E0909356
:105660009B0F80939A0F8CEC90E090939D0F80930A
:105670009C0F88EC90E090939F0F80939E0F89EC95
:1056800090E09093A10F8093A00F8AEC90E090930C
:10569000A30F8093A20F8EEC90E09093A50F8093C0
:1056A000A40F1092A70F1092A80F1092A90F10929A
:1056B000AA0F08951F920F920FB60F9211240BB6E6
:1056C0000F922F938F939F93EF93FF93E0913B1053
:1056D000F0913C108081E0914110F091421082FDE8
:1056E00012C09081809144108F5F8F73209145107C
:1056F000821751F0E0914410F0E0E55DFF4E958F88
:105700008093441001C08081FF91EF919F918F9110
:105710002F910F900BBE0F900FBE0F901F901895FA
:105720001F920F920FB60F9211240BB60F922F9368
:105730003F934F935F936F937F938F939F93AF9319
:10574000BF93EF93FF938BE290E156DDFF91EF91D2
:10575000BF91AF919F918F917F916F915F914F9189
:105760003F912F910F900BBE0F900FBE0F901F9087
:1057700018958BE290E1D9DC21E0892B09F420E037
:10578000822F089510922E1010922D1088EE93E023
:10579000A0E0B0E080932F1090933010A0933110D0
:1057A000B093321080E997E090932C1080932B10E7
:1057B00085ED90E0909338108093371084ED90E061
:1057C00090933A108093391080ED90E090933C10C4
:1057D00080933B1081ED90E090933E1080933D10BC
:1057E00082ED90E09093401080933F1086ED90E022
:1057F00090934210809341101092441010924510E3
:1058000010924610109247100895CF92DF92EF92B7
:10581000FF920F931F93CF93DF937C016A01EB01FB
:1058200000E010E00C151D0571F06991D701ED91B4
:10583000FC910190F081E02DC7011995892B19F099
:105840000F5F1F4FEFCFC801DF91CF911F910F91D5
:10585000FF90EF90DF90CF9008956115710581F072
:10586000DB010D900020E9F7AD0141505109461BC5
:10587000570BDC01ED91FC910280F381E02D19942E
:1058800080E090E00895DC01ED91FC91DB0114963D
:105890004D915C9115976D917C910280F381E02D83
:1058A0001994DBCFDC01ED91FC910190F081E02DAA
:1058B00019946BEA73E0D1CF0F931F93CF93DF93CB
:1058C000EC01CBDF8C01CE01F4DF800F911FDF9163
:1058D000CF911F910F9108958F929F92AF92BF9297
:1058E000DF92EF92FF920F931F93CF93DF93CDB789
:1058F000DEB7A1970FB6F894DEBF0FBECDBF7C0117
:10590000F42FD52ECB0119A2223008F42AE08E0103
:105910000F5D1F4F822E912CA12CB12C6F2F7D2D4E
:10592000A50194010E941D3AF22FD32ECA01015005
:1059300011096A3014F4E0E301C0E7E3E60FD8018F
:10594000EC93232B242B252B49F7B801C70185DFC6
:10595000A1960FB6F894DEBF0FBECDBFDF91CF91F9
:105960001F910F91FF90EF90DF90BF90AF909F90AD
:105970008F900895CF92DF92EF92FF920F931F9333
:10598000CF93DF93EC016A017B012115310579F496
:10599000E881F9810190F081E02D642FDF91CF91B2
:1059A0001F910F91FF90EF90DF90CF9019942A30C4
:1059B0003105D9F477FF18C06DE274DF8C014427FC
:1059C0005527BA014C195D096E097F092AE0CE01FD
:1059D00083DF800F911FDF91CF911F910F91FF9077
:1059E000EF90DF90CF9008952AE0B701A601CE0195
:1059F000DF91CF911F910F91FF90EF90DF90CF90AB
:105A00006BCF2115310541F4DC01ED91FC91019042
:105A1000F081E02D642F19945FCF0F931F93CF93E4
:105A2000DF93EC019A01462F50E060E070E0E9DF7F
:105A30008C01CE013EDF800F911FDF91CF911F912E
:105A40000F9108950F931F93CF93DF93EC01D9DF4C
:105A50008C01CE012EDF800F911FDF91CF911F911E
:105A60000F9108954F925F926F927F928F929F92C3
:105A7000AF92BF92CF92DF92EF92FF920F931F935C
:105A8000CF93DF93EC016A017B01B22E9A01AB0147
:105A9000C701B6010E94F138882319F06CE977E05C
:105AA00027C026013701E89477F82FEF3FEF4FE743
:105AB0005FE7C301B2010E94F13881110DC02FEFE1
:105AC0003FEF4FE75FE7C301B2010E94EF361816C0
:105AD0001CF460EA77E00CC02FEF3FEF4FE75FE484
